:020000040800F2
:10000000200800203D050008110300081303000824
:10001000170300081B0300081F030008000000006E
:1000200000000000000000000000000023030008A2
:10003000250300080000000027030008290300082A
:100040005705000857050008570500085705000820
:100050005705000857050008570500085705000810
:100060005705000857050008570500085705000800
:1000700057050008570500085705000857050008F0
:1000800057050008570500085705000857050008E0
:1000900057050008570500085705000857050008D0
:1000A00057050008570500085705000857050008C0
:1000B00057050008690200085705000857050008A1
:1000C00057050008570500085705000857050008A0
:1000D000570500086D260008570500085705000859
:1000E0005705000857050008570500085705000880
:1000F0005705000857050008570500085705000870
:10010000570500085705000857050008570500085F
:10011000570500085705000857050008570500084F
:10012000570500085705000857050008570500083F
:10013000570500085705000857050008570500082F
:10014000570500085705000857050008570500081F
:10015000570500085705000857050008570500080F
:1001600057050008570500085705000857050008FF
:1001700057050008570500085705000857050008EF
:10018000570500085705000800F002F800F03CF899
:100190000AA090E8000C82448344AAF10107DA45E2
:1001A00001D100F031F8AFF2090EBAE80F0013F0F8
:1001B000010F18BFFB1A43F0010318473451000028
:1001C00054510000103A24BF78C878C1FAD85207B9
:1001D00024BF30C830C144BF04680C6070470000C1
:1001E0000023002400250026103A28BF78C1FBD840
:1001F000520728BF30C148BF0B6070471FB505F0DC
:100200001AF81FBD10B510BD03F0FEFF1146FFF731
:10021000F5FF00F025F804F01CF803B4FFF7F2FF37
:1002200003BC02F0C3F9000010B54FF4A06000F069
:10023000A5F90723022208214FF4A87002F06EF9F5
:100240004FF4E13002F0C0F9A82001F0FBFE02F00B
:10025000DCFA40F2473140F2F31003F0D7FE10BD54
:10026000FFF7E2FF00BFFEE710B501211D4801F0D6
:10027000D2FB012831D11C4A1C491D4802F09BFBCE
:100280001C4A1D491D4802F06EFB03F03BFB1C4B52
:1002900093ED000ADFED1B0A20EE200ABDEEC00A36
:1002A00010EE103A1AB2184B93ED000ADFED150A62
:1002B00020EE200ABDEEC00A10EE103A19B2134B20
:1002C00093ED000ADFED0F0A20EE200ABDEEC00A12
:1002D00010EE103A18B203F058FF0121014801F066
:1002E000ABFB10BD00040040100000200E000020F9
:1002F0000C00002016000020140000201200002036
:10030000740000200000C842700000206C00002033
:10031000704700BFFEE700BFFEE700BFFEE700BF7B
:10032000FEE7704770477047704700000CB500202B
:10033000019000907648006840F48030744908606D
:1003400000BF7348006800F4003000900198401C22
:100350000190009818B90198B0F5A04FF1D16C4800
:10036000006800F4003010B10120009001E000208E
:1003700000900098012846D165484030006840F060
:1003800080506349403108606248006840F4404052
:10039000604908605E48083000685D4908310860BF
:1003A0000846006840F4004008600846006840F4D1
:1003B000A05008605848091F0860081F006840F0F6
:1003C0008070091F086000BF5148006800F000708D
:1003D0000028F9D040F20570504908604C480830B8
:1003E000006820F003004A490831086008460068A8
:1003F00040F00200086000BF45480830006800F087
:100400000C000828F8D10CBD10B54548006840F430
:100410007000434908603E48006840F001003C49D4
:10042000086000203A4908310860394800683D49B1
:100430000840374908603C48091D0860081F0068EB
:1004400020F48020091F0860002031490C31086029
:10045000FFF76CFF4FF0006031498039086010BD34
:1004600070B500200022022300240221284D083507
:100470002D6805F00C0020B1042806D0082834D1DE
:1004800007E02A4D2A4E356033E02A4D284E35606C
:100490002FE01F4D2D1D2D68C5F380541C4D2D1DC3
:1004A0002D6805F03F0154B1224DB5FBF1F5184E12
:1004B000361D3668C6F3881605FB06F209E01B4DAB
:1004C000B5FBF1F5124E361D3668C6F3881605FBEE
:1004D00006F20F4D2D1D2D68C5F301456D1C6B00F7
:1004E000B2FBF3F5124E356003E0104D104E35604F
:1004F00000BF00BF064D08352D68C5F303150E4E2D
:10050000705D0B4D2D68C540094E356070BD000013
:10051000003802400070004008544007003C024090
:1005200088ED00E0FFFFF6FE103000240024F40008
:100530001800002000127A001C00002009488047A3
:1005400009480047FEE7FEE7FEE7FEE7FEE7FEE7B5
:10055000FEE7FEE7FEE7FEE704480549054A064BCD
:1005600070470000090400088901000820020020EB
:1005700020080020200400202004002032490143EC
:10058000324A1160704770B5002100230F22C478F1
:100590001CB32E4C246804F4E064C4F5E064C4F396
:1005A0000721C1F10404E3B20A4144789C40E1B25E
:1005B0008478144021430C07210E254C05786155A1
:1005C000047804F01F050124AC4005786D11AD00DE
:1005D00005F1E025C5F8004109E0047804F01F05A5
:1005E0000124AC401B4D0678761145F8264070BDBD
:1005F000194A0A400243154B1B1F1A60704739B154
:10060000124A121D12680243104B1B1D1A6006E0AD
:100610000E4A121D126882430C4B1B1D1A60704754
:10062000042808D14FF0E021096941F004014FF09E
:10063000E022116107E04FF0E021096921F0040197
:100640004FF0E022116170470000FA050CED00E068
:1006500000E400E080E100E080FFFF1F10B50446E9
:100660009848844208D10121084600F086FB002109
:10067000012000F082FB76E09348844208D10121FA
:10068000022000F07AFB0021022000F076FB6AE0F5
:100690008E48844208D10121042000F06EFB002125
:1006A000042000F06AFB5EE08948844208D1012101
:1006B000082000F062FB0021082000F05EFB52E001
:1006C0008448844208D10121102000F056FB00210B
:1006D000102000F052FB46E07F48844208D10121FF
:1006E000202000F04AFB0021202000F046FB3AE0E9
:1006F0007A48844208D10121402000F03EFB0021CD
:10070000402000F03AFB2EE07548844208D10121D8
:10071000802000F032FB0021802000F02EFB22E040
:100720007048844208D10121801500F026FB002189
:10073000A01500F022FB16E06B48844208D101218D
:10074000401500F01AFB0021601500F016FB0AE0CE
:100750006648844207D10121001500F00EFB0021FC
:10076000201500F00AFB10BDF0B50A460021002359
:10077000002400BF3DE0012505FA01F3156805EAF4
:1007800003049C4234D105684F000326BE40B543A4
:10079000056015794E00B54006683543056015794A
:1007A000012D02D01579022D16D185684F00032640
:1007B000BE40B543856055794E00B54086683543E7
:1007C0008560456801268E40B54345604568967949
:1007D0008E40B6B235434560C5684F000326BE4023
:1007E000B543C560D5794E00B540C6683543C56090
:1007F000491C1029BFD3F0BD4FF6FF7101600021E5
:10080000017141718171C171704708B54FF4803237
:100810000092009A0A430092009AC261C161009A54
:10082000C261C2690092C269009208BD02460020FE
:1008300013690B400BB1012000E000207047014616
:10084000086980B270470246002053690B400BB123
:10085000012000E0002070470146486980B27047DF
:1008600001837047418370470AB1018300E04183EF
:1008700070474161704742694A4042617047F0B534
:10088000002300244D07ED0E02FA05F3CE1000F10F
:10089000200555F826504E07F70E0F26BE40B543EB
:1008A000CF1000F1200646F82750CE1000F12005A9
:1008B00055F8265045EA0304CE1000F1200545F80E
:1008C0002640F0BD00000240000402400008024043
:1008D000000C0240001002400014024000180240C8
:1008E000001C024000200240002402400028024078
:1008F000F948006840F00100F74908600020F64917
:1009000008310860F4480068F4490840F24908607A
:10091000F348091D0860F348EF4984310860F04846
:100920001038091D0860EC48006820F48020EA496E
:1009300008600020E8490C310860E7498C31086004
:1009400070470021E44A921C1170114608707047EC
:1009500010B501460022002300204A11012A02D1CD
:10096000DD4C236808E0022A03D1DB4C7034236895
:1009700002E0D94C7434236801F01F020124944032
:100980001C400CB1012000E0002010BD38B5002053
:1009900000900024002500BF3120FFF7D9FF054655
:1009A0000098401C00900098B0F5A04F01D0002D99
:1009B000F2D03120FFF7CCFF08B1012400E0002481
:1009C000204638BD01460020C34A106820F0F800D8
:1009D00040EAC10010607047C349086070470021B9
:1009E000BD4A703211701170012802D004280AD15A
:1009F00004E00121B84A7032117005E00521B64AC1
:100A00007032117000E000BF00BF7047B749086046
:100A1000704770B5049C41EA82150126C6EB530667
:100A200045EA0645054345EA0465AB4E361D35608B
:100A300070BDAD4908667047820142EA0172A64B5B
:100A400084331A607047A8498866704710B58301DF
:100A500043EA016343EA02739F4C8834236010BD6C
:100A6000A14908677047A049C86470470246002042
:100A7000994B0833186820F0EC6042EA01031843F0
:100A8000954B08331860704702460020924B08339C
:100A9000186820F0784042EA010318438E4B08336F
:100AA00018607047014600208B4A0832106820F019
:100AB000030008431060704787480830006800F062
:100AC0000C00704701460020834A0832106820F06D
:100AD000F000084310607047014600207E4A08324B
:100AE000106820F4E0500843106070470146002071
:100AF000794A0832106820F4604040EAC100106072
:100B00007047F0B5002100220024022500260223B0
:100B1000714F08373F6807F00C0121B1042905D057
:100B2000082937D105E0724F076036E0714F076042
:100B300033E0694F3F1D3F68C7F38056664F3F1D46
:100B40003F6807F03F036EB16A4FB7FBF3F7DFF87A
:100B500088C10CF1040CDCF800C0CCF3881C07FB46
:100B60000CF40CE0624FB7FBF3F7DFF86CC10CF14B
:100B7000040CDCF800C0CCF3881C07FB0CF4564FC7
:100B80003F1D3F68C7F301477F1C7D00B4FBF5F7AD
:100B9000076002E0564F076000BF00BF4E4F0837A6
:100BA0003F6807F0F0010909534F7A5C0768D740A6
:100BB0004760494F08373F6807F4E051890A4E4FB4
:100BC0007A5C4768D7408760434F08373F6807F42F
:100BD0006041490B484F7A5C4768D740C760F0BD19
:100BE000002100F44072B2F5407F0AD13A4A08323F
:100BF000116821F4F811414A02401143364A083283
:100C00001160354A70321268C0F30B031A43324B3D
:100C100070331A607047354944390860704733496A
:100C20004039086070473649086070470146002027
:100C3000294A8C32106820F01F004A1E1043264AB1
:100C40008C321060704701460020234A8C321068B5
:100C500020F4F8504A1E40EA02201F4A8C321060ED
:100C60007047014600201C4A8C32106820F4401066
:100C700008431060704701460020174A8C32106804
:100C800020F4400008431060704701460020124ADB
:100C90008C32106820F440300843106070471949C6
:100CA0000860704739B10C4A3032126802430A4B6F
:100CB00030331A6006E0084A303212688243064B2D
:100CC00030331A607047F9B1034A34321268024374
:100CD000014B34331A601CE000380240FFFFF6EA93
:100CE000103000240030002000004742800E4742B0
:100CF0000024F40000127A002C000020FFFCFF0FFB
:100D00005C014742E01147428F4A126882438E4B92
:100D10001A60704739B18C4A121D126802438A4B1F
:100D20001B1D1A6006E0884A121D12688243864B1A
:100D30001B1D1A60704739B1834A0C321268024396
:100D4000814B0C331A6006E07F4A0C3212688243F2
:100D50007D4B0C331A60704739B17B4A10321268F0
:100D60000243794B10331A6006E0774A103212685A
:100D70008243754B10331A60704739B1724A243A76
:100D800012680243704B243B1A6006E06E4A243A14
:100D9000126882436C4B243B1A60704739B16A4A2F
:100DA000203A12680243684B203B1A6006E0664A0C
:100DB000203A12688243644B203B1A60704739B175
:100DC000614A1C3A126802435F4B1C3B1A6006E002
:100DD0005D4A1C3A126882435B4B1C3B1A607047A9
:100DE00039B1594A143A12680243574B143B1A60FE
:100DF00006E0554A143A12688243534B143B1A607A
:100E0000704739B1504A103A126802434E4B103BBA
:100E10001A6006E04C4A103A126882434A4B103B73
:100E20001A60704739B1484A1C3212680243464B77
:100E30001C331A6006E0444A1C3212688243424B5B
:100E40001C331A60704739B13F4A2032126802439E
:100E50003D4B20331A6006E03B4A20321268824341
:100E6000394B20331A60704739B1374A243212683F
:100E70000243354B24331A6006E0334A24321268A9
:100E80008243314B24331A60704739B12E4A2C32D9
:100E9000126802432C4B2C331A6006E02A4A2C328B
:100EA00012688243284B2C331A60704739B1264AA6
:100EB000303212680243244B30331A6006E0224A73
:100EC000303212688243204B30331A607047012859
:100ED00008D11D493C31096841F008011A4A3C32E9
:100EE000116007E018493C31096821F00801164AF1
:100EF0003C321160704739B1134A273A12780243E5
:100F0000114B273B1A7006E00F4A273A12788243AA
:100F10000D4B273B1A7070470B484030006840F07B
:100F20008070094940310860704701460020064A38
:100F3000283A12680A400AB1012000E000207047F8
:100F400001492639087070473438024010B504460C
:100F5000FE48844208D101210846FFF752FF0021D4
:100F60000120FFF74EFF9DE0B4F1804F08D1012131
:100F70000846FFF735FF00210120FFF731FF91E020
:100F8000F348844208D101210220FFF729FF002104
:100F90000220FFF725FF85E0EE48844208D10121B9
:100FA0000420FFF71DFF00210420FFF719FF79E05F
:100FB000E948844208D101210820FFF711FF0021F0
:100FC0000820FFF70DFF6DE0E448844208D10121BD
:100FD0001020FFF705FF00211020FFF701FF61E05F
:100FE000DF48844208D101212020FFF7F9FE0021CB
:100FF0002020FFF7F5FE55E0DA48844208D10121B0
:101000000220FFF7FEFE00210220FFF7FAFE49E072
:10101000D548844209D101210804FFF7F2FE0021DE
:101020004FF48030FFF7EDFE3CE0D048844209D118
:1010300001214804FFF7E5FE00214FF40030FFF7DF
:10104000E0FE2FE0CA48844209D101218804FFF75D
:10105000D8FE00214FF48020FFF7D3FE22E0C548E0
:10106000844208D101214020FFF7BAFE0021402030
:10107000FFF7B6FE16E0C048844208D10121802067
:10108000FFF7AEFE00218020FFF7AAFE0AE0BB4872
:10109000844207D101218015FFF7A2FE0021A0158F
:1010A000FFF79EFE10BD00220288A84B98420ED08A
:1010B000AC4B98420BD0B0F1804F08D0A44B984273
:1010C00005D0A44B984202D0A34B984204D14FF6CE
:1010D0008F731A404B881A43A04B984207D0A04BFD
:1010E000984204D04FF6FF431A400B891A430280FE
:1010F0004B68C3620B880385944B984202D0994B8E
:10110000984201D18B7A03860123838270474FF086
:10111000FF3141600021018001814180817270476F
:101120000185828270470A46002101884FF68F733D
:10113000194011430180704741627047C162704796
:101140000146486A70470146088D704721B1028800
:1011500042F00202028004E002884FF6FD731A405A
:101160000280704721B1028842F00402028004E04C
:1011700002884FF6FB731A400280704721B1028843
:1011800042F08002028004E002884FF67F731A402A
:101190000280704702884FF6F7731A400280028877
:1011A0000A430280704702884FF6FF431A400280CC
:1011B00002880A430280704721B1028842F001028E
:1011C000028004E002884FF6FE731A4002807047E6
:1011D00070B5002400220023058C4FF6FE763540C2
:1011E0000584028C8388048B4FF68F752C40B51EC6
:1011F0002C400D882C43751E2A408D892A434D882A
:101200002A43524DA84202D0564DA84213D14FF660
:10121000F7752A40CD892A434FF6FB752A408D8801
:101220002A434FF6FF652B404FF6FF552B400D8AA2
:101230002B434D8A2B43838004838D68456302844E
:1012400070BD70B5002400220023058C4FF6EF76A8
:1012500035400584028C8388048B48F6FF752C404A
:101260004FF6FF452C400D884FF6FF7606EA052520
:101270002C434FF6DF752A408D8906EA05152A436F
:101280004D8806EA05152A43304DA84202D0354D57
:10129000A8421DD14FF67F752A40CD894FF6FF76C3
:1012A00006EA05152A434FF6BF752A408D8806EADF
:1012B00005152A434FF6FF352B404FF2FF752B40A3
:1012C0000D8A06EA85052B434D8A06EA85052B43E0
:1012D000838004838D688563028470BD70B50024AB
:1012E00000220023058C4FF6FF6635400584028CF2
:1012F0008388848B4FF68F752C404FF6FC752C40FD
:101300000D882C434FF6FF552A408D894FF6FF7606
:1013100006EA05252A434D8806EA05252A430B4D92
:10132000A84202D00F4DA84238D14FF2FF752A4093
:10133000CD894FF6FF7606EA05252A434FF6FF359D
:101340002A408D8806EA05252A4319E0000001405D
:101350000004004000080040000C00400010004065
:1013600000140040000401400040014000440140DE
:101370000048014000180040001C004000200040D0
:101380004EF6FF752B404DF6FF752B400D8A06EA91
:1013900005152B434D8A06EA05152B43838084836C
:1013A0008D68C563028470BD70B5002200230024DF
:1013B000058C4EF6FF7635400584038C8488828B3D
:1013C00048F6FF752A404FF6FF452A400D884FF634
:1013D000FF7606EA05252A434DF6FF752B408D89D9
:1013E00006EA05352B434D8806EA05352B43FE4DAD
:1013F000A84202D0FD4DA84208D14BF6FF752C4003
:101400000D8A4FF6FF7606EA85152C438480828389
:101410008D680564038470BD002101804180818056
:1014200081608181C18101824182704770B503462C
:10143000002000241846183001258D40ACB21D8CC8
:10144000A5431D8409B108290AD100EB6100056894
:101450004FF68F76354005600568154305600FE04F
:101460000D1FC5F34E052844056848F6FF76354044
:10147000056005684FF6FF7606EA022635430560EB
:1014800070BD4163704781637047C16370470164F9
:1014900070470A460021018B4FF68F7319401143A4
:1014A000018370470A460021018B48F6FF731940FB
:1014B0004FF6FF7303EA02231943018370470A467C
:1014C0000021818B4FF68F73194011438183704740
:1014D0000A460021818B48F6FF7319404FF6FF73CF
:1014E00003EA02231943818370470A460021018BD6
:1014F0004FF6F77319401143018370470A460021E4
:10150000018B4FF2FF7319404FF6FF7303EA02237A
:101510001943018370470A460021818B4FF6F77308
:1015200019401143818370470A460021818B4FF295
:10153000FF7319404FF6FF7303EA022319438183B7
:1015400070470A460021018B4FF6FB731940114387
:10155000018370470A460021018B4FF6FF33194083
:101560004FF6FF7303EA02231943018370470A46CB
:101570000021818B4FF6FB73194011438183704723
:101580000A460021818B4FF6FF3319404FF6FF7357
:1015900003EA02231943818370470A460021018B25
:1015A0004FF67F7319401143018370470A460021AB
:1015B000018BC1F30E014FF6FF7303EA02231943B7
:1015C000018370470A460021818B4FF67F731940D3
:1015D0001143818370470A460021818BC1F30E01BC
:1015E0004FF6FF7303EA02231943818370470A46CB
:1015F0000021018C4FF6FD7319401143018470479F
:101600000A460021018C4FF6F773194011430184FB
:1016100070470A460021018C4FF6DF7319404FF6E0
:10162000FF7303EA02131943018470470A4600213D
:10163000018C4FF67F7319404FF6FF7303EA0213D4
:101640001943018470470A460021018C4FF6FF536D
:1016500019404FF6FF7303EA0223194301847047D0
:101660000A460021018C4FF2FF7319404FF6FF73B9
:1016700003EA02231943018470470A460021018CC2
:101680004DF6FF7319404FF6FF7303EA0233194317
:101690000184704730B5002301248C40A3B2048C30
:1016A0009C430484048C02FA01F5ADB22C430484FB
:1016B00030BD30B5002304248C40A3B2048C9C437D
:1016C0000484048C02FA01F5ADB22C43048430BDCD
:1016D000828B4FF2FF331A408283828B4FF6FF7367
:1016E00003EA01231A4382837047F0B50C4615467E
:1016F000002100220026078C4EF6FF7C07EA0C072B
:101700000784818B028C4FF6FF7707EA043640F698
:10171000FF4739404FF6FF7707EA052739434FF671
:10172000FF7707EA0337394345F6FF773A4046F437
:1017300080573A4381830284F0BD828B4FF6F37366
:101740001A408283828B0A4382837047F0B50C462D
:101750001546002100220026078C4FF6FF6C07EA91
:101760000C070784818B028C4FF6FF7707EA04266B
:101770004FF60C7739404FF6FF7707EA03172F43F0
:1017800039434FF2FF573A4046F480773A4381831A
:101790000284F0BD028B4FF2FF331A400283028BAA
:1017A0004FF6FF7303EA01231A4302837047F0B533
:1017B0000C461546002100220026078C4FF6EF7CD0
:1017C00007EA0C070784018B028C4FF6FF7707EAC4
:1017D000041640F6FF4739404FF6FF7707EA033714
:1017E00039434FF6FF7703E0000001400004014059
:1017F00007EA052739434FF65F773A4046F010076E
:101800003A4301830284F0BD028B4FF6F3731A4012
:101810000283028B0A4302837047F0B50C461546DB
:1018200000210022068C4FF6FE773E400684018B95
:10183000028C4FF60C7631407E1C06EA03162E43CE
:1018400031434FF6F576324044F0010632430183CE
:101850000284F0BD70B505460C46208850B9238936
:10186000A28861882846FFF7D8FFE1882846FFF75D
:10187000CBFF25E0208804280AD12389A28861882B
:101880002846FFF794FFE1882846FFF783FF17E01B
:10189000208808280AD12389A28861882846FFF772
:1018A00055FFE1882846FFF748FF09E02389A28811
:1018B00061882846FFF719FFE1882846FFF708FFEF
:1018C00070BD002101804180012181800021C18003
:1018D000018170472DE9F04105460C46002601279D
:1018E000608808B9022600E00026A088012801D1FE
:1018F000022700E001272088A0B92389A2886188F7
:101900002846FFF78AFFE1882846FFF77DFF2389F5
:101910003A4631462846FFF74AFFE1882846FFF756
:1019200039FF13E02389A28861882846FFF73FFF2B
:10193000E1882846FFF72EFF23893A46314628469C
:10194000FFF76BFFE1882846FFF75EFFBDE8F081F7
:101950000146486B70470146886B70470146C86B6B
:1019600070470146086C70470A884B881A438B8879
:101970001A43CB881A430B891A434B891A438B8924
:101980001A43A0F8442070470021018041808180E3
:10199000C180018141818181704731B1B0F844201B
:1019A00042F40042A0F8442005E0B0F84420C2F31D
:1019B0000E02A0F84420704721B1828842F0040250
:1019C000828004E082884FF6FB731A408280704761
:1019D00021B1828842F00102828004E082884FF6C1
:1019E000FE731A40828070471AB183890B4383814A
:1019F00002E083898B43838170478182704702466E
:101A00000020138A0B400BB1012000E0002070473A
:101A1000CA430282704730B50246002000230024EA
:101A2000158A05EA0103958905EA010413B10CB191
:101A3000012000E0002030BDCA430282704741EA25
:101A40000203A0F8483070471AB183890B438381A1
:101A500002E083898B438381704721B1828842F001
:101A60000802828004E082884FF6F7731A40828071
:101A7000704701894FF6F8721140018170470A469C
:101A8000002101894FF68F7319401143018170477E
:101A900030B504460D4629462046FFF7F0FF208961
:101AA00040F00700208130BD2DE9F04104460D468D
:101AB00016461F46602D06D13B4601223146204680
:101AC000FFF775FE05E03B46012231462046FFF751
:101AD000A4FE29462046FFF7D2FF208940F00700E8
:101AE0002081BDE8F08130B50C4600210189C9B2E2
:101AF0004FF6FF7505EA0325154325432943018168
:101B000030BD2DE9F04105460E46174698460024A3
:101B100043463A4631462846FFF7E5FF2C894FF603
:101B2000F870044044F007044FF68F70044044F00E
:101B300070042C81BDE8F081F0B504460D461646D0
:101B40001F463B46324629462046FFF7CCFF2089F8
:101B500040F480402081F0BD82884FF68F731A4098
:101B6000828082880A438280704702894FF6F87328
:101B70001A40028102890A430281704702894FF6A6
:101B80007F731A40028102890A4302817047F0B5CF
:101B90000C4615461E460021002200230189028BB7
:101BA000038C4FF6F877394021434FF6FC473A4013
:101BB00040F201173A434FF6DD773B404FF6FF778F
:101BC00007EA06172F433B43018102830384F0BDDC
:101BD00021B1828842F08002828004E082884FF640
:101BE0007F731A4082807047A0F850107047000041
:101BF00010B50446FA48844208D101211020FFF7AD
:101C000000F900211020FFF7FCF857E0F548844266
:101C100009D101214804FFF7E3F800214FF4003017
:101C2000FFF7DEF84AE0F048844209D10121880438
:101C3000FFF7D6F800214FF48020FFF7D1F83DE000
:101C4000EA48844209D10121C804FFF7C9F80021FC
:101C50004FF40020FFF7C4F830E0E548844209D192
:101C600001210805FFF7BCF800214FF48010FFF7B1
:101C7000B7F823E0DF48844208D101212020FFF794
:101C8000C0F800212020FFF7BCF817E0DA488442B2
:101C900009D101218807FFF7A3F800214FF0804008
:101CA000FFF79EF80AE0D548844207D1012140059C
:101CB000FFF796F800216005FFF792F810BD2DE9B7
:101CC000FF4705460E460024A14600BFA046B08946
:101CD00000B100BF2C8A24F44054F08804432C82C5
:101CE000AC8941F20C608443B08831890843718922
:101CF00008430443AC81AC8A24F44074B0890443A3
:101D0000AC826846FEF7FDFEB548854202D0B94870
:101D1000854202D1DDF80C9001E0DDF80890A88939
:101D200000F4004040B109EBC90000EB0910316834
:101D30004900B0FBF1F707E009EBC90000EB09101F
:101D400031688900B0FBF1F76420B7FBF0F00401C3
:101D50002009642101FB1078A88900F4004040B1FB
:101D6000322000EBC800B0FBF1F000F007000443A4
:101D700008E0322000EB08106421B0FBF1F000F025
:101D80000F0004432C81BDE8FF874FF4165101601A
:101D900000218180C18001810C214181002181814C
:101DA000704710B502460020108A20F470600B883E
:101DB0004C8823438C882343CC88234318431082C8
:101DC00010BD0021018041808180C180704721B118
:101DD000828942F40052828104E082894DF6FF73C9
:101DE0001A4082817047028B02F47F420283028B89
:101DF0000A430283704721B1828942F40042828102
:101E000003E08289C2F30E028281704721B1828A87
:101E100042F40062828204E0828A4FF2FF731A4029
:101E200082827047C1F30802828070470146888829
:101E3000C0F308007047028A4FF6F0731A4002821E
:101E4000028A0A430282704721B1828942F002026B
:101E5000828104E082894FF6FD731A4082817047C7
:101E600082894FF2FF731A40828182890A438281FC
:101E70007047028A4FF6DF731A400282028A0A43D1
:101E80000282704721B1028A42F48042028204E059
:101E9000028A4BF6FF731A4002827047818941F033
:101EA00001018181704721B1828A42F00802828259
:101EB00004E0828A4FF6F7731A4082827047028BE1
:101EC000D2B20283028B42EA01220283704721B11F
:101ED000828A42F02002828204E0828A4FF6DF7317
:101EE0001A408282704721B1828A42F010028282B7
:101EF00004E0828A4FF6EF731A4082827047828A2A
:101F00004FF6FB731A408282828A0A4382827047AC
:101F100021B1828A42F00202828204E0828A4FF674
:101F2000FD731A40828270471AB1838A0B43838201
:101F300002E0838A8B4383827047F0B50346002416
:101F400000260025002040F66A17B94200D100BFE4
:101F50001846C1F3421401F01F06012707FA06F5DF
:101F6000012C01D10C3004E0022C01D1103000E032
:101F700014301AB107682F43076002E00768AF43C7
:101F80000760F0BD02460020B1F5007F00D100BF20
:101F900013880B400BB1012000E00020704701F4D2
:101FA0000072B2F5007F00D100BFCA4302807047C3
:101FB00070B50246002400230025002040F66A1672
:101FC000B14200D100BFC1F3421501F01F03012649
:101FD00006FA03F3012D13D19689334017E0000070
:101FE000001001400044004000480040004C004008
:101FF000005000400014014000780040007C004088
:10200000022D02D1168A334001E0968A33400C1229
:10201000012606FA04F41688344013B10CB10120ED
:1020200000E0002070BD10B50022002340F66A14C5
:10203000A14200D100BF0A1201249440A3B2DC43A4
:10204000048010BD10B504466FF00400FEF7E8FAF6
:10205000E11704EB5171C1F3C701394A1170104601
:10206000007800EB4001C1EBC0104FF6FF7101EAB0
:10207000C0003449088010BD0146314A12784A43F5
:102080004FF0E0235A6100229A611A46126942F029
:1020900001021A6100BF4FF0E022106900F0010256
:1020A0001AB100F48032002AF5D04FF0E022126914
:1020B00022F001024FF0E0231A6100229A6170477A
:1020C0000146204A12884A434FF0E0235A61002219
:1020D0009A611A46126942F001021A6100BF4FF07C
:1020E000E022106900F001021AB100F48032002AE7
:1020F000F5D04FF0E022126922F001024FF0E02308
:102100001A6100229A61704770B504464FF4077057
:1021100094FBF0F0C6B24FF4077094FBF0F100FBB3
:10212000114085B205E04FF40770FFF7C9FF701E3C
:10213000C6B2002EF7D115B12846FFF7C1FF70BD1A
:102140003C0000203E0000204A0A52020243FE4B9F
:102150001A6070470146072323EA01021202FA4B74
:102160001B1D18684FF6FF031840F84B1843104327
:10217000F54B1B1D186070472DE9F0410746884656
:1021800014461D462846FFF7E5FFC5F1040007FA8F
:1021900000F60F20284100EA0800064306F00F066B
:1021A000E21704EBD2625211920002F1E022D2F85F
:1021B00000212146E31704EBD3635B11A4EB431C1E
:1021C000012303FA0CF31A432046E31704EBD3630D
:1021D0005B119B0003F1E023C3F80021DC48005DA4
:1021E00040EA0610DA490855BDE8F081F0B503462B
:1021F0000846CD1701EB9575AD10A1EB8505AD0631
:102200002C0ED448006840F48040D24D2860CD1791
:1022100001EB9575AE10D04D55F826500F26A6400F
:10222000B5430846CE1701EB9676B710CA4E46F86E
:102230002750CD1701EB9575AE10C74D55F82650B8
:1022400003FA04F63543CE1701EB9676B710C24E6B
:1022500046F82750C148006801258D402843BF4DEE
:10226000286002F0010040B1BC480C300068012534
:102270008D402843B94D0C35286002F0020040B172
:10228000B6480830006801258D402843B34D083515
:102290002860F0BD30B5CC1000F1200353F8243095
:1022A0004C07E50E0F24AC40A343CD1000F12004F1
:1022B00044F82530CC1000F1200353F824304C07AB
:1022C000E40E02FA04F42343CD1000F1200444F894
:1022D000253030BD2DE9F0470C46DDE908670021C7
:1022E00000258C4600BF60E04FF0010808FA01F5B8
:1022F00004EA050CAC4557D1D0F800804FEA410AFA
:102300004FF0030909FA0AF928EA0908C0F8008021
:10231000D0F800804FEA410902FA09F948EA0908B1
:10232000C0F80080012A01D0022A27D1D0F8088005
:102330004FEA410A4FF0030909FA0AF928EA0908A5
:10234000C0F80880D0F808804FEA410906FA09F978
:1023500048EA0908C0F80880D0F804904FF0010856
:1023600008FA01F829EA0809C0F80490D0F80480B6
:1023700003FA01F948EA0908C0F80480D0F80C8093
:102380004FEA410A4FF0030909FA0AF928EA090855
:10239000C0F80C80D0F80C804FEA410907FA09F91F
:1023A00048EA0908C0F80C80491C10299CD3BDE8F4
:1023B000F08730BF704772B6704762B6704700B59D
:1023C00061480830006840F004005F490831086047
:1023D0006048001F006840F080505E49091F086097
:1023E0005F48406840F480705D4948600846006876
:1023F00040F0040008600846006840F002000860F1
:10240000FFF7D7FF00BD5148001D4F49091D086067
:102410007047F0B504460D46002100204D4E443E65
:10242000366846F480364B4F443F3E6001E04E1C18
:10243000B1B2484E443E366806F400361EB941F645
:10244000FF76B142F3DB41F6FF76B14201D10120C4
:1024500063E0404E361F366846F080563D4F3F1FC2
:102460003E603F4E366846F440463D4F3E60394E32
:102470003C3E366846F41446364F3C3F3E60354E8F
:10248000443E366826F08076324F443F3E6045EA4F
:1024900084160127C7EB520746EA074646EA036659
:1024A00046F480062B4F403F3E603E1F366846F0A4
:1024B00080763F1F3E6000BF264E443E366806F0E1
:1024C0000076002EF8D0274E366846F48076254FE9
:1024D0003E603E46366846F400763E603E463668CC
:1024E00046F480663E603E46366846F005063E602D
:1024F000184E3C3E366826F00306164F3C3F3E60C1
:102500003E46366846F002063E6000BF114E3C3E35
:10251000366806F00C06082EF8D1F0BDF0B504467A
:102520000D4616461F460B484438006840F001002F
:10253000084944390860002006493C3908600548CC
:1025400044380068084911E008ED00E00000FA0591
:1025500000E400E04438024008380140003C0140FB
:1025600000700040003C0240FFFFF6FE08400D49AD
:1025700008600D48091D0860081F006820F48020CD
:10258000091F0860002007490C3108603B463246AD
:1025900029462046FFF73DFF00210846FFF7D4FDFE
:1025A000F0BD00000038024010300024014600BF9A
:1025B000704700BF4C4A128802F04002002AF9D04E
:1025C000C2B2494B9A80704710B588B004460121C9
:1025D0000846FEF767FB01211020FEF7BDFB07222E
:1025E00009214248FEF74BF907220A213F48FEF72E
:1025F00046F94FF4C060069002208DF81C008DF85B
:102600001D0000208DF81E0001208DF81F0006A976
:102610003648FEF7A9F802940020ADF80C00ADF89A
:102620000E00ADF81000ADF814000C20ADF812004B
:1026300002A92D48FFF743FB01212B48FFF7C7FBF9
:10264000012240F225512848FFF777FC25208DF81C
:10265000040003208DF805008DF8060001208DF898
:10266000070001A8FDF78FFF08B010BD10B540F2BC
:1026700025511D48FFF79CFC10B31B48FFF7D6FB04
:10268000C4B21B48008800F40040C8B9184800884C
:1026900000F4804060B10A2C03D000201449088067
:1026A00020E01348008840F400401149088019E0F8
:1026B0000D2C06D10E48008840F480400C4908805B
:1026C00010E00B480088C0F30D000A490C5408487C
:1026D0000088401C0649088008460088C72801DD9C
:1026E0000020088010BD00000010014000000240E2
:1026F00044000020E800002070B505460C4600F0BC
:10270000D6F9D02000F07FFA00F012FA18B100F0EC
:10271000F0F9012070BD284600F075FA00F008FAC3
:10272000204600F070FA00F003FA18B100F0E1F969
:102730000120EFE700F0DDF90020EBE770B504467B
:102740000025BC2C01DB012510E0622C01DB0225F9
:102750000CE02A2C01DB032508E0142C01DB042506
:1027600004E00A2C01DB052500E0062529461A2095
:10277000FFF7C2FF70BD70B50446B4F57A7F01DD86
:102780004FF47A74042C00DA04244FF47A7090FB2E
:10279000F4F0401EC5B229461920FFF7ADFF0546EB
:1027A000264604EBD671C1F34F00FFF7C7FF70BD9B
:1027B00070B5044600F07BF9D02000F024FA00F058
:1027C000B7F9204600F01FFA00F0B2F900F06FF9F7
:1027D000D12000F018FA00F0ABF9002000F040FA28
:1027E000054600F086F9284670BD10B50446E0069F
:1027F000010E1C20FFF780FF10BD10B50446E00657
:10280000010E1B20FFF778FF10BD10B500F036F960
:1028100080216B20FFF770FF6420FFF775FC00211B
:102820006B20FFF769FF0320FFF7E7FF0020FFF7AA
:10283000DCFF3220FFF79FFF00213820FFF75CFF0D
:1028400000216A20FFF758FF00212320FFF754FFE3
:1028500080213720FFF750FF7520FFF7A9FF0446BE
:10286000682C0BD101216B20FFF746FF00216C2063
:10287000FFF742FF3220FFF77EFF01E0012010BD8D
:102880000020FCE72DE9F04106460F4614461D46A0
:1028900000F00DF9002141EA4601C8B200F0B3F999
:1028A00000F046F920B100F024F90120BDE8F081E4
:1028B000384600F0A8F900F03BF900F0F8F80121E3
:1028C00001EB4601C8B200F09EF900F031F90DE0CD
:1028D000012C04D1002000F0C3F9287003E001208E
:1028E00000F0BEF92870601EC4B26D1C002CEFD140
:1028F00000F0FFF80020D9E710B52DED088B82B06D
:1029000001AB022241216820FFF7BCFF9DF80500C2
:102910009DF8041040EA012004B2204602F00EFAAD
:1029200041EC1B0B9FED500B53EC102B02F0AEF85B
:1029300041EC1A0B9FED4E0B53EC102B01F0FEFFF8
:1029400041EC190B01F0C8FF08EE100A9FED4A0A8E
:1029500028EE000ABDEEC00A10EE100A00B202B066
:10296000BDEC088B10BD2DE9FC4104460D46164612
:102970006B46062243216820FFF784FF0746BFB954
:102980009DF801009DF8001040EA012000B220806F
:102990009DF803009DF8021040EA012000B2288053
:1029A0009DF805009DF8041040EA012000B2308037
:1029B0003846BDE8FC812DE9FC4104460D4616462B
:1029C0006B4606223B216820FFF75CFF0746BFB934
:1029D0009DF801009DF8001040EA012000B220801F
:1029E0009DF803009DF8021040EA012000B2288003
:1029F0009DF805009DF8041040EA012000B23080E7
:102A00003846BDE8FC812DE9F04105460E461746E3
:102A1000984600F04CF8002141EA4501C8B200F0A8
:102A2000F2F800F085F820B100F063F80120BDE86D
:102A3000F081304600F0E7F800F07AF800240CE06E
:102A400018F8040000F0DFF800F072F818B100F098
:102A500050F80120EBE7601CC4B2BC42F0DB00F090
:102A600048F80020E3E70000000000000040754047
:102A7000A4703D0AD74342400000C8421CB59048AC
:102A8000006840F002008E49086001200221002306
:102A90000246CDE900104FF440718A48FFF71AFC56
:102AA0000120894908608949C1F8A4021CBD10B5FC
:102AB0008448006820F44020824908600846006885
:102AC00040F48020086001207F49091D08607F498B
:102AD000C1F8A0020420FFF7CFFA00207A49091DAF
:102AE00008600420FFF7C8FA00207849C1F8A00266
:102AF00010BD10B57348006820F44020714908608B
:102B00000846006840F48020086000206E49086094
:102B10006E49C1F8A4020420FFF7AEFA01206A4909
:102B200008606A49C1F8A4020420FFF7A5FA10BDA5
:102B300010B500246348006820F440206149086013
:102B400008460068086001205F49091D0860FFF71A
:102B500093FA01205D49C1F8A002FFF78DFA07E062
:102B6000601CC4B2FA2C03DDFFF7C3FF012010BDC7
:102B700055487C3800680028F2D15349086000BFEE
:102B8000F5E710B50020504908604E48006820F471
:102B900040204C4908600846006840F480200860E6
:102BA00000204A49C1F8A4020220FFF765FA01207B
:102BB000454908600220FFF75FFA00204349C1F849
:102BC000A00210BD10B500203F4908603D480068D4
:102BD00020F440203B4908600846006840F480200B
:102BE000086001203949C1F8A4020220FFF744FA25
:102BF0000120354908600220FFF73EFA00203349E2
:102C0000C1F8A00210BD70B504462E48006820F43B
:102C100040202C4908600846006840F48020086085
:102C2000002029490860002517E0E0092649091D10
:102C300008606006040E0220FFF71EFA01202349F7
:102C4000C1F8A0020220FFF717FA00201E49086011
:102C50000220FFF711FA681CC5B2082DE5DB70BD34
:102C600070B5054600241748006820F44020154937
:102C70000860084600680860002616E00020124937
:102C800008600220FFF7F8F901201049C1F8A002FE
:102C90006006040E0C487C38006808B1601CC4B2A1
:102CA0000120FFF7E9F9701CC6B2082EE6DB15B962
:102CB000FFF788FF01E0FFF764FF204670BD0000CA
:102CC0003038024000040240A0824042008040426E
:102CD00000B52DED108B89B0B0EE40BAF0EE60BAC1
:102CE000B0EE418AF0EE618AB0EE429AF0EE629A5E
:102CF0008DED069B8DED048BFE4890ED000BB0EE44
:102D000040CAF0EE60CA90ED000BB0EE40CAF0EEA3
:102D100060CA9DED048B53EC182BF74890ED000B27
:102D200051EC100B01F00AFE41EC1A0B9DED069BD5
:102D300053EC192B51EC1A0B01F000FE41EC1F0B68
:102D400053EC1F2B51EC1A0B01F0A0FE41EC1E0BB3
:102D500053EC1C2B51EC1B0B02F012F941EC1F0B36
:102D600053EC1E2B02F002F853EC1C2BCDE90001B2
:102D70009DED000B51EC100B01F0E0FD41EC1D0B43
:102D800053EC1E2B9FEDDD0B51EC100B02F0F8F80D
:102D900041EC1F0B53EC1A2B01F0E8FFCDE90201C7
:102DA0009DED020BD44880ED000BD24880ED00DB96
:102DB000B0EE4D0AF0EE6D0A09B0BDEC108B00BD0F
:102DC00010B52DED0A8BF0EE408AB0EE608ACD484A
:102DD00090ED000A38EE400A10EE101A084602F094
:102DE000B9F941EC1C0B9FEDC80B53EC102B01F013
:102DF000BDFF41EC1A0BC648006802F0ABF941EC8C
:102E00001B0B53EC1A2B01F099FD41EC190B01F04F
:102E100063FDBF490860BF4890ED020A10EE101A2A
:102E2000084602F097F941EC1A0BBA4890ED010AF6
:102E300010EE101A084602F08DF941EC1C0B9FEDC4
:102E4000B60B53EC102B02F08FF841EC1B0B53EC3C
:102E50001A2B02F095F841EC190B01F03DFDB04939
:102E60000860AC4890ED030AB1EE400A084680EDD8
:102E7000010AA84890ED030AB1EE400A084680ED29
:102E8000020A9FEDA80A80ED030A90ED000A10EEF9
:102E9000101A084602F05EF941EC1C0B9FED9A0BEC
:102EA00053EC102B01F062FF41EC1A0B994890EDA6
:102EB000000A10EE101A084602F04CF941EC1B0B08
:102EC00053EC1A2B01F03AFD41EC190B01F004FD13
:102ED00090490860924890ED010A10EE101A0846D9
:102EE00002F038F941EC1C0B9FED870B53EC102BD3
:102EF00001F03CFF41EC1A0B864890ED010A10EE00
:102F0000101A084602F026F941EC1B0B53EC1A2B61
:102F100001F014FD41EC190B01F0DEFC7D49486025
:102F20007F4890ED020A10EE101A084602F012F9DE
:102F300041EC1C0B9FED740B53EC102B01F016FFB2
:102F400041EC1A0B734890ED020A10EE101A084675
:102F500002F000F941EC1B0B53EC1A2B01F0EEFCD4
:102F600041EC190B01F0B8FC6A4988606C4890ED9F
:102F7000030A10EE101A084602F0ECF841EC1C0BA4
:102F80009FED610B53EC102B01F0F0FE41EC1A0B9E
:102F9000604890ED030A10EE101A084602F0DAF8C5
:102FA00041EC1B0B53EC1A2B01F0C8FC41EC190B44
:102FB00001F092FC5749C860554890ED000A38EE80
:102FC000C00A594880ED000A0846D0ED000A57486B
:102FD000007800EE100AB8EE400A20EE800A54484D
:102FE00080ED000A0846D0ED020A5048007800EE55
:102FF000100AB8EE400A20EE800A4E4880ED000A22
:103000004A48007800EE100AB8EE400A4848D0ED71
:10301000000A20EE200A10EE101A084602F09AF874
:1030200041EC1A0B9FED440B53EC102B01F086FC86
:1030300041EC190B01F050FC414908603C4890ED0F
:10304000000A0846D0ED000A80EE201A3D4880EDC7
:10305000001A384890ED000A0846D0ED000A80EECC
:10306000201A394880ED001A314890ED000A37489F
:1030700080ED000A2748D0ED010A2C48007800EEC8
:10308000100AB8EE400A20EE800A314880ED000AAE
:10309000204890ED000A2B48D0ED000A2B4890ED17
:1030A000001A00EEC10A1B4880ED000A90ED010AEB
:1030B0002448D0ED000A264890ED001A00EEC10A1F
:1030C000144880ED010A90ED020A1F48D0ED000A75
:1030D0001E4890ED001A00EEC10A0E4880ED020A6B
:1030E00090ED030A1848D0ED000A194890ED001A37
:1030F00030E00000D8000020E000002000000000C8
:103100000000F03F840000207B14AE47E17A743F5A
:1031100074000020B0000020FCA9F1D24D62503FA5
:10312000B0010020A69B443B9000002078000020C6
:103130009400002098000020000000000000E03F04
:103140009C000020A0000020A4000020A800002077
:10315000AC00002000EEC10AFE4880ED030AFE48E4
:1031600090ED000AFD48D0ED000AFD4890ED001AF0
:1031700000EE810AF84880ED000AFA4890ED000A56
:10318000F948D0ED000AF64890ED001A00EE810AE9
:10319000F44880ED000A90ED000A38EE400AF3484A
:1031A00080ED000ABDEC0A8B10BD10B52DED0A8B29
:1031B000F0EE408AB0EE608AED4890ED000A38EEFD
:1031C000400A10EE101A084601F0C4FF41EC1C0B37
:1031D0001FED330B53EC102B01F0C8FD41EC1A0B23
:1031E000E448006801F0B6FF41EC1B0B53EC1A2BCE
:1031F00001F0A4FB41EC190B01F06EFBDD49086006
:10320000D44890ED020A10EE101A084601F0A2FF11
:1032100041EC1A0BCF4890ED010A10EE101A084647
:1032200001F098FF41EC1C0B1FED450B53EC102BEC
:1032300001F09AFE41EC1B0B53EC1A2B01F0A0FE9F
:1032400041EC190B01F048FBCB490860C14890EDF7
:10325000030AB1EE400A084680ED010ABD4890ED30
:10326000030AB1EE400A084680ED020A1FED530A38
:1032700080ED030A90ED000A10EE101A084601F0E6
:1032800069FF41EC1C0B1FED600B53EC102B01F0A0
:103290006DFD41EC1A0BAF4890ED000A10EE101ACC
:1032A000084601F057FF41EC1B0B53EC1A2B01F0C1
:1032B00045FB41EC190B01F00FFBA6490860AE4835
:1032C00090ED010A10EE101A084601F043FF41ECA0
:1032D0001C0B1FED730B53EC102B01F047FD41EC61
:1032E0001A0B9C4890ED010A10EE101A084601F0E6
:1032F00031FF41EC1B0B53EC1A2B01F01FFB41EC8F
:10330000190B01F0E9FA934948609B4890ED020AD5
:1033100010EE101A084601F01DFF41EC1C0B1FEDCA
:10332000860B53EC102B01F021FD41EC1A0B894860
:1033300090ED020A10EE101A084601F00BFF41EC66
:103340001B0B53EC1A2B01F0F9FA41EC190B01F0AD
:10335000C3FA80498860884890ED030A10EE101A7D
:10336000084601F0F7FE41EC1C0B1FED990B53ECE6
:10337000102B01F0FBFC41EC1A0B764890ED030A90
:1033800010EE101A084601F0E5FE41EC1B0B53EC61
:103390001A2B01F0D3FA41EC190B01F09DFA6D499B
:1033A000C860744890ED000A38EEC00A734880ED9A
:1033B000000A0846D0ED000A7148007800EE100AB5
:1033C000B8EE400A20EE800A6E4880ED000A0846FA
:1033D000D0ED020A6A48007800EE100AB8EE400A02
:1033E00020EE800A684880ED000A6548007800EE0B
:1033F000100AB8EE400A6348D0ED000A20EE200A19
:1034000010EE101A084601F0A5FE41EC1A0B1FED54
:10341000B60B53EC102B01F091FA41EC190B01F0B3
:103420005BFA5A490860574890ED000A0846D0ED0B
:10343000000A80EE201A494880ED001A524890EDAB
:10344000000A0846D0ED000A80EE201A464880EDBA
:10345000001A4C4890ED000A4D4880ED000A3D48A6
:10346000D0ED010A4648007800EE100AB8EE400A96
:1034700020EE800A474880ED000A364890ED000AA9
:103480003648D0ED000A424890ED001A00EEC10A1D
:10349000304880ED000A90ED010A3048D0ED000A76
:1034A0003C4890ED001A00EEC10A2A4880ED010A5E
:1034B00090ED020A2C48D0ED000A354890ED001A34
:1034C00000EEC10A234880ED020A90ED030A264867
:1034D000D0ED000A2F4890ED001A00EEC10A1D48F9
:1034E00080ED030A234890ED000A1C48D0ED000A45
:1034F000224890ED001A00EE810A1E4880ED000A75
:103500001B4890ED000A1848D0ED000A1B4890EDCA
:10351000001A00EE810A164880ED000A90ED000ABC
:1035200038EE400A1C4880ED000ABDEC0A8B10BD45
:1035300010B52DED0A8BF0EE408AB0EE608A174888
:1035400090ED000A38EE400A10EE101A084601F01D
:1035500001FE25E0B000002074000020A000002043
:103560009000002084000020A40000205C000020C7
:103570008000002070000020B00100208C0000209E
:103580007800002094000020980000209C0000207B
:10359000A8000020AC000020580000207C00002083
:1035A00041EC1C0B9FEDFE0B53EC102B01F0DEFBEE
:1035B00041EC1A0BFC48006801F0CCFD41EC1B0B00
:1035C00053EC1A2B01F0BAF941EC190B01F084F914
:1035D000F5490860F54890ED020A10EE101A084609
:1035E00001F0B8FD41EC1A0BF04890ED010A10EE25
:1035F000101A084601F0AEFD41EC1C0B9FEDEC0BE0
:1036000053EC102B01F0B0FC41EC1B0B53EC1A2BCC
:1036100001F0B6FC41EC190B01F05EF9E6490860D7
:10362000E24890ED030AB1EE400A084680ED010A37
:10363000DE4890ED030AB1EE400A084680ED020A2A
:103640009FEDDE0A80ED030A90ED000A10EE101ADD
:10365000084601F07FFD41EC1C0B9FEDD10B53ECB4
:10366000102B01F083FB41EC1A0BD04890ED000ABF
:1036700010EE101A084601F06DFD41EC1B0B53ECE7
:103680001A2B01F05BF941EC190B01F025F9C74940
:103690000860C94890ED010A10EE101A084601F0C2
:1036A00059FD41EC1C0B9FEDBE0B53EC102B01F0B0
:1036B0005DFB41EC1A0BBD4890ED010A10EE101AAB
:1036C000084601F047FD41EC1B0B53EC1A2B01F0AF
:1036D00035F941EC190B01F0FFF8B4494860B648E0
:1036E00090ED020A10EE101A084601F033FD41EC8D
:1036F0001C0B9FEDAB0B53EC102B01F037FB41EC97
:103700001A0BAA4890ED020A10EE101A084601F0B2
:1037100021FD41EC1B0B53EC1A2B01F00FF941EC8E
:10372000190B01F0D9F8A1498860A34890ED030A6C
:1037300010EE101A084601F00DFD41EC1C0B9FED38
:10374000980B53EC102B01F011FB41EC1A0B97482E
:1037500090ED030A10EE101A084601F0FBFC41EC54
:103760001B0B53EC1A2B01F0E9F841EC190B01F09B
:10377000B3F88E49C8608C4890ED000A38EEC00A54
:103780008F4880ED000A0846D0ED000A8D48007889
:1037900000EE100AB8EE400A20EE800A8A4880ED5A
:1037A000000A0846D0ED020A8648007800EE100AAA
:1037B000B8EE400A20EE800A844880ED000A814875
:1037C000007800EE100AB8EE400A7F48D0ED000AFB
:1037D00020EE200A10EE101A084601F0BBFC41EC66
:1037E0001A0B9FED7B0B53EC102B01F0A7F841EC6B
:1037F000190B01F071F878490860734890ED000AE0
:103800000846D0ED000A80EE201A744880ED001AB8
:103810006E4890ED000A0846D0ED000A80EE201AAE
:103820006F4880ED001A684890ED000A6D4880ED01
:10383000000A5E48D0ED010A6248007800EE100AE6
:10384000B8EE400A20EE800A674880ED000A57482B
:1038500090ED000A6148D0ED000A624890ED001A30
:1038600000EEC10A514880ED000A90ED010A5B4864
:10387000D0ED000A5C4890ED001A00EEC10A4B48FA
:1038800080ED010A90ED020A5548D0ED000A554836
:1038900090ED001A00EEC10A444880ED020A90ED56
:1038A000030A4F48D0ED000A4F4890ED001A00EE91
:1038B000C10A3E4880ED030A3B4890ED000A4748A4
:1038C000D0ED000A3E4890ED001A00EE810A36481D
:1038D00080ED000A454890ED000A4148D0ED000A0D
:1038E000374890ED001A00EE810A404880ED000A4A
:1038F00090ED000A38EE400A3D4880ED000ABDEC2C
:103900000A8B10BD70B52DED0A8B9FED3A0A10EEB3
:10391000104A9FED380A10EE105A9FED360A10EE4D
:10392000106A3548B0F9000000EE100AB8EEC00A7F
:10393000324880ED000A3248B0F9000000EE100A6B
:10394000B8EEC00A2F4880ED000A2F48B0F90000F9
:1039500000EE100AB8EEC00A2C4880ED000A2C4890
:10396000B0F9000000EE100AB8EEC00A204880ED61
:10397000000A2848B0F9000000EE100AB8EEC00AAC
:10398000254880ED000A2548B0F9000000EE100A35
:10399000B8EEC00A224880ED000A184842E0000054
:1039A0007B14AE47E17A743F6C000020B000002029
:1039B000FCA9F1D24D62503FB0010020A69B443BD0
:1039C000880000207800002094000020980000204B
:1039D000000000000000E03F9C000020A00000204C
:1039E000A4000020A8000020AC0000207C000020E3
:1039F00054000020000000000C00002048000020BF
:103A00000E0000204C00002010000020500000207C
:103A10001200002014000020580000201600002092
:103A20005C00002090ED000ADFEDFE0AB4EEE00A33
:103A3000F1EE10FA08D290ED000ADFEDFB0A80EEFD
:103A4000201A11EE104A10E0F84890ED000ADFED60
:103A5000F80A70EE600A9FEDF41A80EE810AF7EE24
:103A6000000A30EEC00A10EE104AF24890ED000A4B
:103A7000DFEDEC0AB4EEE00AF1EE10FA08D290EDB8
:103A8000000ADFEDE90A80EE201A11EE105A10E06C
:103A9000E84890ED000ADFEDE60A70EE600A9FED5F
:103AA000E21A80EE810AF7EE000A30EEC00A10EE4C
:103AB000105AE14890ED000ADFEDDA0AB4EEE00AB0
:103AC000F1EE10FA08D290ED000ADFEDD70A80EE91
:103AD000201A11EE106A0CE0D74890ED000ADFEDD5
:103AE000D40A30EE600ADFEDD00A80EE201A11EE23
:103AF000106A284601F02EFB41EC1B0B304601F00A
:103B000029FB41EC1C0BB0EE4B1AF0EE6B1AB0EE39
:103B10004C0AF0EE6C0A00F027FDB0EE40AAF0EE81
:103B200060AA9FEDC60B53EC102B51EC1A0B01F061
:103B30001DF941EC190B9FEDC30B53EC102B00F05A
:103B4000A5FF41EC180B00F0C7FEC04908603046E5
:103B500001F000FB41EC1B0B204601F0FBFA41ECAD
:103B60001C0BB0EE4B1AF0EE6B1AB0EE4C0AF0EEF6
:103B70006C0A00F0F9FCB0EE40AAF0EE60AA9FEDEE
:103B8000AF0B53EC102B51EC1A0B01F0EFF841EC9A
:103B9000190B9FEDAC0B53EC102B00F077FF41ECB1
:103BA000180B00F099FEAA490860204601F0D2FAED
:103BB00041EC1B0B284601F0CDFA41EC1C0BB0EE9A
:103BC0004B1AF0EE6B1AB0EE4C0AF0EE6C0A00F0F5
:103BD000CBFCB0EE40AAF0EE60AA9FED980B53EC40
:103BE000102B51EC1A0B01F0C1F841EC190B9FEDB1
:103BF000950B53EC102B00F049FF41EC180B00F033
:103C00006BFE944908608B4890ED000ADFED850A51
:103C1000B4EEE00AF1EE10FA04D28D4890ED000AFD
:103C200080ED000A834890ED000ADFED7E0AB4EED5
:103C3000E00AF1EE10FA06DD854890ED000AB1EEDB
:103C4000400A80ED000A794890ED000ADFED750A20
:103C5000B4EEE00AF1EE10FA04D27C4890ED000ACE
:103C600080ED000A714890ED000ADFED6E0AB4EEB7
:103C7000E00AF1EE10FA06DD744890ED000AB1EEAC
:103C8000400A80ED000A6C4890ED000ADFED650AFD
:103C9000B4EEE00AF1EE10FA04D26E4890ED000A9C
:103CA00080ED000A644890ED000ADFED5E0AB4EE94
:103CB000E00AF1EE10FA06DD664890ED000AB1EE7A
:103CC000400A80ED000A644890ED000ADFED630AC7
:103CD000B4EEE00AF1EE10FA14D2006801F03AFAFC
:103CE00041EC1A0B9FED5E0B53EC102B00F0CEFE57
:103CF00041EC190B00F0E4FD41EC180B00F0ECFD79
:103D000055490860544890ED000ADFED540AB4EEBE
:103D1000E00AF1EE10FA18DD90ED000ADFED520A2C
:103D200030EEC00A10EE101A084601F013FA41EC0A
:103D3000190B9FED4B0B53EC102B00F0A7FE41EC41
:103D4000180B00F0C9FD44490860484890ED000A8E
:103D5000DFED420AB4EEE00AF1EE10FA14D2006888
:103D600001F0F8F941EC1A0B9FED3D0B53EC102BD1
:103D700000F08CFE41EC190B00F0A2FD41EC180B99
:103D800000F0AAFD39490860384890ED000ADFEDDF
:103D9000330AB4EEE00AF1EE10FA18DD90ED000AF5
:103DA000DFED310A30EEC00A10EE101A084601F0BD
:103DB000D1F941EC190B9FED2A0B53EC102B00F0BD
:103DC00065FE41EC180B00F087FD28490860284883
:103DD00090ED000ADFED210AB4EEE00AF1EE10FAF0
:103DE00014D2006801F0B6F941EC1A0B9FED1C0BE0
:103DF00053EC102B00F04AFE41EC190B00F060FD73
:103E000041EC180B00F068FD19490860184890ED66
:103E1000000ADFED120AB4EEE00AF1EE10FA42DD1C
:103E200028E0000000F8FF4600008046480000201F
:103E3000000040474C00002050000020000000001F
:103E4000008066404AD8124DFB21094060000020E6
:103E5000640000206800002054000020000000479B
:103E6000666666666666304000FF7F475800002041
:103E70005C00002090ED000A5FED050A30EEC00AFC
:103E800010EE101A084601F065F941EC190B1FED10
:103E90000C0B53EC102B00F0F9FD41EC180B00F06B
:103EA0001BFD4B4908604B48D0ED000A4A4890ED95
:103EB000000AFFF73DFB4948D0ED000A484890ED65
:103EC000000AFFF772F94248D0ED000A454890ED2C
:103ED000000AFEF775FFBDEC0A8B70BD9FED422A0C
:103EE000B0EE421A9FED412AF0EE421AB7EE002AD8
:103EF00072EE412A3E4890ED002A00EEA12A22EE01
:103F0000822A01EE002A80ED002A90ED002A39482D
:103F100080ED002A704700B52DED108B85B0B0EE16
:103F2000408AF0EE608A9FED340AB0EE40FA18EE57
:103F3000900A01F00FF99FED310B53EC102BCDE9F6
:103F400000019DED000B51EC100B00F00FFF41EC58
:103F50001D0B2C48006801F0FDF841EC1E0B53ECE2
:103F60001D2B00F0EBFC41EC1B0BB7EE000A30EE12
:103F70004F0A10EE101A084601F0ECF841EC1C0B49
:103F800053EC1B2B00F0F2FE41EC190B2FEE080A4C
:103F900010EE101A084601F0DDF841EC1A0B53EC54
:103FA000192B00F0CBFCCDE902019DED020B51EC89
:103FB000100B00F091FC13490860084690ED000AD0
:103FC000114880ED000A05B0BDEC108B00BD00006B
:103FD0005C000020540000206000002058000020F9
:103FE0006400002068000020EC51B83D0AD7233C53
:103FF000C0000020C8000020CDCCCC3D7B14AE47D3
:10400000E17A743FC4000020CC0000207FB5054653
:104010000C4601210220FCF78EFE0295ADF804400B
:104020000020ADF80600ADF80C0001A90D48FDF721
:104030003AF8012211460B48FDF7D6FC0121094848
:10404000FDF7BAF81D208DF8000001208DF8010061
:1040500003208DF8020001208DF803006846FCF76C
:1040600092FA7FBD0004004010B5044600BF402115
:104070005F48FDF787FF0028F9D021465C48FDF72F
:10408000D1FE10BDF0B589B006460F4615461C2D71
:1040900001DD09B0F0BD002101AA281D1154AA209C
:1040A0008DF804008DF805008DF806608DF8075036
:1040B000002405E0395D201D01AA1154601CC4B222
:1040C000AC42F7DB00240AE001A9281D085C095D69
:1040D0000844C1B201AA281D1154601CC4B2281D95
:1040E0008442F1DB002405E001A9085DFFF7BCFF75
:1040F000601CC4B2681D8442F6DB00BFC9E72DE92D
:10410000F04385B004460D4617461E46DDE90C898E
:10411000200A8DF80000E0B28DF80100280A8DF821
:104120000200E8B28DF80300380A8DF80400F8B2F6
:104130008DF80500300A8DF80600F0B28DF8070002
:104140004FEA18208DF8080008F0FF008DF80900EC
:104150004FEA19208DF80A0009F0FF008DF80B00D6
:1041600000208DF80C008DF80D008DF80E008DF8F4
:104170000F008DF810008DF8110012226946022000
:10418000FFF780FF05B0BDE8F083FEB504460D469D
:104190001646002704E000200DF80700781CC7B27F
:1041A0000C2FF8DB200A8DF80000E0B28DF801003A
:1041B000280A8DF80200E8B28DF80300300A8DF865
:1041C0000400F0B28DF8050000208DF806008DF88F
:1041D00007008DF808008DF809008DF80A0001200D
:1041E0008DF80B000C226946FFF74CFFFEBD000066
:1041F00000100140704770477047704770470000DB
:1042000000487047C00100207546FFF7F9FFAE4631
:1042100005006946534620F00700854618B020B5D2
:10422000FCF79AF9BDE820404FF000064FF0000778
:104230004FF000084FF0000B21F00701AC46ACE84E
:10424000C009ACE8C009ACE8C009ACE8C0098D46BB
:1042500070470446AFF300802046FBF7DEFF03B44F
:1042600001984100009850EAC12018BF04204A0D6F
:1042700018BF40F0010040F2FF72B2EB515F08BF7F
:1042800040F00200012808BF052002B0704700007E
:1042900070B59B482DED020B2DED068B079D25F08B
:1042A0000044A04218DC9748844202DC0AD10698F8
:1042B00040B19DED060BBDEC068B02B0BDE8704031
:1042C00000F0C6BA002DCCBF9FED8F0B9FED900B79
:1042D000BDEC068B02B070BD8F48A04215DD8F4843
:1042E000A042D8BF4FF0FF3458DD9DED060B51ECD6
:1042F000100BFFF7B4FF042808BF00F0BDFA9DEDD6
:10430000060BBDEC068B02B070BD9DED060B51ECAB
:10431000100B00F0C9FACDE9060181489FED828BB0
:10432000A0423CDD8248A0421FDD00249FED82AB0D
:104330009DED060B53EC1A2B51EC100B00F0FEFA1E
:104340009DED060B41EC190B53EC1A2B51EC100BA5
:1043500000F00CFD53EC182B00F012FE53EC192B5F
:1043600000F094FBCDE9060149E09DED060B012428
:1043700053EC182B51EC100B00F0E0FA9DED060BFE
:1043800041EC190B53EC182B51EC100B00F0F8FD1D
:1043900053EC192B00F07AFBCDE906012FE06848B9
:1043A000A0421FDD02249FED689B9DED060B53ECA0
:1043B000192B51EC100B00F0D9FC53EC182B00F02A
:1043C000BDFA9DED060B41EC180B53EC192B51EC8B
:1043D000100B00F0D5FD53EC182B00F057FBCDE986
:1043E00006010CE09DED060B032453EC102B9FED12
:1043F000580B51EC100B00F049FBCDE906019DED87
:10440000060B53EC102B51EC100B00F0AFFC41EC01
:10441000180B53EC182B00F0A9FC41EC190B4E487B
:104420000621B0EE490AF0EE690A784400F094F9EA
:1044300053EC182B51EC100B00F098FC41EC180BCE
:104440004648B0EE490AF0EE690A0521784400F0CA
:1044500083F953EC192B51EC100B00F087FC41EC65
:10446000100B51EC180B53EC102B002C0EDA00F053
:1044700065FA9DED061B53EC112B00F077FC9DEDCA
:10448000061B53EC112B00F06FFD35E000F056FADF
:104490009DED061B53EC112B00F068FC41EC100B5A
:1044A0002F48784400EBC40090ED001B51EC100B3A
:1044B00053EC112B00F064FD9DED061B53EC112B0A
:1044C00000F05EFD41EC100B2648784400EBC40080
:1044D00090ED001B51EC100B53EC112B00F044FD40
:1044E00041EC100B002DA2BFBDEC068B02B070BDDD
:1044F00051EC100B00F0E4F941EC100B01E7000067
:10450000000010440000F07F182D4454FB21F93FB7
:10451000182D4454FB21F9BF0000DC3F0000203E71
:104520000000F33F00000000000000000000F03F2A
:104530000000E63F00000000000000000000004016
:104540000080034000000000000000000000F83F71
:10455000000000000000F0BF8A0E0000400E0000C6
:10456000CA0D0000820D000070B56B4E2DED040BDE
:104570002DED028B82B0DDF81CC0DDE905235C4225
:104580002CF000411C4341EAD474049D22F0004009
:10459000B44205D86C422C4340EAD474B4420BD9DF
:1045A0009DED061B9DED040B02B0BDEC028B04B02B
:1045B000BDE8704000F056B9ACF14054A4F17F64FE
:1045C0001C430BD0022404EAAC7444EAD2740543C1
:1045D0009FED538B9FED542B07D015E09DED040B01
:1045E00051EC100B00F058F942E0002C11BF012CE7
:1045F0009DED040B02B0BDEC028B04BF04B070BD96
:10460000022C38D0032C3BD00B439FED491B9FED70
:104610004A0B0AD0B14218D1B04209D121F08041F1
:1046200020F08040079105900FE0002A15DA10E095
:10463000434B7B44002C08BF93ED000B0DD0012CA5
:1046400010D0022C17D0032C1AD0B0421DD1002A52
:1046500003DAB0EE410AF0EE610A02B0BDEC028B63
:1046600004B070BD93ED000B51EC100B00F028F975
:1046700041EC100BF1E7B0EE480AF0EE680AECE707
:10468000B0EE420AF0EE620AE7E7401A00153C2855
:10469000C8BF8DED000B19DCBCF1000FBEBF10F1DF
:1046A0003C0F9FED290B8DED000B0FDB9DED060BF5
:1046B00053EC102B9DED040B51EC100B00F0E6F9C0
:1046C00000F0F2F800F0E8F8CDE90001002C08BF96
:1046D0009DED000BC1D0012C10D0022C9FED1C0BC6
:1046E00053EC102B9DED000B51EC100B0DD000F096
:1046F00047FC53EC182B00F043FCB9E7019880F01D
:10470000004001909DED000BA7E700F039FC53EC51
:10471000182B00F029FCABE70000F07F0000000040
:10472000182D4454FB210940182D4454FB2109C085
:10473000182D4454FB21F9BF182D4454FB21F93F97
:10474000B20C0000000000000000000000000000AB
:10475000075C143326A6A13C70B504462DED028BF0
:104760004D1E00EBC500B0EE408AF0EE608A90ED81
:10477000000B35F0060017D053EC182B51EC100B42
:1047800000F0F4FA41EC100B6D1E04EBC50090ED47
:10479000001B51EC100B53EC112B00F0CFF841EC47
:1047A000100B35F00600E7D1022D36D0042D1CD0B9
:1047B000062D1CBFBDEC028B70BD53EC182B51ECC9
:1047C000100B00F0D3FA94ED0A1B53EC112B00F000
:1047D000B5F853EC182B00F0C9FA94ED081B53EC14
:1047E000112B00F0ABF841EC100B53EC182B51ECF3
:1047F000100B00F0BBFA94ED061B53EC112B00F0EC
:104800009DF853EC182B00F0B1FA94ED040B53EC27
:10481000102B00F093F841EC100B53EC182B51ECDB
:10482000100B00F0A3FA94ED021B53EC112B00F0D7
:1048300085F853EC182B00F099FA94ED001B53EC1B
:10484000112B00F07BF8BDEC028B41EC100B70BD1E
:1048500010B553EC102B51EC100B00F06FF841EC3D
:10486000100B10BD10B553EC112B51EC100B00F0D8
:1048700065F841EC100B10BD9FED050B10B553EC26
:10488000102B51EC100B00F071FA41EC100B10BD25
:10489000000000000000001010B541EC100BFFF705
:1048A000F7FC51EC100B10BD82B0CDE9000121F0F6
:1048B000004001909DED000B02B051EC100B7047D1
:1048C00081F00041704780F00040704721F00041C6
:1048D000704720F00040704721F00042A2F1605282
:1048E000B2F5801F01F0004328BFD2F17F6C0BD9D5
:1048F0005FEA001C43EAC20242EB507018BF7047E7
:1049000028BF20F001007047B2F5801FBCBF1846D9
:1049100070474FEA410C1CF5001F02D2084600F018
:104920008FBC70B500F0CCFA00000089FFF7F6BF2D
:104930004FF00040A0F580007047000010B591EAEC
:10494000030F48BF83F0004300F12283841A71EB08
:10495000030C05D2121943EB0C03001B61EB0C0195
:10496000DFF824E14FEA1154A4EB135C1EEA430F75
:1049700018BF9EEA445F73D023EA0E03DCF1200ED9
:1049800021EA045143F4801332D322FA0CFE10EBD7
:104990000E0023FA0CFE41EB0E01CCF1200E03FABF
:1049A0000EFE10EB0E0051F10001B1F5801FCCF1AD
:1049B000200E32D201EB045112FA0EF2BDE8104083
:1049C00058BF7047401C38BF5FEA420218BF7047AB
:1049D000002814BF20F0010041F100014FEA41031B
:1049E00013F5001F38BF7047A1F1C04100F0B6BAFF
:1049F000012A43EB0302ACF1200CDCF11F0E32BFA5
:104A00004FF0000E23FA0CF310EB030041EB0451BE
:104A1000B4EB115FD0D0A1EB045101F5801149082E
:104A20005FEA300001EB04510ED350F1000038BFB3
:104A300012FA0EFE08D1BDE81040C9E7401C38BF8D
:104A40005FEA4202CAD1C3E7BDE810404FEA410322
:104A500013F5001F38BF7047A1F1C04100F07EBAC6
:104A60009EEA445F08D011EA5E0FBDE8104004BF23
:104A700001F0004100207047BDE8104070B500F023
:104A80001FFA00BF64FBBE3E0000E0FF2DE9C041FD
:104A900030B4DFF8A0C23CEA111418BF3CEA13148A
:104AA00000F0EC8081EA03051CEA111444EAD57495
:104AB00018BF1CEA131500F0C780A4EB05044FF0E3
:104AC000004545EAC12145EAC32341EA505143EA82
:104AD000525304F17F74994204F500344FEAC02028
:104AE0004FEAC22208BF904200F09C804FEA136553
:104AF0000FF24016765D4FEA134506FB05F7C7F146
:104B0000807706FB07F74FEAD737A7FB03687642A3
:104B1000C8F58038A7FB06CE38BFA8F1010807FB0F
:104B200008E64FF0000EA6FB028CE6FB03CEDCF19C
:104B3000000CCEF1004E38BFAEF1010EA6FB0C58B2
:104B40004FF000074FF00005E6FB0E87A1FB08C6FB
:104B5000A0FB07CE16EB0E0645F10005E1FB07654D
:104B600015F1E04E7EBFA4F580345FEA46066D4144
:104B700016F1800745F100054FEA17274FEA066650
:104B800047EA0567A6F1DE46B6F1805F4FEA1525D4
:104B90001FD9384624F0010C05EBC471BCF1FE6F3F
:104BA00001EB0C1102D8F0BCBDE8008124425CBFCF
:104BB00001F5801E9EEAC47F02D4F0BCBDE80081EE
:104BC000244238D4F0BCA1F1C041BDE8004100F05E
:104BD000C5B94FEAD22242EA43524FEAD323A7FB98
:104BE00002864FEAD02040EA415007FB03661EEAE6
:104BF0000E0F4FEAD12105FB026658BFA6EB005607
:104C0000B6EB00564FEA520E4EEAC37E18EB0E0E7C
:104C100056EB530EBDD518EB02085E417F1C55F1D3
:104C20000005B6E74FF480154FF000074FF000067F
:104C30004FF00008ADE7F0BC4FF0000001F1C041BB
:104C400001F00041BDE8008111EA0C1F0CEA1315C8
:104C500000D00CE013EA0C1F00F025804FF000009C
:104C6000F0BC81EA030101F00041BDE80081F0BC25
:104C7000BDE8004181EA030100F070B9F0BCBDE875
:104C8000004170B500F01CF9097EFC3E00F007B849
:104C900081EA03014FF0000001F00041704781EA12
:104CA000030100F05BB9F0BCBDE800414FF000002B
:104CB00021497047FFFDFBF9F7F5F4F2F0EEEDEB5B
:104CC000E9E8E6E4E3E1E0DEDDDBDAD8D7D5D4D30A
:104CD000D1D0CFCDCCCBCAC8C7C6C5C4C2C1C0BF56
:104CE000BEBDBCBBBAB9B8B7B6B5B4B3B2B1B0AF5C
:104CF000AEADACABAAA9A8A8A7A6A5A4A3A3A2A140
:104D0000A09F9F9E9D9C9C9B9A99999897979695FA
:104D100095949393929191908F8F8E8E8D8C8C8B96
:104D20008B8A89898888878786858584848383821E
:104D3000828181800000FF070000F87F10F00042B0
:104D400048BF4042B0FA80F310FA03F10AD0C3F131
:104D50001D0303F580634FEA415002EB035202EB5F
:104D6000D12170474FF0000070470000DFF848C1C4
:104D700070B51CEA111E1EBF1CEA13159EEA0C0F2B
:104D800095EA0C0F00F06F8081EA030423EA4C13CC
:104D90004EEAD47E21EA4C1141F4801143F4801391
:104DA000AE44A1FB024CA0FB0365AEF17F7E361939
:104DB00055EB0C05A1FB034C4CF10003A0FB021CBE
:104DC00016EB0C06654153F10003094218BF46F08B
:104DD000010613F4007F0BD14FEA03314FEA05308F
:104DE000340341EA155140EA16506FF003020AE01D
:104DF0004FEAC3214FEAC520F40241EA555140EA87
:104E000056506FF0020202EB2E4201EB025585EA8A
:104E1000CE710AD05FEA440C18BF24F0004450F170
:104E2000000041F1000120EAD47040F2FE7C6245AE
:104E300000D270BDA84214BF4FF080444FF04044F0
:104E4000002E08BF0024BEF1806FA8BFA1F1C041B1
:104E5000BDE8704080F282804FF0000001F1C04157
:104E600001F0004170479EEA0C0F0CEA131518BFC1
:104E700095EA0C0F06D04FF0000081EA030E0EF009
:104E8000004170BD00F01CF88900013E00F007B839
:104E900000F009B84FEA430C5FEA5C5C08D081EA95
:104EA000030100F05BB84FEA410C5FEA5C5CF6D1AD
:104EB0004FF00000014970470000FF070000F87F35
:104EC0000EF1020E2EF0030E5EF8046B364205D48E
:104ED000012A43EB030515F5001F12D8012841EB09
:104EE000010C1CF5001F0CD80ED14FEAD17C15F532
:104EF000001F0CEB4C0C0CF1020C08BF4CEBD37CEC
:104F000004E04FF0080C01E04FEAD37C0CEB4C05B9
:104F100026FA05F606F00706B6F1040C06D20EEBEB
:104F2000860CBDE870404CF0010C6047DFE80CF0E7
:104F3000090B02024FF000414FF00000A1F50021E3
:104F400070BD19461046012851EB010418BFD4F575
:104F5000001484BF002001F0004170BD0808A0F5D6
:104F600000114FEA3101704791EA030F10B581F04B
:104F700000413FF5EBAC83F0004300F009B80000BE
:104F800010B591EA030F48BF83F000433FF5DEAC54
:104F9000841A71EB030C07D212198CF0004C43EB0E
:104FA0000C03001B61EB0C01DFF8A4E14FEA115484
:104FB000A4EB135C1EEA430F18BF9EEA445F00F0A7
:104FC000B08023EA6E03524221EA0451C3EB6E0320
:104FD00038BF5B1EDCF1200E25D322FA0CFE10EB4D
:104FE0000E0043FA0CFE41EB0E01CCF1200E03FA49
:104FF0000EFE10EB0E0051F10001CCF1200E29D471
:1050000012FA0EF201EB0451BDE8104058BF704790
:10501000401C1CBFB2F1004F704700280CBF491C58
:1050200020F00100704712EB020E43EB030218BFA1
:105030004FF0010E4EEA4202ACF1200CDCF11E0EE4
:1050400054D943FA0CFE10EB0E0051F1FF31CCF1B4
:105050001E0ED5D50EF1010E12FA0EFE404141EBA7
:10506000010101EB445C5FEA5C5C10D910EBDE707F
:1050700001EB045138BFBEF1004FBDE8104018BF2E
:10508000704700280CBF491C20F00100704730D247
:105090004FEAD42C11F5001124F400641BD0B1FAAE
:1050A00081F20B3AA41AA41ED2F12003914030FAE7
:1050B00003F31943904001EBCC71002C01EB045138
:1050C000BDE81040A8BF704701F1C0414FF000009B
:1050D00001F000417047B0FA80F310FA03F100D1FB
:1050E00010BDE41A173C4805C90AE4E701EB045176
:1050F00010BD491001EB0451BDE810404FEA3000EB
:1051000002E04FF0000170474A0008BF0042F8D0AB
:10511000B2F5001F28BF704701F000414FF00000BA
:1051200070479EEA445F07D011EA5E0FBDE8104069
:1051300004BF002100207047BDE8104070B5FFF7A4
:10514000BFFE00BF40DFF63E83F0004110467047CF
:105150000000E0FF43004FEAD30C4FEA3C0C434011
:105160001FBF40070CF1605113F0FE4F70471CF059
:10517000006F03D100200CF0004170470CF0004399
:1051800043EA507010B540EACC0000F00EF800BFC2
:10519000000000924FEA0001FFF7E0BE4FF000412F
:1051A0004FF00000A1F5002170470EF1020E2EF025
:1051B000030E5EF8044B244204D44FEA4102B2F1DC
:1051C0007F4F11D84FEA4003B3F17F4F0CD80ED177
:1051D0004FEAD07CB2F17F4F0CEB4C0C0CF1020C7F
:1051E00008BF4CEBD17C04E04FF0080C01E04FEA23
:1051F000D17C0CEB4C0324FA03F404F00704B4F163
:10520000040C06D20EEB840CBDE810404CF0010CEF
:105210006047DFE80CF0070802024FF00040A0F5FD
:10522000800010BD0846420018BFD2F1807288BFCE
:1052300000F0004010BD4FF04070E1EE100A7047E2
:10524000FF2141EAD050C005704700000000000077
:105250004FBB610567ACDD3F182D4454FB21E93F8E
:105260009BF681D20B73EF3F182D4454FB21F93F7D
:10527000E2652F227F2B7A3C075C143326A6813C03
:10528000BDCBF07A8807703C075C143326A6913CAE
:10529000C4EB98999999C9BF711623FEC671BCBF1A
:1052A0006D9A74AFF2B0B3BF9AFDDE522DDEADBF82
:1052B0002F6C6A2C44B4A2BF0D5555555555D53F9A
:1052C000FF8300922449C23F6E204CC5CD45B73FB5
:1052D000513DD0A0660DB13FEB0D76244B7BA93F2D
:1052E00011DA22E33AAD903F000000000000000018
:1052F0001053000800000020E8000000C40100086E
:10530000F8530008E800002038070000E00100081A
:10531000000000000000000000000000000000008D
:105320000000000000000000007A030A00000000F6
:105330000000000001020304060708090000000045
:10534000010203040102030406070809000000002B
:10535000000000000000000000000000000000004D
:10536000000000000000000000000000000000003D
:10537000000000000000000000000000000000002D
:10538000000000000000000001000000000000001C
:10539000000000000000000000000000000000000D
:1053A00000000000000000000000000000000000FD
:1053B00000000000000000000000000000000000ED
:1053C0000000803F00000000000000000000803F5F
:1053D00000000000000000000000000000000000CD
:1053E00000000000000000000000000000000000BD
:0853F0000000000000000000B5
:040000050800018965
:00000001FF
