:020000040800F2
:1000000090080020D5060008A9040008AB040008E9
:10001000AF040008B3040008B704000800000000A3
:10002000000000000000000000000000BB04000809
:10003000BD04000800000000BF040008C10400085F
:10004000EF060008EF060008EF060008EF060008BC
:10005000EF060008EF060008EF060008EF060008AC
:10006000EF060008EF060008EF060008EF0600089C
:10007000EF060008EF060008EF060008EF0600088C
:10008000EF060008EF060008EF060008EF0600087C
:10009000EF060008EF060008EF060008EF0600086C
:1000A000EF060008EF060008EF060008EF0600085C
:1000B000EF060008F3030008EF060008EF0600084B
:1000C000EF060008EF060008EF060008EF0600083C
:1000D000EF06000849040008EF060008EF060008D4
:1000E000EF060008EF060008EF060008EF0600081C
:1000F000EF060008EF060008EF060008EF0600080C
:10010000EF060008EF060008EF060008EF060008FB
:10011000EF060008EF060008EF060008EF060008EB
:10012000EF060008EF060008EF060008EF060008DB
:10013000EF060008EF060008EF060008EF060008CB
:10014000EF060008EF060008EF060008EF060008BB
:10015000EF060008EF060008EF060008EF060008AB
:10016000EF060008EF060008EF060008EF0600089B
:10017000EF060008EF060008EF060008EF0600088B
:10018000EF060008EF06000800F002F800F064F83F
:100190000AA090E8000C82448344AAF10107DA45E2
:1001A00001D100F059F8AFF2090EBAE80F0013F0D0
:1001B000010F18BFFB1A43F00103184744B50000B4
:1001C00064B500000A444FF0000C10F8013B13F036
:1001D000070408BF10F8014B1D1108BF10F8015BA0
:1001E000641E05D010F8016B641E01F8016BF9D193
:1001F00013F0080F1EBF10F8014BAD1C0C1B09D1EA
:100200006D1E58BF01F801CBFAD505E014F8016B5B
:1002100001F8016B6D1EF9D59142D6D370470000ED
:100220000023002400250026103A28BF78C1FBD8FF
:10023000520728BF30C148BF0B607047642908F0DF
:100240006980782908F0A280002070471FB50AF065
:10025000DCFA1FBD10B510BD08F0F4FA1146FFF727
:10026000F5FF00F0C2F808F012FB03B4FFF7F2FF4D
:1002700003BC02F067FA00001FB54FF4A06000F065
:1002800049FA0723022208214FF4A87002F012FA5B
:100290004FF4E13002F064FAA82001F09FFF07F06C
:1002A000DDFC02F03CFB06F000FB40F2473140F27F
:1002B000E73004F0B5F84FF4C87007F01BFB41F2CB
:1002C0008830009001900290034602460146039058
:1002D00007F091FC1FBD10B5634A6449644802F001
:1002E000F4FB644A6449654802F0C7FB03F094FBE1
:1002F00003F07EFE10BD1FB561480078401C6049C8
:1003000008706048007800BB5F4800785A280EDB10
:10031000002041F28831CDE9001003460A46CDE9BC
:100320000210014641F2883007F065FC0AE0002027
:1003300041F28831CDE9000103460A46CDE90210B9
:1003400007F059FC01204F4908704D4800782A28D1
:100350000AD14E48D0ED000A4B48007800EE100A52
:10036000B8EE400A07F0CFFD454800787C280AD156
:100370004648D0ED000A4448007800EE100AB8EE76
:10038000400A07F0C0FD3E480078A82802D10020AE
:100390003B4908701FBD10B53D480078401C3C49E2
:1003A0000870084600782A2803D19FED3A0A07F022
:1003B000A8FC37480078542803D19FED360A07F08F
:1003C00021FD334800787C2803D19FED320A07F0E5
:1003D00098FC2F480078A82806D19FED2E0A07F038
:1003E00011FD00202A49087010BDFFF745FF00BF2E
:1003F000FEE71FB50121284801F0D9FB01281ED1D5
:10040000FFF769FF25480078012818D124480078B3
:1004100048B9002000900190029003460246014630
:10042000039007F0E8FB1E480078012801D1FFF790
:1004300062FF1B480078022801D1FFF7ACFF0121C1
:10044000154801F0C5FB1FBD10B540F225511548F8
:1004500001F07AFE30B1134801F0B4FDC4B2204679
:1004600004F09CF910BD0000100000200E000020D8
:100470000C000020160000201400002012000020B4
:100480001800002021000020200000201C00002077
:10049000190000209A99993E000400401B01002099
:1004A0001A00002000100140704700BFFEE700BFA7
:1004B000FEE700BFFEE700BFFEE7704770477047EA
:1004C000704700000CB5002001900090764800684D
:1004D00040F480307449086000BF7348006800F43D
:1004E000003000900198401C0190009818B90198C4
:1004F000B0F5A04FF1D16C48006800F4003010B1A5
:100500000120009001E0002000900098012846D1D1
:1005100065484030006840F08050634940310860D1
:100520006248006840F44040604908605E48083016
:1005300000685D49083108600846006840F40040E2
:1005400008600846006840F4A05008605848091F39
:100550000860081F006840F08070091F086000BF35
:100560005148006800F000700028F9D040F2057092
:10057000504908604C480830006820F003004A49A0
:10058000083108600846006840F00200086000BFBB
:1005900045480830006800F00C000828F8D10CBD70
:1005A00010B54548006840F47000434908603E4873
:1005B000006840F001003C49086000203A490831D9
:1005C0000860394800683D490840374908603C48A0
:1005D000091D0860081F006820F48020091F0860BA
:1005E000002031490C310860FFF76CFF4FF00060CC
:1005F00031498039086010BD70B500200022022307
:1006000000240221284D08352D6805F00C0020B18A
:10061000042806D0082834D107E02A4D2A4E356038
:1006200033E02A4D284E35602FE01F4D2D1D2D68DB
:10063000C5F380541C4D2D1D2D6805F03F0154B1AC
:10064000224DB5FBF1F5184E361D3668C6F38816F7
:1006500005FB06F209E01B4DB5FBF1F5124E361D08
:100660003668C6F3881605FB06F20F4D2D1D2D6862
:10067000C5F301456D1C6B00B2FBF3F5124E3560FE
:1006800003E0104D104E356000BF00BF064D083529
:100690002D68C5F303150E4E705D0B4D2D68C540DA
:1006A000094E356070BD0000003802400070004007
:1006B00008544007003C024088ED00E0FFFFF6FED2
:1006C000103000240024F4002400002000127A00DE
:1006D000280000200948804709480047FEE7FEE758
:1006E000FEE7FEE7FEE7FEE7FEE7FEE7FEE7FEE7E2
:1006F00004480549054A064B70470000A10500085B
:100700008901000890020020900800209004002039
:100710009004002032490143324A1160704770B59D
:10072000002100230F22C4781CB32E4C246804F44B
:10073000E064C4F5E064C4F30721C1F10404E3B24A
:100740000A4144789C40E1B28478144021430C076C
:10075000210E254C05786155047804F01F0501240D
:10076000AC4005786D11AD0005F1E025C5F80041FC
:1007700009E0047804F01F050124AC401B4D067805
:10078000761145F8264070BD194A0A400243154BC0
:100790001B1F1A60704739B1124A121D12680243BA
:1007A000104B1B1D1A6006E00E4A121D1268824390
:1007B0000C4B1B1D1A607047042808D14FF0E02134
:1007C000096941F004014FF0E022116107E04FF0A8
:1007D000E021096921F004014FF0E0221161704726
:1007E0000000FA050CED00E000E400E080E100E02C
:1007F00080FFFF1F10B504469848844208D10121AC
:10080000084600F086FB0021012000F082FB76E024
:100810009348844208D10121022000F07AFB002194
:10082000022000F076FB6AE08E48844208D1012164
:10083000042000F06EFB0021042000F06AFB5EE063
:100840008948844208D10121082000F062FB002180
:10085000082000F05EFB52E08448844208D1012168
:10086000102000F056FB0021102000F052FB46E063
:100870007F48844208D10121202000F04AFB00215A
:10088000202000F046FB3AE07A48844208D101215A
:10089000402000F03EFB0021402000F03AFB2EE01B
:1008A0007548844208D10121802000F032FB0021EC
:1008B000802000F02EFB22E07048844208D1012104
:1008C000801500F026FB0021A01500F022FB16E0A9
:1008D0006B48844208D10121401500F01AFB002129
:1008E000601500F016FB0AE06648844207D101213A
:1008F000001500F00EFB0021201500F00AFB10BDD2
:10090000F0B50A4600210023002400BF3DE0012588
:1009100005FA01F3156805EA03049C4234D1056821
:100920004F000326BE40B543056015794E00B54023
:100930000668354305601579012D02D01579022D21
:1009400016D185684F000326BE40B54385605579B2
:100950004E00B540866835438560456801268E4067
:10096000B5434560456896798E40B6B235434560DB
:10097000C5684F000326BE40B543C560D5794E001B
:10098000B540C6683543C560491C1029BFD3F0BDCA
:100990004FF6FF7101600021017141718171C171D8
:1009A000704708B54FF480320092009A0A430092D3
:1009B000009AC261C161009AC261C2690092C269B3
:1009C000009208BD0246002013690B400BB10120C4
:1009D00000E0002070470146086980B27047024677
:1009E000002053690B400BB1012000E0002070474C
:1009F0000146486980B27047018370474183704760
:100A00000AB1018300E04183704741617047426948
:100A10004A4042617047F0B5002300244D07ED0EB7
:100A200002FA05F3CE1000F1200555F826504E07C6
:100A3000F70E0F26BE40B543CF1000F1200646F852
:100A40002750CE1000F1200555F8265045EA030442
:100A5000CE1000F1200545F82640F0BD0000024010
:100A60000004024000080240000C02400010024056
:100A70000014024000180240001C02400020024006
:100A80000024024000280240F948006840F00100BC
:100A9000F74908600020F64908310860F44800680A
:100AA000F4490840F2490860F348091D0860F3481A
:100AB000EF4984310860F0481038091D0860EC489F
:100AC000006820F48020EA4908600020E8490C31E1
:100AD0000860E7498C31086070470021E44A921CA5
:100AE000117011460870704710B5014600220023AE
:100AF00000204A11012A02D1DD4C236808E0022AB5
:100B000003D1DB4C7034236802E0D94C7434236881
:100B100001F01F02012494401C400CB1012000E0B0
:100B2000002010BD38B5002000900024002500BF33
:100B30003120FFF7D9FF05460098401C009000982F
:100B4000B0F5A04F01D0002DF2D03120FFF7CCFF3F
:100B500008B1012400E00024204638BD01460020F1
:100B6000C34A106820F0F80040EAC10010607047E6
:100B7000C349086070470021BD4A7032117011707E
:100B8000012802D004280AD104E00121B84A7032B9
:100B9000117005E00521B64A7032117000E000BF07
:100BA00000BF7047B7490860704770B5049C41EAC0
:100BB00082150126C6EB530645EA0645054345EA7C
:100BC0000465AB4E361D356070BDAD490866704793
:100BD000820142EA0172A64B84331A607047A84929
:100BE0008866704710B5830143EA016343EA0273E4
:100BF0009F4C8834236010BDA14908677047A04905
:100C0000C864704702460020994B0833186820F0EA
:100C1000EC6042EA01031843954B083318607047B3
:100C200002460020924B0833186820F0784042EAD0
:100C3000010318438E4B08331860704701460020AB
:100C40008B4A0832106820F0030008431060704798
:100C500087480830006800F00C007047014600200B
:100C6000834A0832106820F0F00008431060704793
:100C7000014600207E4A0832106820F4E050084304
:100C80001060704701460020794A0832106820F44D
:100C9000604040EAC10010607047F0B500210022BA
:100CA0000024022500260223714F08373F6807F011
:100CB0000C0121B1042905D0082937D105E0724F74
:100CC000076036E0714F076033E0694F3F1D3F68B2
:100CD000C7F38056664F3F1D3F6807F03F036EB174
:100CE0006A4FB7FBF3F7DFF888C10CF1040CDCF8AE
:100CF00000C0CCF3881C07FB0CF40CE0624FB7FB80
:100D0000F3F7DFF86CC10CF1040CDCF800C0CCF395
:100D1000881C07FB0CF4564F3F1D3F68C7F3014783
:100D20007F1C7D00B4FBF5F7076002E0564F0760BB
:100D300000BF00BF4E4F08373F6807F0F0010909B8
:100D4000534F7A5C0768D7404760494F08373F6880
:100D500007F4E051890A4E4F7A5C4768D7408760B4
:100D6000434F08373F6807F46041490B484F7A5CAE
:100D70004768D740C760F0BD002100F44072B2F56B
:100D8000407F0AD13A4A0832116821F4F811414AE9
:100D900002401143364A08321160354A70321268F7
:100DA000C0F30B031A43324B70331A607047354956
:100DB0004439086070473349403908607047364904
:100DC0000860704701460020294A8C32106820F0E4
:100DD0001F004A1E1043264A8C321060704701469D
:100DE0000020234A8C32106820F4F8504A1E40EA52
:100DF00002201F4A8C3210607047014600201C4AB6
:100E00008C32106820F4401008431060704701468F
:100E10000020174A8C32106820F44000084310600C
:100E2000704701460020124A8C32106820F440308E
:100E300008431060704719490860704739B10C4A7F
:100E40003032126802430A4B30331A6006E0084A17
:100E5000303212688243064B30331A607047F9B162
:100E6000034A343212680243014B34331A601CE0E7
:100E700000380240FFFFF6EA103000240030002066
:100E800000004742800E47420024F40000127A001E
:100E900038000020FFFCFF0F5C014742E011474291
:100EA0008F4A126882438E4B1A60704739B18C4A60
:100EB000121D126802438A4B1B1D1A6006E0884A05
:100EC000121D12688243864B1B1D1A60704739B190
:100ED000834A0C3212680243814B0C331A6006E0DD
:100EE0007F4A0C32126882437D4B0C331A60704784
:100EF00039B17B4A103212680243794B10331A60C1
:100F000006E0774A103212688243754B10331A603C
:100F1000704739B1724A243A12680243704B243B3D
:100F20001A6006E06E4A243A126882436C4B243BF6
:100F30001A60704739B16A4A203A12680243684B16
:100F4000203B1A6006E0664A203A12688243644BEE
:100F5000203B1A60704739B1614A1C3A126802435B
:100F60005F4B1C3B1A6006E05D4A1C3A12688243E4
:100F70005B4B1C3B1A60704739B1594A143A1268EE
:100F80000243574B143B1A6006E0554A143A126864
:100F90008243534B143B1A60704739B1504A103AA0
:100FA000126802434E4B103B1A6006E04C4A103A5E
:100FB000126882434A4B103B1A60704739B1484A65
:100FC0001C3212680243464B1C331A6006E0444A46
:100FD0001C3212688243424B1C331A60704739B18D
:100FE0003F4A2032126802433D4B20331A6006E02C
:100FF0003B4A203212688243394B20331A607047D3
:1010000039B1374A243212680243354B24331A600F
:1010100006E0334A243212688243314B24331A608B
:10102000704739B12E4A2C32126802432C4B2C33B4
:101030001A6006E02A4A2C3212688243284B2C336D
:101040001A60704739B1264A303212680243244B85
:1010500030331A6006E0224A303212688243204B55
:1010600030331A607047012808D11D493C310968A6
:1010700041F008011A4A3C32116007E018493C313E
:10108000096821F00801164A3C321160704739B1F5
:10109000134A273A12780243114B273B1A7006E095
:1010A0000F4A273A127882430D4B273B1A7070473C
:1010B0000B484030006840F08070094940310860BA
:1010C000704701460020064A283A12680A400AB1D1
:1010D000012000E000207047014926390870704760
:1010E0003438024010B50446FE48844208D101213C
:1010F0000846FFF752FF00210120FFF74EFF9DE059
:10110000B4F1804F08D101210846FFF735FF0021D7
:101110000120FFF731FF91E0F348844208D101211B
:101120000220FFF729FF00210220FFF725FF85E0BD
:10113000EE48844208D101210420FFF71DFF002161
:101140000420FFF719FF79E0E948844208D1012122
:101150000820FFF711FF00210820FFF70DFF6DE0C9
:10116000E448844208D101211020FFF705FF002147
:101170001020FFF701FF61E0DF48844208D1012120
:101180002020FFF7F9FE00212020FFF7F5FE55E0B3
:10119000DA48844208D101210220FFF7FEFE002137
:1011A0000220FFF7FAFE49E0D548844209D1012127
:1011B0000804FFF7F2FE00214FF48030FFF7EDFE48
:1011C0003CE0D048844209D101214804FFF7E5FE04
:1011D00000214FF40030FFF7E0FE2FE0CA488442C0
:1011E00009D101218804FFF7D8FE00214FF48020A7
:1011F000FFF7D3FE22E0C548844208D101214020F8
:10120000FFF7BAFE00214020FFF7B6FE16E0C04807
:10121000844208D101218020FFF7AEFE002180200A
:10122000FFF7AAFE0AE0BB48844207D101218015DE
:10123000FFF7A2FE0021A015FFF79EFE10BD0022C1
:101240000288A84B98420ED0AC4B98420BD0B0F11C
:10125000804F08D0A44B984205D0A44B984202D0AE
:10126000A34B984204D14FF68F731A404B881A4310
:10127000A04B984207D0A04B984204D04FF6FF43B2
:101280001A400B891A4302804B68C3620B8803859E
:10129000944B984202D0994B984201D18B7A0386A5
:1012A0000123838270474FF0FF31416000210180AC
:1012B00001814180817270470185828270470A46B0
:1012C000002101884FF68F73194011430180704748
:1012D00041627047C16270470146486A70470146E3
:1012E000088D704721B1028842F00202028004E0BA
:1012F00002884FF6FD731A400280704721B10288C0
:1013000042F00402028004E002884FF6FB731A40A8
:101310000280704721B1028842F08002028004E01E
:1013200002884FF67F731A400280704702884FF69A
:10133000F7731A40028002880A43028070470288CD
:101340004FF6FF431A40028002880A43028070472A
:1013500021B1028842F00102028004E002884FF6C7
:10136000FE731A400280704770B5002400220023EB
:10137000058C4FF6FE7635400584028C8388048BFD
:101380004FF68F752C40B51E2C400D882C43751ED2
:101390002A408D892A434D882A43524DA84202D0C3
:1013A000564DA84213D14FF6F7752A40CD892A43EE
:1013B0004FF6FB752A408D882A434FF6FF652B4078
:1013C0004FF6FF552B400D8A2B434D8A2B438380CC
:1013D00004838D684563028470BD70B500240022CB
:1013E0000023058C4FF6EF7635400584028C838808
:1013F000048B48F6FF752C404FF6FF452C400D88B6
:101400004FF6FF7606EA05252C434FF6DF752A4096
:101410008D8906EA05152A434D8806EA05152A43F3
:10142000304DA84202D0354DA8421DD14FF67F75F0
:101430002A40CD894FF6FF7606EA05152A434FF676
:10144000BF752A408D8806EA05152A434FF6FF35F9
:101450002B404FF2FF752B400D8A06EA85052B4382
:101460004D8A06EA85052B43838004838D68856356
:10147000028470BD70B5002400220023058C4FF655
:10148000FF6635400584028C8388848B4FF68F7508
:101490002C404FF6FC752C400D882C434FF6FF5521
:1014A0002A408D894FF6FF7606EA05252A434D88A6
:1014B00006EA05252A430B4DA84202D00F4DA8424B
:1014C00038D14FF2FF752A40CD894FF6FF7606EAF4
:1014D00005252A434FF6FF352A408D8806EA052563
:1014E0002A4319E0000001400004004000080040C9
:1014F000000C0040001000400014004000040140B7
:1015000000400140004401400048014000180040F4
:10151000001C0040002000404EF6FF752B404DF6A9
:10152000FF752B400D8A06EA05152B434D8A06EA06
:1015300005152B43838084838D68C563028470BD49
:1015400070B5002200230024058C4EF6FF7635404E
:101550000584038C8488828B48F6FF752A404FF6F9
:10156000FF452A400D884FF6FF7606EA05252A43F7
:101570004DF6FF752B408D8906EA05352B434D88C6
:1015800006EA05352B43FE4DA84202D0FD4DA84288
:1015900008D14BF6FF752C400D8A4FF6FF7606EA10
:1015A00085152C43848082838D680564038470BD17
:1015B000002101804180818081608181C18101821F
:1015C0004182704770B50346002000241846183049
:1015D00001258D40ACB21D8CA5431D8409B108299D
:1015E0000AD100EB610005684FF68F763540056043
:1015F0000568154305600FE00D1FC5F34E0528442F
:10160000056848F6FF763540056005684FF6FF76B9
:1016100006EA02263543056070BD41637047816369
:101620007047C1637047016470470A460021018B0F
:101630004FF68F7319401143018370470A4600210A
:10164000018B48F6FF7319404FF6FF7303EA02233C
:101650001943018370470A460021818B4FF68F732F
:1016600019401143818370470A460021818B48F657
:10167000FF7319404FF6FF7303EA02231943818376
:1016800070470A460021018B4FF6F773194011434A
:10169000018370470A460021018B4FF2FF73194006
:1016A0004FF6FF7303EA02231943018370470A468A
:1016B0000021818B4FF6F7731940114381837047E6
:1016C0000A460021818B4FF2FF7319404FF6FF73DA
:1016D00003EA02231943818370470A460021018BE4
:1016E0004FF6FB7319401143018370470A460021EE
:1016F000018B4FF6FF3319404FF6FF7303EA0223C5
:101700001943018370470A460021818B4FF6FB7312
:1017100019401143818370470A460021818B4FF69F
:10172000FF3319404FF6FF7303EA02231943818305
:1017300070470A460021018B4FF67F731940114311
:10174000018370470A460021018BC1F30E014FF659
:10175000FF7303EA02231943018370470A460021FD
:10176000818B4FF67F7319401143818370470A467E
:101770000021818BC1F30E014FF6FF7303EA0223B0
:101780001943818370470A460021018C4FF6FD738F
:1017900019401143018470470A460021018C4FF61D
:1017A000F77319401143018470470A460021018CE8
:1017B0004FF6DF7319404FF6FF7303EA0213194324
:1017C000018470470A460021018C4FF67F7319404F
:1017D0004FF6FF7303EA02131943018470470A4668
:1017E0000021018C4FF6FF5319404FF6FF7303EAB7
:1017F00002231943018470470A460021018C4FF2ED
:10180000FF7319404FF6FF7303EA02231943018463
:1018100070470A460021018C4DF6FF7319404FF6C0
:10182000FF7303EA023319430184704730B5002384
:1018300001248C40A3B2048C9C430484048C02FADF
:1018400001F5ADB22C43048430BD30B5002304242F
:101850008C40A3B2048C9C430484048C02FA01F5EE
:10186000ADB22C43048430BD828B4FF2FF331A405B
:101870008283828B4FF6FF7303EA01231A4382832C
:101880007047F0B50C461546002100220026078C53
:101890004EF6FF7C07EA0C070784818B028C4FF61B
:1018A000FF7707EA043640F6FF4739404FF6FF77E7
:1018B00007EA052739434FF6FF7707EA033739432D
:1018C00045F6FF773A4046F480573A4381830284D5
:1018D000F0BD828B4FF6F3731A408283828B0A43EA
:1018E00082837047F0B50C46154600210022002681
:1018F000078C4FF6FF6C07EA0C070784818B028C7C
:101900004FF6FF7707EA04264FF60C7739404FF67B
:10191000FF7707EA03172F4339434FF2FF573A4047
:1019200046F480773A4381830284F0BD028B4FF204
:10193000FF331A400283028B4FF6FF7303EA012341
:101940001A4302837047F0B50C4615460021002269
:101950000026078C4FF6EF7C07EA0C070784018B03
:10196000028C4FF6FF7707EA041640F6FF4739402E
:101970004FF6FF7707EA033739434FF6FF7703E067
:10198000000001400004014007EA052739434FF6F3
:101990005F773A4046F010073A4301830284F0BD76
:1019A000028B4FF6F3731A400283028B0A430283C1
:1019B0007047F0B50C46154600210022068C4FF604
:1019C000FE773E400684018B028C4FF60C76314048
:1019D0007E1C06EA03162E4331434FF6F57632405D
:1019E00044F00106324301830284F0BD70B5054620
:1019F0000C46208850B92389A28861882846FFF7C1
:101A0000D8FFE1882846FFF7CBFF25E0208804288F
:101A10000AD12389A28861882846FFF794FFE188CC
:101A20002846FFF783FF17E0208808280AD123897A
:101A3000A28861882846FFF755FFE1882846FFF70E
:101A400048FF09E02389A28861882846FFF719FF2B
:101A5000E1882846FFF708FF70BD00210180418022
:101A6000012181800021C180018170472DE9F04171
:101A700005460C4600260127608808B9022600E0CA
:101A80000026A088012801D1022700E00127208834
:101A9000A0B92389A28861882846FFF78AFFE188D8
:101AA0002846FFF77DFF23893A4631462846FFF74F
:101AB0004AFFE1882846FFF739FF13E02389A2880F
:101AC00061882846FFF73FFFE1882846FFF72EFF91
:101AD00023893A4631462846FFF76BFFE1882846BE
:101AE000FFF75EFFBDE8F0810146486B7047014695
:101AF000886B70470146C86B70470146086C704799
:101B00000A884B881A438B881A43CB881A430B895F
:101B10001A434B891A438B891A43A0F84420704713
:101B20000021018041808180C180018141818181CA
:101B3000704731B1B0F8442042F40042A0F844208C
:101B400005E0B0F84420C2F30E02A0F8442070472C
:101B500021B1828842F00402828004E082884FF63C
:101B6000FB731A408280704721B1828842F00102E3
:101B7000828004E082884FF6FE731A4082807047AC
:101B80001AB183890B43838102E083898B4383816C
:101B900070478182704702460020138A0B400BB1C8
:101BA000012000E000207047CA430282704730B530
:101BB0000246002000230024158A05EA01039589C6
:101BC00005EA010413B10CB1012000E0002030BD92
:101BD000CA430282704741EA0203A0F848307047C6
:101BE0001AB183890B43838102E083898B4383810C
:101BF000704721B1828842F00802828004E0828826
:101C00004FF6F7731A408280704701894FF6F872D9
:101C10001140018170470A46002101894FF68F73F8
:101C2000194011430181704730B504460D462946DD
:101C30002046FFF7F0FF208940F00700208130BDEB
:101C40002DE9F04104460D4616461F46602D06D18B
:101C50003B46012231462046FFF775FE05E03B4634
:101C6000012231462046FFF7A4FE29462046FFF711
:101C7000D2FF208940F007002081BDE8F08130B517
:101C80000C4600210189C9B24FF6FF7505EA03250C
:101C9000154325432943018130BD2DE9F041054617
:101CA0000E4617469846002443463A463146284693
:101CB000FFF7E5FF2C894FF6F870044044F0070465
:101CC0004FF68F70044044F070042C81BDE8F08121
:101CD000F0B504460D4616461F463B463246294699
:101CE0002046FFF7CCFF208940F480402081F0BDE2
:101CF00082884FF68F731A40828082880A438280DE
:101D0000704702894FF6F8731A40028102890A432C
:101D10000281704702894FF67F731A40028102895F
:101D20000A4302817047F0B50C4615461E46002155
:101D3000002200230189028B038C4FF6F87739408B
:101D400021434FF6FC473A4040F201173A434FF621
:101D5000DD773B404FF6FF7707EA06172F433B43FB
:101D6000018102830384F0BD21B1828842F08002A8
:101D7000828004E082884FF67F731A408280704729
:101D8000A0F850107047000010B50446FA4884428D
:101D900008D101211020FFF700F900211020FFF7E2
:101DA000FCF857E0F548844209D101214804FFF7C7
:101DB000E3F800214FF40030FFF7DEF84AE0F04886
:101DC000844209D101218804FFF7D6F800214FF49D
:101DD0008020FFF7D1F83DE0EA48844209D1012193
:101DE000C804FFF7C9F800214FF40020FFF7C4F83A
:101DF00030E0E548844209D101210805FFF7BCF82D
:101E000000214FF48010FFF7B7F823E0DF48844249
:101E100008D101212020FFF7C0F800212020FFF782
:101E2000BCF817E0DA48844209D101218807FFF79E
:101E3000A3F800214FF08040FFF79EF80AE0D54854
:101E4000844207D101214005FFF796F80021600583
:101E5000FFF792F810BD2DE9FF4705460E46002416
:101E6000A14600BFA046B08900B100BF2C8A24F46F
:101E70004054F08804432C82AC8941F20C608443C6
:101E8000B08831890843718908430443AC81AC8A26
:101E900024F44074B0890443AC826846FEF7FDFE2A
:101EA000B548854202D0B948854202D1DDF80C9090
:101EB00001E0DDF80890A88900F4004040B109EB8A
:101EC000C90000EB091031684900B0FBF1F707E0E9
:101ED00009EBC90000EB091031688900B0FBF1F78C
:101EE0006420B7FBF0F004012009642101FB1078A5
:101EF000A88900F4004040B1322000EBC800B0FBDC
:101F0000F1F000F00700044308E0322000EB081075
:101F10006421B0FBF1F000F00F0004432C81BDE818
:101F2000FF874FF41651016000218180C18001813B
:101F30000C21418100218181704710B502460020AB
:101F4000108A20F470600B884C8823438C882343CC
:101F5000CC8823431843108210BD002101804180AA
:101F60008180C180704721B1828942F40052828110
:101F700004E082894DF6FF731A4082817047028B1C
:101F800002F47F420283028B0A430283704721B12D
:101F9000828942F40042828103E08289C2F30E0208
:101FA0008281704721B1828A42F40062828204E019
:101FB000828A4FF2FF731A4082827047C1F308028F
:101FC0008280704701468888C0F308007047028A03
:101FD0004FF6F0731A400282028A0A430282704767
:101FE00021B1828942F00202828104E082894FF6A7
:101FF000FD731A408281704782894FF2FF731A4045
:10200000828182890A4382817047028A4FF6DF7398
:102010001A400282028A0A430282704721B1028A70
:1020200042F48042028204E0028A4BF6FF731A40B7
:1020300002827047818941F001018181704721B19D
:10204000828A42F00802828204E0828A4FF6F773A5
:102050001A4082827047028BD2B20283028B42EA1C
:1020600001220283704721B1828A42F020028282DB
:1020700004E0828A4FF6DF731A408282704721B1F2
:10208000828A42F01002828204E0828A4FF6EF7365
:102090001A4082827047828A4FF6FB731A4082820E
:1020A000828A0A438282704721B1828A42F0020208
:1020B000828204E0828A4FF6FD731A408282704762
:1020C0001AB1838A0B43838202E0838A8B43838223
:1020D0007047F0B50346002400260025002040F696
:1020E0006A17B94200D100BF1846C1F3421401F08B
:1020F0001F06012707FA06F5012C01D10C3004E078
:10210000022C01D1103000E014301AB107682F43BF
:10211000076002E00768AF430760F0BD0246002099
:10212000B1F5007F00D100BF13880B400BB1012037
:1021300000E00020704701F40072B2F5007F00D18A
:1021400000BFCA430280704770B5024600240023D6
:102150000025002040F66A16B14200D100BFC1F34D
:10216000421501F01F03012606FA03F3012D13D1D6
:102170009689334017E00000001001400044004001
:1021800000480040004C0040005000400014014056
:1021900000780040007C0040022D02D1168A3340B6
:1021A00001E0968A33400C12012606FA04F41688E0
:1021B000344013B10CB1012000E0002070BD10B517
:1021C0000022002340F66A14A14200D100BF0A1287
:1021D00001249440A3B2DC43048010BD10B5044632
:1021E0006FF00400FEF7E8FAE11704EB5171C1F358
:1021F000C701394A11701046007800EB4001C1EB6D
:10220000C0104FF6FF7101EAC0003449088010BDCC
:102210000146314A12784A434FF0E0235A610022C6
:102220009A611A46126942F001021A6100BF4FF02A
:10223000E022106900F001021AB100F48032002A95
:10224000F5D04FF0E022126922F001024FF0E023B6
:102250001A6100229A6170470146204A12884A4357
:102260004FF0E0235A6100229A611A46126942F047
:1022700001021A6100BF4FF0E022106900F0010274
:102280001AB100F48032002AF5D04FF0E022126932
:1022900022F001024FF0E0231A6100229A61704798
:1022A00070B504464FF4077094FBF0F0C6B24FF4DB
:1022B000077094FBF0F100FB114085B205E04FF48C
:1022C0000770FFF7C9FF701EC6B2002EF7D115B117
:1022D0002846FFF7C1FF70BD480000204A000020DB
:1022E0004A0A52020243FE4B1A6070470146072316
:1022F00023EA01021202FA4B1B1D18684FF6FF0376
:102300001840F84B18431043F54B1B1D18607047DD
:102310002DE9F0410746884614461D462846FFF73A
:10232000E5FFC5F1040007FA00F60F20284100EA96
:102330000800064306F00F06E21704EBD2625211C2
:10234000920002F1E022D2F800212146E31704EBCB
:10235000D3635B11A4EB431C012303FA0CF31A4370
:102360002046E31704EBD3635B119B0003F1E023EA
:10237000C3F80021DC48005D40EA0610DA49085540
:10238000BDE8F081F0B503460846CD1701EB957521
:10239000AD10A1EB8505AD062C0ED448006840F4C5
:1023A0008040D24D2860CD1701EB9575AE10D04D11
:1023B00055F826500F26A640B5430846CE1701EB28
:1023C0009676B710CA4E46F82750CD1701EB957593
:1023D000AE10C74D55F8265003FA04F63543CE1714
:1023E00001EB9676B710C24E46F82750C1480068F8
:1023F00001258D402843BF4D286002F0010040B107
:10240000BC480C30006801258D402843B94D0C357F
:10241000286002F0020040B1B6480830006801258B
:102420008D402843B34D08352860F0BD30B5CC1041
:1024300000F1200353F824304C07E50E0F24AC4084
:10244000A343CD1000F1200444F82530CC1000F156
:10245000200353F824304C07E40E02FA04F423431B
:10246000CD1000F1200444F8253030BD2DE9F047AF
:102470000C46DDE90867002100258C4600BF60E0BE
:102480004FF0010808FA01F504EA050CAC4557D1F4
:10249000D0F800804FEA410A4FF0030909FA0AF91F
:1024A00028EA0908C0F80080D0F800804FEA410906
:1024B00002FA09F948EA0908C0F80080012A01D0A7
:1024C000022A27D1D0F808804FEA410A4FF00309C9
:1024D00009FA0AF928EA0908C0F80880D0F8088043
:1024E0004FEA410906FA09F948EA0908C0F80880E4
:1024F000D0F804904FF0010808FA01F829EA080919
:10250000C0F80490D0F8048003FA01F948EA0908F9
:10251000C0F80480D0F80C804FEA410A4FF003095C
:1025200009FA0AF928EA0908C0F80C80D0F80C80EA
:102530004FEA410907FA09F948EA0908C0F80C808E
:10254000491C10299CD3BDE8F08730BF704772B694
:10255000704762B6704700B561480830006840F0C7
:1025600004005F49083108606048001F006840F0BF
:1025700080505E49091F08605F48406840F48070E1
:102580005D4948600846006840F00400086008465D
:10259000006840F002000860FFF7D7FF00BD514817
:1025A000001D4F49091D08607047F0B504460D46EF
:1025B000002100204D4E443E366846F480364B4F95
:1025C000443F3E6001E04E1CB1B2484E443E366886
:1025D00006F400361EB941F6FF76B142F3DB41F650
:1025E000FF76B14201D1012063E0404E361F3668CC
:1025F00046F080563D4F3F1F3E603F4E366846F4E2
:1026000040463D4F3E60394E3C3E366846F41446E7
:10261000364F3C3F3E60354E443E366826F080766D
:10262000324F443F3E6045EA84160127C7EB52070C
:1026300046EA074646EA036646F480062B4F403FCB
:102640003E603E1F366846F080763F1F3E6000BF0A
:10265000264E443E366806F00076002EF8D0274E0F
:10266000366846F48076254F3E603E46366846F42E
:1026700000763E603E46366846F480663E603E46E2
:10268000366846F005063E60184E3C3E366826F039
:102690000306164F3C3F3E603E46366846F0020653
:1026A0003E6000BF114E3C3E366806F00C06082E18
:1026B000F8D1F0BDF0B504460D4616461F460B484E
:1026C0004438006840F0010008494439086000209F
:1026D00006493C390860054844380068084911E05B
:1026E00008ED00E00000FA0500E400E04438024094
:1026F00008380140003C014000700040003C0240AE
:10270000FFFFF6FE08400D4908600D48091D0860EE
:10271000081F006820F48020091F08600020074976
:102720000C3108603B46324629462046FFF73DFF04
:1027300000210846FFF7D4FDF0BD0000003802403C
:1027400010300024014600BF704700BF2D4A128898
:1027500002F04002002AF9D0C2B22A4B9A80704798
:1027600010B588B0044601210846FEF767FB012139
:102770001020FEF7BDFB072209212348FEF74BF985
:1027800007220A212048FEF746F94FF4C060069060
:1027900002208DF81C008DF81D0000208DF81E0011
:1027A00001208DF81F0006A91748FEF7A9F802942A
:1027B0000020ADF80C00ADF80E00ADF81000ADF83B
:1027C00014000C20ADF8120025208DF80400012023
:1027D0008DF805008DF806008DF8070001A8FDF7BB
:1027E0009EFF02A90748FFF736FB012240F2255160
:1027F0000448FFF76EFC01210248FFF7B4FB08B064
:1028000010BD0000001001400000024070B50546F8
:102810000C4600F0D6F9D02000F07FFA00F012FA52
:1028200018B100F0F0F9012070BD284600F075FAEB
:1028300000F008FA204600F070FA00F003FA18B130
:1028400000F0E1F90120EFE700F0DDF90020EBE70F
:1028500070B504460025BC2C01DB012510E0622C7C
:1028600001DB02250CE02A2C01DB032508E0142CF7
:1028700001DB042504E00A2C01DB052500E0062528
:1028800029461A20FFF7C2FF70BD70B50446B4F5A3
:102890007A7F01DD4FF47A74042C00DA04244FF4BB
:1028A0007A7090FBF4F0401EC5B229461920FFF75C
:1028B000ADFF0546264604EBD671C1F34F00FFF786
:1028C000C7FF70BD70B5044600F07BF9D02000F062
:1028D00024FA00F0B7F9204600F01FFA00F0B2F930
:1028E00000F06FF9D12000F018FA00F0ABF90020E9
:1028F00000F040FA054600F086F9284670BD10B594
:102900000446E006010E1C20FFF780FF10BD10B545
:102910000446E006010E1B20FFF778FF10BD10B53E
:1029200000F036F980216B20FFF770FF6420FFF77D
:10293000B7FC00216B20FFF769FF0320FFF7E7FFDB
:102940000020FFF7DCFF3220FFF79FFF0021382037
:10295000FFF75CFF00216A20FFF758FF00212320CA
:10296000FFF754FF80213720FFF750FF7520FFF756
:10297000A9FF0446682C0BD101216B20FFF746FF0D
:1029800000216C20FFF742FF3220FFF77EFF01E0BD
:10299000012010BD0020FCE72DE9F04106460F465E
:1029A00014461D4600F00DF9002141EA4601C8B267
:1029B00000F0B3F900F046F920B100F024F901204D
:1029C000BDE8F081384600F0A8F900F03BF900F0CE
:1029D000F8F8012101EB4601C8B200F09EF900F0C1
:1029E00031F90DE0012C04D1002000F0C3F928706A
:1029F00003E0012000F0BEF92870601EC4B26D1C17
:102A0000002CEFD100F0FFF80020D9E710B52DED34
:102A1000088B82B001AB022241216820FFF7BCFF86
:102A20009DF805009DF8041040EA012004B22046FC
:102A300007F01DFB41EC1B0B9FED500B53EC102BD3
:102A400007F08EF941EC1A0B9FED4E0B53EC102B57
:102A500007F0D2F841EC190B07F09CF808EE100AC9
:102A60009FED4A0A28EE000ABDEEC00A10EE100AD9
:102A700000B202B0BDEC088B10BD2DE9FC4104464C
:102A80000D4616466B46062243216820FFF784FF59
:102A90000746BFB99DF801009DF8001040EA0120EB
:102AA00000B220809DF803009DF8021040EA01204A
:102AB00000B228809DF805009DF8041040EA01202E
:102AC00000B230803846BDE8FC812DE9FC41044667
:102AD0000D4616466B4606223B216820FFF75CFF39
:102AE0000746BFB99DF801009DF8001040EA01209B
:102AF00000B220809DF803009DF8021040EA0120FA
:102B000000B228809DF805009DF8041040EA0120DD
:102B100000B230803846BDE8FC812DE9F041054621
:102B20000E461746984600F04CF8002141EA450150
:102B3000C8B200F0F2F800F085F820B100F063F8B8
:102B40000120BDE8F081304600F0E7F800F07AF8A7
:102B500000240CE018F8040000F0DFF800F072F830
:102B600018B100F050F80120EBE7601CC4B2BC4281
:102B7000F0DB00F048F80020E3E700000000000070
:102B800000407540A4703D0AD74342400000C8424F
:102B90001CB59048006840F002008E490860012092
:102BA000022100230246CDE900104FF440718A480B
:102BB000FFF75CFC0120894908608949C1F8A4023B
:102BC0001CBD10B58448006820F44020824908608C
:102BD0000846006840F48020086001207F49091DF4
:102BE00008607F49C1F8A0020420FFF711FB002014
:102BF0007A49091D08600420FFF70AFB0020784984
:102C0000C1F8A00210BD10B57348006820F4402040
:102C1000714908600846006840F480200860002080
:102C20006E4908606E49C1F8A4020420FFF7F0FA6B
:102C300001206A4908606A49C1F8A4020420FFF72C
:102C4000E7FA10BD10B500246348006820F4402066
:102C50006149086008460068086001205F49091D55
:102C60000860FFF7D5FA01205D49C1F8A002FFF71F
:102C7000CFFA07E0601CC4B2FA2C03DDFFF7C3FFF4
:102C8000012010BD55487C3800680028F2D1534916
:102C9000086000BFF5E710B50020504908604E48B5
:102CA000006820F440204C4908600846006840F461
:102CB0008020086000204A49C1F8A4020220FFF7E2
:102CC000A7FA0120454908600220FFF7A1FA002079
:102CD0004349C1F8A00210BD10B500203F4908606B
:102CE0003D48006820F440203B49086008460068E1
:102CF00040F48020086001203949C1F8A402022074
:102D0000FFF786FA0120354908600220FFF780FAB4
:102D100000203349C1F8A00210BD70B504462E480A
:102D2000006820F440202C4908600846006840F400
:102D300080200860002029490860002517E0E0098C
:102D40002649091D08606006040E0220FFF760FA9C
:102D500001202349C1F8A0020220FFF759FA002000
:102D60001E4908600220FFF753FA681CC5B2082DFF
:102D7000E5DB70BD70B5054600241748006820F4F7
:102D8000402015490860084600680860002616E0E3
:102D90000020124908600220FFF73AFA012010498A
:102DA000C1F8A0026006040E0C487C38006808B127
:102DB000601CC4B20120FFF72BFA701CC6B2082EAB
:102DC000E6DB15B9FFF788FF01E0FFF764FF204657
:102DD00070BD00003038024000040240A082404232
:102DE0000080404200B52DED108B89B0B0EE40BAA6
:102DF000F0EE60BAB0EE418AF0EE618AB0EE429A2F
:102E0000F0EE629A8DED069B8DED048BFE4890ED01
:102E1000000BB0EE40CAF0EE60CA90ED000BB0EED1
:102E200040CAF0EE60CA9DED048B53EC182BF748B6
:102E300090ED000B51EC100B06F0DEFE41EC1A0B8E
:102E40009DED069B53EC192B51EC1A0B06F0D4FEAA
:102E500041EC1F0B53EC1F2B51EC1A0B06F080FFBB
:102E600041EC1E0B53EC1C2B51EC1B0B07F072FBBF
:102E700041EC1F0B53EC1E2B07F060F953EC1C2B9D
:102E8000CDE900019DED000B51EC100B06F0B4FEF6
:102E900041EC1D0B53EC1E2B9FEDDD0B51EC100B89
:102EA00007F058FB41EC1F0B53EC1A2B07F046F9C7
:102EB000CDE902019DED020BD44880ED000BD24814
:102EC00080ED00DBB0EE4D0AF0EE6D0A09B0BDEC0E
:102ED000108B00BD10B52DED0A8BF0EE408AB0EEE0
:102EE000608ACD4890ED000A38EE400A10EE101AC4
:102EF000084607F019FC41EC1C0B9FEDC80B53EC86
:102F0000102B07F01BF941EC1A0BC648006807F0BC
:102F10000BFC41EC1B0B53EC1A2B06F06DFE41EC45
:102F2000190B06F037FEBF490860BF4890ED020A52
:102F300010EE101A084607F0F7FB41EC1A0BBA48DE
:102F400090ED010A10EE101A084607F0EDFB41EC77
:102F50001C0B9FEDB60B53EC102B07F023FA41EC42
:102F60001B0B53EC1A2B07F0F5FA41EC190B06F08A
:102F700011FEB0490860AC4890ED030AB1EE400A7A
:102F8000084680ED010AA84890ED030AB1EE400A18
:102F9000084680ED020A9FEDA80A80ED030A90ED35
:102FA000000A10EE101A084607F0BEFB41EC1C0B9D
:102FB0009FED9A0B53EC102B07F0C0F841EC1A0B65
:102FC000994890ED000A10EE101A084607F0ACFB85
:102FD00041EC1B0B53EC1A2B06F00EFE41EC190BC7
:102FE00006F0D8FD90490860924890ED010A10EE75
:102FF000101A084607F098FB41EC1C0B9FED870B5D
:1030000053EC102B07F09AF841EC1A0B864890ED20
:10301000010A10EE101A084607F086FB41EC1B0B64
:1030200053EC1A2B06F0E8FD41EC190B06F0B2FD4B
:103030007D4948607F4890ED020A10EE101A08465C
:1030400007F072FB41EC1C0B9FED740B53EC102B43
:1030500007F074F841EC1A0B734890ED020A10EE79
:10306000101A084607F060FB41EC1B0B53EC1A2BBF
:1030700006F0C2FD41EC190B06F08CFD6A49886030
:103080006C4890ED030A10EE101A084607F04CFB4E
:1030900041EC1C0B9FED610B53EC102B07F04EF82D
:1030A00041EC1A0B604890ED030A10EE101A084626
:1030B00007F03AFB41EC1B0B53EC1A2B06F09CFD7E
:1030C00041EC190B06F066FD5749C860554890ED74
:1030D000000A38EEC00A594880ED000A0846D0EDD3
:1030E000000A5748007800EE100AB8EE400A20EEB9
:1030F000800A544880ED000A0846D0ED020A504884
:10310000007800EE100AB8EE400A20EE800A4E4821
:1031100080ED000A4A48007800EE100AB8EE400A36
:103120004848D0ED000A20EE200A10EE101A08469A
:1031300007F0FAFA41EC1A0B9FED440B53EC102BFD
:1031400006F05AFD41EC190B06F024FD41490860D8
:103150003C4890ED000A0846D0ED000A80EE201AA7
:103160003D4880ED001A384890ED000A0846D0ED41
:10317000000A80EE201A394880ED001A314890ED9F
:10318000000A374880ED000A2748D0ED010A2C4894
:10319000007800EE100AB8EE400A20EE800A3148AE
:1031A00080ED000A204890ED000A2B48D0ED000A7F
:1031B0002B4890ED001A00EEC10A1B4880ED000A72
:1031C00090ED010A2448D0ED000A264890ED001A3F
:1031D00000EEC10A144880ED010A90ED020A1F4872
:1031E000D0ED000A1E4890ED001A00EEC10A0E480C
:1031F00080ED020A90ED030A1848D0ED000A194844
:1032000090ED001A30E0000038010020400100205D
:10321000000000000000F03F940000207B14AE4747
:10322000E17A843F84000020C0000020FCA9F1D294
:103230004D62503FD80100200AD7A33BA0000020D8
:1032400088000020A4000020A8000020000000004A
:103250000000E03FAC000020B0000020B4000020DF
:10326000B8000020BC00002000EEC10AFE4880ED3E
:10327000030AFE4890ED000AFD48D0ED000AFD4823
:1032800090ED001A00EE810AF84880ED000AFA4835
:1032900090ED000AF948D0ED000AF64890ED001ACA
:1032A00000EE810AF44880ED000A90ED000A38EE45
:1032B000400AF34880ED000ABDEC0A8B10BD10B542
:1032C0002DED0A8BF0EE408AB0EE608AED4890ED6D
:1032D000000A38EE400A10EE101A084607F024FAE9
:1032E00041EC1C0B1FED330B53EC102B06F026FFAB
:1032F00041EC1A0BE448006807F016FA41EC1B0B8E
:1033000053EC1A2B06F078FC41EC190B06F042FC4A
:10331000DD490860D44890ED020A10EE101A084604
:1033200007F002FA41EC1A0BCF4890ED010A10EEBB
:10333000101A084607F0F8F941EC1C0B1FED450B7D
:1033400053EC102B07F02EF841EC1B0B53EC1A2B0F
:1033500007F000F941EC190B06F01CFCCB490860A2
:10336000C14890ED030AB1EE400A084680ED010A1B
:10337000BD4890ED030AB1EE400A084680ED020A0E
:103380001FED530A80ED030A90ED000A10EE101AAB
:10339000084607F0C9F941EC1C0B1FED600B53EC1C
:1033A000102B06F0CBFE41EC1A0BAF4890ED000A53
:1033B00010EE101A084607F0B7F941EC1B0B53EC5E
:1033C0001A2B06F019FC41EC190B06F0E3FBA64999
:1033D0000860AE4890ED010A10EE101A084607F09A
:1033E000A3F941EC1C0B1FED730B53EC102B06F0F3
:1033F000A5FE41EC1A0B9C4890ED010A10EE101A44
:10340000084607F091F941EC1B0B53EC1A2B06F020
:10341000F3FB41EC190B06F0BDFB934948609B4858
:1034200090ED020A10EE101A084607F07DF941EC03
:103430001C0B1FED860B53EC102B06F07FFE41ECAE
:103440001A0B894890ED020A10EE101A084607F090
:103450006BF941EC1B0B53EC1A2B06F0CDFB41EC46
:10346000190B06F097FB80498860884890ED030AA5
:1034700010EE101A084607F057F941EC1C0B1FED2F
:10348000990B53EC102B06F059FE41EC1A0B7648C1
:1034900090ED030A10EE101A084607F045F941ECCA
:1034A0001B0B53EC1A2B06F0A7FB41EC190B06F093
:1034B00071FB6D49C860744890ED000A38EEC00A8F
:1034C000734880ED000A0846D0ED000A7148007884
:1034D00000EE100AB8EE400A20EE800A6E4880ED39
:1034E000000A0846D0ED020A6A48007800EE100A89
:1034F000B8EE400A20EE800A684880ED000A654870
:10350000007800EE100AB8EE400A6348D0ED000AD9
:1035100020EE200A10EE101A084607F005F941ECDB
:103520001A0B1FEDB60B53EC102B06F065FB41ECAC
:10353000190B06F02FFB5A490860574890ED000A16
:103540000846D0ED000A80EE201A494880ED001AA6
:10355000524890ED000A0846D0ED000A80EE201A8D
:10356000464880ED001A4C4890ED000A4D4880ED29
:10357000000A3D48D0ED010A4648007800EE100AE6
:10358000B8EE400A20EE800A474880ED000A36482F
:1035900090ED000A3648D0ED000A424890ED001A3E
:1035A00000EEC10A304880ED000A90ED010A304873
:1035B000D0ED000A3C4890ED001A00EEC10A2A48FE
:1035C00080ED010A90ED020A2C48D0ED000A354842
:1035D00090ED001A00EEC10A234880ED020A90ED3A
:1035E000030A2648D0ED000A2F4890ED001A00EE9D
:1035F000C10A1D4880ED030A234890ED000A1C48CB
:10360000D0ED000A224890ED001A00EE810A1E4813
:1036100080ED000A1B4890ED000A1848D0ED000A22
:103620001B4890ED001A00EE810A164880ED000A52
:1036300090ED000A38EE400A1C4880ED000ABDEC0F
:103640000A8B10BD10B52DED0A8BF0EE408AB0EE5E
:10365000608A174890ED000A38EE400A10EE101A02
:10366000084607F061F825E0C00000208400002033
:10367000B0000020A000002094000020B400002032
:103680006C0000209000002080000020D801002065
:103690009C00002088000020A4000020A80000203A
:1036A000AC000020B8000020BC0000206800002012
:1036B0008C00002041EC1C0B9FEDFE0B53EC102BFB
:1036C00006F03CFD41EC1A0BFC48006807F02CF8B2
:1036D00041EC1B0B53EC1A2B06F08EFA41EC190B44
:1036E00006F058FAF5490860F54890ED020A10EE28
:1036F000101A084607F018F841EC1A0BF04890ED44
:10370000010A10EE101A084607F00EF841EC1C0BE7
:103710009FEDEC0B53EC102B06F044FE41EC1B0B21
:1037200053EC1A2B06F016FF41EC190B06F032FA97
:10373000E6490860E24890ED030AB1EE400A084607
:1037400080ED010ADE4890ED030AB1EE400A08461A
:1037500080ED020A9FEDDE0A80ED030A90ED000A7B
:1037600010EE101A084606F0DFFF41EC1C0B9FED2F
:10377000D10B53EC102B06F0E1FC41EC1A0BD048B6
:1037800090ED000A10EE101A084606F0CDFF41EC4D
:103790001B0B53EC1A2B06F02FFA41EC190B06F019
:1037A000F9F9C7490860C94890ED010A10EE101AEE
:1037B000084606F0B9FF41EC1C0B9FEDBE0B53EC25
:1037C000102B06F0BBFC41EC1A0BBD4890ED010A32
:1037D00010EE101A084606F0A7FF41EC1B0B53EC45
:1037E0001A2B06F009FA41EC190B06F0D3F9B4498B
:1037F0004860B64890ED020A10EE101A084606F02E
:1038000093FF41EC1C0B9FEDAB0B53EC102B06F020
:1038100095FC41EC1A0BAA4890ED020A10EE101A22
:10382000084606F081FF41EC1B0B53EC1A2B06F007
:10383000E3F941EC190B06F0ADF9A1498860A34802
:1038400090ED030A10EE101A084606F06DFF41ECE9
:103850001C0B9FED980B53EC102B06F06FFC41EC0A
:103860001A0B974890ED030A10EE101A084606F05E
:103870005BFF41EC1B0B53EC1A2B06F0BDF941EC3E
:10388000190B06F087F98E49C8608C4890ED000A44
:1038900038EEC00A8F4880ED000A0846D0ED000AD5
:1038A0008D48007800EE100AB8EE400A20EE800A3B
:1038B0008A4880ED000A0846D0ED020A8648007862
:1038C00000EE100AB8EE400A20EE800A844880ED2F
:1038D000000A8148007800EE100AB8EE400A7F48DE
:1038E000D0ED000A20EE200A10EE101A084606F06D
:1038F0001BFF41EC1A0B9FED7B0B53EC102B06F0DA
:103900007BF941EC190B06F045F9784908607348DA
:1039100090ED000A0846D0ED000A80EE201A7448A7
:1039200080ED001A6E4890ED000A0846D0ED000ABE
:1039300080EE201A6F4880ED001A684890ED000A6A
:103940006D4880ED000A5E48D0ED010A62480078BB
:1039500000EE100AB8EE400A20EE800A674880EDBB
:10396000000A574890ED000A6148D0ED000A62480D
:1039700090ED001A00EEC10A514880ED000A90ED6A
:10398000010A5B48D0ED000A5C4890ED001A00EE99
:10399000C10A4B4880ED010A90ED020A5548D0ED6E
:1039A000000A554890ED001A00EEC10A444880ED27
:1039B000020A90ED030A4F48D0ED000A4F4890EDFF
:1039C000001A00EEC10A3E4880ED030A3B4890ED24
:1039D000000A4748D0ED000A3E4890ED001A00EE7C
:1039E000810A364880ED000A454890ED000A4148BA
:1039F000D0ED000A374890ED001A00EE810A4048E9
:103A000080ED000A90ED000A38EE400A3D4880ED56
:103A1000000ABDEC0A8B10BD70B52DED0A8B9FED31
:103A20003A0A10EE104A9FED380A10EE105A9FED38
:103A3000360A10EE106A3548B0F9000000EE100AA0
:103A4000B8EEC00A324880ED000A3248B0F90000F2
:103A500000EE100AB8EEC00A2F4880ED000A2F4889
:103A6000B0F9000000EE100AB8EEC00A2C4880ED54
:103A7000000A2C48B0F9000000EE100AB8EEC00AA7
:103A8000204880ED000A2848B0F9000000EE100A36
:103A9000B8EEC00A254880ED000A2548B0F90000BC
:103AA00000EE100AB8EEC00A224880ED000A18485D
:103AB00042E000007B14AE47E17A843F7C000020A6
:103AC000C0000020FCA9F1D24D62503FD801002077
:103AD0000AD7A33B9800002088000020A400002003
:103AE000A8000020000000000000E03FAC00002023
:103AF000B0000020B4000020B8000020BC0000206E
:103B00008C00002064000020000000000C00002059
:103B1000580000200E0000205C0000201000002053
:103B20006000002012000020140000206800002027
:103B3000160000206C00002090ED000ADFEDFE0A68
:103B4000B4EEE00AF1EE10FA08D290ED000ADFEDD3
:103B5000FB0A80EE201A11EE104A10E0F84890EDB2
:103B6000000ADFEDF80A70EE600A9FEDF41A80EEAD
:103B7000810AF7EE000A30EEC00A10EE104AF24851
:103B800090ED000ADFEDEC0AB4EEE00AF1EE10FA77
:103B900008D290ED000ADFEDE90A80EE201A11EE5E
:103BA000105A10E0E84890ED000ADFEDE60A70EEEA
:103BB000600A9FEDE21A80EE810AF7EE000A30EE0D
:103BC000C00A10EE105AE14890ED000ADFEDDA0A63
:103BD000B4EEE00AF1EE10FA08D290ED000ADFED43
:103BE000D70A80EE201A11EE106A0CE0D74890ED4B
:103BF000000ADFEDD40A30EE600ADFEDD00A80EE75
:103C0000201A11EE106A284606F08EFD41EC1B0BBF
:103C1000304606F089FD41EC1C0BB0EE4B1AF0EE7D
:103C20006B1AB0EE4C0AF0EE6C0A05F06DF9B0EECE
:103C300040AAF0EE60AA9FEDC60B53EC102B51EC9E
:103C40001A0B06F07BFA41EC190B9FEDC30B53ECFA
:103C5000102B06F085F841EC180B05F09BFFC049CE
:103C60000860304606F060FD41EC1B0B204606F074
:103C70005BFD41EC1C0BB0EE4B1AF0EE6B1AB0EE94
:103C80004C0AF0EE6C0A05F03FF9B0EE40AAF0EEF7
:103C900060AA9FEDAF0B53EC102B51EC1A0B06F002
:103CA0004DFA41EC190B9FEDAC0B53EC102B06F0C9
:103CB00057F841EC180B05F06DFFAA490860204643
:103CC00006F032FD41EC1B0B284606F02DFD41ECC1
:103CD0001C0BB0EE4B1AF0EE6B1AB0EE4C0AF0EE85
:103CE0006C0A05F011F9B0EE40AAF0EE60AA9FED63
:103CF000980B53EC102B51EC1A0B06F01FFA41EC09
:103D0000190B9FED950B53EC102B06F029F841ECA5
:103D1000180B05F03FFF944908608B4890ED000AAE
:103D2000DFED850AB4EEE00AF1EE10FA04D28D4818
:103D300090ED000A80ED000A834890ED000ADFED67
:103D40007E0AB4EEE00AF1EE10FA06DD854890ED49
:103D5000000AB1EE400A80ED000A794890ED000AB1
:103D6000DFED750AB4EEE00AF1EE10FA04D27C48F9
:103D700090ED000A80ED000A714890ED000ADFED39
:103D80006E0AB4EEE00AF1EE10FA06DD744890ED2A
:103D9000000AB1EE400A80ED000A6C4890ED000A7E
:103DA000DFED650AB4EEE00AF1EE10FA04D26E48D7
:103DB00090ED000A80ED000A644890ED000ADFED06
:103DC0005E0AB4EEE00AF1EE10FA06DD664890ED08
:103DD000000AB1EE400A80ED000A644890ED000A46
:103DE000DFED630AB4EEE00AF1EE10FA14D20068D7
:103DF00006F09AFC41EC1A0B9FED5E0B53EC102B76
:103E000005F0AEFF41EC190B05F0B8FE41EC180BC4
:103E100005F0C0FE55490860544890ED000ADFEDFA
:103E2000540AB4EEE00AF1EE10FA18DD90ED000A43
:103E3000DFED520A30EEC00A10EE101A084606F006
:103E400073FC41EC190B9FED4B0B53EC102B05F061
:103E500087FF41EC180B05F09DFE44490860484877
:103E600090ED000ADFED420AB4EEE00AF1EE10FA3E
:103E700014D2006806F058FC41EC1A0B9FED3D0B84
:103E800053EC102B05F06CFF41EC190B05F076FE9E
:103E900041EC180B05F07EFE39490860384890ED7A
:103EA000000ADFED330AB4EEE00AF1EE10FA18DD95
:103EB00090ED000ADFED310A30EEC00A10EE101A64
:103EC000084606F031FC41EC190B9FED2A0B53EC30
:103ED000102B05F045FF41EC180B05F05BFE28495F
:103EE0000860284890ED000ADFED210AB4EEE00AF0
:103EF000F1EE10FA14D2006806F016FC41EC1A0B31
:103F00009FED1C0B53EC102B05F02AFF41EC190B15
:103F100005F034FE41EC180B05F03CFE1949086031
:103F2000184890ED000ADFED120AB4EEE00AF1EE57
:103F300010FA42DD28E0000000F8FF46000080464D
:103F400058000020000040475C0000206000002076
:103F500000000000008066404AD8124DFB21094055
:103F60007000002074000020780000206400002011
:103F700000000047666666666666304000FF7F4761
:103F8000680000206C00002090ED000A5FED050A3B
:103F900030EEC00A10EE101A084606F0C5FB41ECE0
:103FA000190B1FED0C0B53EC102B05F0D9FE41EC57
:103FB000180B05F0EFFDF3490860F348D0ED000A57
:103FC000F24890ED000AFFF73DFBF148D0ED000A02
:103FD000F04890ED000AFFF772F9EA48D0ED000AC8
:103FE000ED4890ED000AFEF775FFBDEC0A8B70BD41
:103FF00010B52DED068BE9480068401CE7490860C4
:10400000E7480078002842D1E648006806F08CFBBB
:1040100041EC1A0B9FEDE40B53EC102B06F09AFACF
:1040200041EC180BE248006806F07EFB41EC190BEE
:1040300053EC182B06F080F92AD8DA48006806F00D
:1040400073FB41EC1A0B9FEDD80B53EC102B05F0D2
:10405000D3FD41EC180BD648006806F065FB41EC37
:10406000190B53EC182B06F02DF811D8D04890ED11
:10407000000AB5EEC00AF1EE10FA09D0CD4890ED75
:10408000000ACD4880ED000A0120C549087047E0CC
:10409000C248006864281EDCC84890ED000AC54884
:1040A000D0ED000A30EE200AC44880ED000ABB487B
:1040B0000068642834D1C14890ED000ADFEDC00AE1
:1040C00080EE201ABA4880ED001A9FEDBE0ABB4868
:1040D00080ED000A24E0B1480068C82820DCBA4816
:1040E00090ED000AB348D0ED000A30EE200AB64841
:1040F00080ED000AA9480068C82811D1B24890EDA7
:10410000000ADFEDAF0A80EE201AA64880ED001A03
:104110009FEDAC0AAC4880ED000A00209F49086082
:10412000A44890ED000AA448D0ED000A30EE600AE1
:10413000A64880ED000AA6480078002842D1A5488C
:10414000006806F0F1FA41EC1A0B9FED970B53EC67
:10415000102B06F0FFF941EC180B9F48006806F0A1
:10416000E3FA41EC190B53EC182B06F0E5F82AD8CA
:104170009848006806F0D8FA41EC1A0B9FED8A0BBC
:1041800053EC102B05F038FD41EC180B92480068F9
:1041900006F0CAFA41EC190B53EC182B05F092FF0C
:1041A00011D88D4890ED000AB5EEC00AF1EE10FA74
:1041B00009D08A4890ED000A894880ED000A012064
:1041C0008349087047E07548006864281EDC85480C
:1041D00090ED000A8148D0ED000A30EE200A8148B7
:1041E00080ED000A6D480068642834D17D4890ED68
:1041F000000ADFED730A80EE201A774880ED001A7E
:104200009FED700A774880ED000A24E0634800685B
:10421000C82820DC744890ED000A7048D0ED000AF0
:1042200030EE200A704880ED000A5C480068C8281B
:1042300011D16D4890ED000ADFED610A80EE201A81
:10424000644880ED001A9FED5F0A674880ED000A20
:10425000002052490860614890ED000A6048D0EDA6
:10426000000A30EE600A614880ED000A604890ED77
:10427000000A604880ED000A49480078012805D10D
:1042800053480078012801D15B490870BDEC068BCA
:1042900010BD9FED5A2AB0EE421A9FED592AF0EE5A
:1042A000421AB7EE002A72EE412A564890ED002AD3
:1042B00000EEA12A22EE822A01EE002A80ED002AD9
:1042C00090ED002A504880ED002A704700B52DED92
:1042D000108B85B0B0EE408AF0EE608A9FED4B0AFD
:1042E000B0EE40FA18EE900A06F01EFA9FED480B69
:1042F00053EC102BCDE900019DED000B51EC100BA0
:1043000005F01CFF41EC1D0B4348006806F00CFA59
:1043100041EC1E0B53EC1D2B05F06EFC41EC1B0B0E
:10432000B7EE000A30EE4F0A10EE101A084606F0FB
:10433000FBF941EC1C0B53EC1B2B05F0FFFE41EC91
:10434000190B2FEE080A10EE101A084606F0ECF9C9
:1043500041EC1A0B53EC192B05F04EFCCDE9020190
:104360009DED020B51EC100B05F014FC2A4908607E
:10437000084690ED000A294880ED000A05B0BDEC22
:10438000108B00BD6C000020640000207000002035
:104390006800002074000020780000201C0100202C
:1043A00018010020F40000209A9999999999A93F41
:1043B000DC0000207C00002000010020D000002054
:1043C0000000C84200000000E80000200C010020AE
:1043D00019010020F8000020E000002080000020EB
:1043E00004010020D4000020EC0000201001002077
:1043F00084000020140100201B010020EC51B83D76
:104400000AD7233C2001002028010020CDCCCC3D40
:104410007B14AE47E17A843F240100202C01002068
:104420007FB505460C4601210220FCF750FD0295A0
:10443000ADF804400020ADF80600ADF80C0001A96D
:104440000D48FCF7FCFE012211460B48FDF798FBD6
:1044500001210948FCF77CFF1D208DF80000012098
:104460008DF8010003208DF8020001208DF8030073
:104470006846FCF754F97FBD0004004010B50446BF
:1044800000BF4021F948FDF749FE0028F9D0214638
:10449000F648FDF793FD10BDF0B589B006460F460E
:1044A00015461C2D01DD09B0F0BD002101AA281D13
:1044B0001154AA208DF804008DF805008DF80660CF
:1044C0008DF80750002405E0395D201D01AA115424
:1044D000601CC4B2AC42F7DB00240AE001A9281D2D
:1044E000085C095D0844C1B201AA281D1154601C72
:1044F000C4B2281D8442F1DB002405E001A9085D57
:10450000FFF7BCFF601CC4B2681D8442F6DB00BF2D
:10451000C9E72DE9F04385B004460D4617461E460F
:10452000DDE90C89200A8DF80000E0B28DF8010069
:10453000280A8DF80200E8B28DF80300380A8DF8D9
:104540000400F8B28DF80500300A8DF80600F0B2CC
:104550008DF807004FEA18208DF8080008F0FF00DA
:104560008DF809004FEA19208DF80A0009F0FF00C4
:104570008DF80B0000208DF80C008DF80D008DF8E3
:104580000E008DF80F008DF810008DF8110012222A
:1045900069460220FFF780FF05B0BDE8F083FEB555
:1045A00004460D461646002704E000200DF80700DB
:1045B000781CC7B20C2FF8DB200A8DF80000E0B29F
:1045C0008DF80100280A8DF80200E8B28DF803008A
:1045D000300A8DF80400F0B28DF8050000208DF847
:1045E00006008DF807008DF808008DF809008DF899
:1045F0000A0001208DF80B000C226946FFF74CFFE2
:10460000FEBD2DE9FF4107460C4615461E46380AF9
:104610008DF80000F8B28DF80100200A8DF8020034
:10462000E0B28DF80300280A8DF80400E8B28DF896
:104630000500300A8DF80600F0B28DF80700002062
:104640008DF808008DF809008DF80A008DF80B0030
:104650008DF80C008DF80D008DF80E008DF80F0010
:10466000102269460620FFF717FFBDE8FF812DE9FC
:10467000FF4105460E46002700248DF800508DF8B6
:10468000016000BF05E01DF804003844C7B2601C9B
:10469000C4B2062CF7DB8DF8027007226946EF20C2
:1046A000FFF7FAFEBDE8FF812DE9F0412DED048B07
:1046B00004460D460026002700BF04E0E05D3044BC
:1046C000C6B2781CC7B2681EB842F7DC601910F891
:1046D000010CB04203D0BDEC048BBDE8F081207822
:1046E000AA2802D16078AF2800D0F4E7A07801288A
:1046F00006D12079012803D12079022800D100BFFA
:10470000A078102803D1A0783146FFF7B0FFA07839
:10471000112803D1A0783146FFF7A9FFA07812280D
:1047200003D1A0783146FFF7A2FFA078132803D168
:10473000A0783146FFF79BFFA078142803D1A0781A
:104740003146FFF794FFA078152825D120796179AB
:1047500041EA002046490870A079E17941EA002049
:1047600044490870217A090209B2627A41EA0200DA
:1047700005F07DFC41EC190B9FED3F0B53EC102B2A
:1047800005F0DCFC41EC180B05F004FA3C4908602C
:10479000A0783146FFF76BFF00BF9CE710B50446D9
:1047A0003848007838B9AA2C05D10120354908705D
:1047B0003548047072E033480078012807D1AF2CE7
:1047C00005D102202F4908702F48447066E02D481B
:1047D0000078022807D1F12C05DA03202949087056
:1047E000294884705AE02748007803280CD1322CDD
:1047F0000ADA0420234908702348C470234804704F
:1048000000202349087049E01E480078042819D187
:104810001E480078002815DD1C480078401E1B4902
:1048200008701B4800781A490978491C184A117009
:10483000001D15490C541548007858BB0520114936
:1048400008702BE00F480078052824D100200D497E
:1048500008700F480078001D0B490C540C48007874
:10486000401DC1B20848FFF71FFF17E000100140CC
:104870001A00002020000020FCA9F1D24D62503F18
:104880001C0000204A010020E8010020480100200F
:104890004901002002E000200149087010BD00001D
:1048A0004A01002038B50446F74890F82400C0B10A
:1048B00014B10220009001E000200090F24A12683A
:1048C000D17BF14A526810786B460122FEF725F938
:1048D00010B14FF0FF3038BD9DF80010EA48417428
:1048E00023E0E948807A10B94FF0FF30F3E724B1B4
:1048F000E548407C08B10020EDE714B101200090AC
:1049000001E000200090E04A1268D17BDE4A526844
:1049100010786B460122FEF700F910B14FF0FF301E
:10492000D9E79DF80010D84841740020D3E738B586
:1049300000241FE0D4480068C07AA04204D0D248C6
:104940000068407DA04200D112E0CF494968087854
:104950006B4601222146FEF71FF810B14FF0FF30E1
:1049600038BD9DF800202146C8A003F09FFC00BF81
:10497000601CC4B2C44840680079A042DADC002060
:10498000EEE770B504460D46BF480068C07AA04205
:1049900004D0BD480068407DA04202D14FF0FF30F6
:1049A00070BDB94840680079A04202DC4FF0FF308A
:1049B000F6E7B549496808782B4601222146FDF7FC
:1049C000EBFFEDE738B50446AF4890F82300A0426E
:1049D00001D1002038BD14B13020009001E000204A
:1049E0000090A948807C20B19DF8000040F00200B2
:1049F0000090A54890F8220020B19DF8000040F0FA
:104A000080000090A04A1268117D9F4A5268107879
:104A10006B460122FEF781F810B14FF0FF30D9E765
:104A2000994880F823400020D4E738B5044604F0C4
:104A3000700010B10120009005E014B1002000903A
:104A400001E040200090904A1268917C8E4A5268A2
:104A500010786B460122FEF760F820B100218A48E9
:104A60008172481E38BD9DF8000020F04001864844
:104A700001730020009004F0400020B99DF8000070
:104A800040F00400009004F0200020B99DF80000E0
:104A900040F00200009004F0100020B99DF80000E2
:104AA00040F00100009004F0080020B99DF80000DB
:104AB00040F038000090744A1268D17C724A526803
:104AC00010786B460122FEF728F820B100216E48CD
:104AD0008172481EC6E724B1082C02D00020FFF7DF
:104AE00071FF69488472002101753220FDF7D8FBFF
:104AF0000020B7E738B504466348807CA04201D166
:104B0000002038BD002C46D05F4A126811795E4AF9
:104B1000526810786B460122FDF73EFF10B14FF04E
:104B2000FF30EEE79DF8000020F020000090564A8C
:104B300012681179544A526810786B460122FDF7C9
:104B4000ECFF10B14FF0FF30DBE70320FDF7A8FBCF
:104B5000022000904C4890F8220020B19DF80000FF
:104B600040F080000090484890F8230020B19DF864
:104B7000000040F030000090434A1268117D424A24
:104B8000526810786B460122FDF7C7FF002851D00C
:104B90004FF0FF30B5E73C4A126811793A4A526843
:104BA00010786B460122FDF7F7FE10B14FF0FF3091
:104BB000A7E73548807A00F0010028B19DF8000091
:104BC00040F02000009004E09DF8000020F020005C
:104BD00000902D4A126811792B4A526810786B4662
:104BE0000122FDF79AFF10B14FF0FF3089E7032053
:104BF000FDF756FB244890F8220010B18020009069
:104C000001E000200090204890F8230020B19DF89A
:104C1000000040F0300000901B4A1268117D1A4AD3
:104C2000526810786B460122FDF777FF10B14FF004
:104C3000FF3066E714488474002062E708B5124824
:104C4000807A10B94FF0FF3008BD002000900E4A66
:104C50001268D17B0C4A526810786B460122FDF72E
:104C60005CFF10B14FF0FF30EEE7074A1268517950
:104C7000054A526810786B460122FDF74EFF68B175
:104C80004FF0FF30E0E700004C010020252335788D
:104C90003A20252335780D0A00000000F84A1268F2
:104CA0001179F74A526810786B460122FDF735FFFB
:104CB00010B14FF0FF30C7E7F14890F8240000280A
:104CC00053D00C200090EE4A12681179EC4A5268D9
:104CD00010786B460122FDF720FF10B14FF0FF3036
:104CE000B2E73220FDF7DCFAC0200090E448807A79
:104CF00000F0010020B19DF8000040F0200000907D
:104D0000DF4A12681179DE4A526810786B46012238
:104D1000FDF703FF10B14FF0FF3095E7D848407C16
:104D200010B10220009001E000200090D44A1268E7
:104D3000D17BD34A526810786B460122FDF7EDFE15
:104D400010B14FF0FF307FE700200090CC4A12688E
:104D50005179CB4A526810786B460122FDF7DDFE8F
:104D6000002855D04FF0FF306EE704200090C44A71
:104D700012681179C24A526810786B460122FDF719
:104D8000CCFE10B14FF0FF305EE7BD48807C20B90B
:104D9000BB48807A00F0010010B94020009001E08B
:104DA00060200090B64A12681179B54A52681078AE
:104DB0006B460122FDF7B1FE10B14FF0FF3043E723
:104DC0003220FDF76DFAAE48407C10B10120009012
:104DD00001E000200090AA4A1268D17BA84A5268DC
:104DE00010786B460122FDF798FE10B14FF0FF30AE
:104DF0002AE7A34A12685179A14A52681078A04B59
:104E000010330122FDF789FE10B14FF0FF301BE790
:104E1000002019E770B50446002624F001049848E4
:104E200090F8240008B1002070BD9548807A10B930
:104E30004FF0FF30F8E79248057C807A2040904997
:104E400008740846007CA04202D04FF0FF3600E014
:104E5000002614B98A48007D18B10120FFF722FD11
:104E600002E00020FFF71EFD3CB1FFF7E7FE20B196
:104E7000834805744FF0FF30D6E73046D4E738B5A5
:104E800004467F48807A10B94FF0FF3038BDBC2C03
:104E900002DB0120009015E0622C02DB0220009072
:104EA00010E02A2C02DB032000900BE0142C02DB24
:104EB0000420009006E00A2C02DB0520009001E0AF
:104EC000062000906E48C07A9DF80010884201D1FB
:104ED0000020DBE76A4A12689178694A52681078C4
:104EE0006B460122FDF719FE10B14FF0FF30CDE700
:104EF0009DF800106248C1720020C7E738B504462B
:104F0000282C02DD4FF0FF3038BDDCB90020FFF760
:104F100059FD00208DF8000007208DF80100584A47
:104F20001268917C564A526810786B460222FDF74F
:104F3000F4FD10B14FF0FF30E6E700215048017555
:104F40000020E1E70120FFF73DFD20208DF8000063
:104F5000012C06D100208DF801000520FFF78FFFFE
:104F600017E0052C06DC01208DF801000520FFF775
:104F700086FF0EE0142C06DC02208DF801000A20CA
:104F8000FFF77DFF05E003208DF801001420FFF7F7
:104F900076FF9DF80100072101EB8010C0B28DF86B
:104FA0000100374A1268917C354A526810786B4686
:104FB0000222FDF7B2FD10B14FF0FF30A4E7082147
:104FC0002F48817200210173012101750020FFF734
:104FD00021FF002098E738B504462948807A10B9A7
:104FE0004FF0FF3038BD264890F8240010B14FF044
:104FF000FF30F7E72248007D50B134B1282C04DCA3
:10500000E0B2FFF77BFF0020ECE70020FFF776FF20
:10501000042C01DA042404E0B4F57A7F01DD4FF4B6
:105020007A744FF47A7090FBF4F0401EC0B2009096
:10503000134A12685178124A526810786B4601225E
:10504000FDF76BFD10B14FF0FF30CBE79DF800008E
:10505000401C4FF47A7191FBF0F081B20848C18195
:105060000146C9894810FFF70AFF0020BAE738B5A2
:1050700004460348807A28B94FF0FF3038BD00005D
:105080004C010020022C06D0042C07D0082C08D09C
:10509000102C0CD108E0002000900BE008200090BC
:1050A00008E01020009005E01820009002E04FF08A
:1050B000FF30E3E700BFF748407A9DF80010B0EBFF
:1050C000E10F01D10020D9E7F24A1268D179F14A03
:1050D000526810786B460122FDF71FFD10B14FF0AA
:1050E000FF30CBE79DF80000C110EA484172002074
:1050F000C4E738B50446E748807A10B94FF0FF306E
:1051000038BDFA2C09D0B4F5FA7F09D0B4F57A7F0E
:1051100009D0B4F5FA6F0CD108E0002000900BE044
:105120000820009008E01020009005E01820009072
:1051300002E04FF0FF30E3E700BFD648007A9DF869
:105140000010B0EBE10F01D10020D9E7D14A12687D
:105150009179D04A526810786B460122FDF7DDFC48
:1051600010B14FF0FF30CBE79DF80000C010C949E7
:1051700008720020C4E71CB580208DF80000C54AE5
:105180001268917CC34A526810786B460122FDF781
:10519000C4FC10B14FF0FF301CBD6420FDF780F857
:1051A00000208DF80000BB4A1268917CB94A526811
:1051B00010786B460122FDF7B0FC10B14FF0FF30C4
:1051C000EAE7B44A1268917DB24A526810786B4699
:1051D0000622FDF7E1FB10B14FF0FF30DCE79DF850
:1051E0000500C007400F9DF8031001F0010140EADF
:1051F00041009DF8011001F0010140EA010494B161
:10520000012C03D10121A348C17431E0022C03D148
:105210000021A048C1742BE021469FA003F046F86E
:105220004FF0FF30B8E79B4A1268D178994A52682C
:1052300010786B460122FDF7AFFB10B14FF0FF3045
:10524000AAE79DF8000000F00F042CB99C4803F079
:105250002DF84FF0FF309FE7042C06D199A003F002
:1052600025F801218B48C17402E000218948C174EE
:10527000FF2188488172FF2086490872FF218548F6
:105280004172C1724FF6FF71C181FF2101748174B7
:105290000121017380F82210002180F8231041754C
:1052A00001751630016041608160163880F8241065
:1052B00080F82510C1844FF4FA60FFF71AFF10B18F
:1052C0004FF0FF3068E70220FFF7D1FE10B14FF03A
:1052D000FF3061E72A20FFF7D2FD10B14FF0FF3019
:1052E0005AE73220FFF777FE10B14FF0FF3053E757
:1052F0000020FFF78FFD10B14FF0FF304CE700208A
:10530000FFF7F8FB10B14FF0FF3045E70020FFF743
:105310008CFB002040E770477CB504460D465D4895
:10532000807A00F0700010B94FF0FF307CBD594A10
:105330001268117B574A526810786B460622FDF7B7
:105340002BFB10B14FF0FF30F0E79DF801009DF806
:10535000001040EA012000B220809DF803009DF873
:10536000021040EA012000B260809DF805009DF81F
:10537000041040EA012000B2A08015B12846FFF7D2
:10538000CAFF0020D2E77CB504460D464148807A2A
:1053900000F0080010B94FF0FF307CBD3D4A1268A4
:1053A000517B3C4A526810786B460622FDF7F4FAAE
:1053B00010B14FF0FF30F0E79DF801009DF80010AC
:1053C00040EA012000B220809DF803009DF8021001
:1053D00040EA012000B260809DF805009DF80410AD
:1053E00040EA012000B2A08015B12846FFF793FFE4
:1053F0000020D2E7F8B506460C462648807A10B958
:105400004FF0FF30F8BD234A1268917B214A526861
:1054100010786B460222FDF7BFFA10B14FF0FF3053
:10542000F0E79DF801009DF8001040EA012005B268
:1054300014B12046FFF76FFF16484068B0F9080026
:1054400000EE100AF8EEC00A00EE105AB8EEC00ADC
:1054500070EE600A0F484068C08800EE100AB8EE8F
:10546000400A80EE801A9FED1F0A31EE000ADFED40
:105470001E0A20EE200ABDEEC00A86ED000A0020BA
:10548000C0E710B588B004461CB94FF0FF3008B033
:1054900010BD2BE04C010020556E737570706F725B
:1054A00074656420736F6674776172652070726FC3
:1054B00064756374207265762025642E0A000000EE
:1054C000B0B6000848616C662073656E73697469D4
:1054D00076697479207061727420666F756E642EBF
:1054E0000A00000000000C4200008047206830B92C
:1054F000606820B9A06810B9002008B010BDF94953
:105500004968087806AB03221146FDF745FA10B149
:105510004FF0FF30F1E79DF81800082101EB201053
:1055200000F00F00ADF800009DF8190001EB20100D
:1055300000F00F00ADF802009DF81A0001EB2010FA
:1055400000F00F00ADF8040020684100BDF9000034
:10555000403091FBF0F000B2ADF8100060684100FF
:10556000BDF90200403091FBF0F000B2ADF812003E
:10557000A0684100BDF90400403091FBF0F000B29A
:10558000ADF81400D7494968087806AB06221146E1
:10559000FDF702FA10B14FF0FF30AEE79DF81900A9
:1055A0009DF8181040EA012000B2ADF808009DF8FF
:1055B0001B009DF81A1040EA012000B2ADF80A0065
:1055C0009DF81D009DF81C1040EA012000B2ADF8C6
:1055D0000C00BDF81000BDF80810084400B2ADF88A
:1055E0001000BDF81200BDF80A10084400B2ADF872
:1055F0001200BDF81400BDF80C10084400B2ADF85C
:105600001400BDF81000000A8DF81800BDF8100055
:10561000C0B28DF81900BDF81200000A8DF81A000A
:10562000BDF81200C0B28DF81B00BDF81400000ACE
:105630008DF81C00BDF81400C0B28DF81D00A949FA
:105640004968087806AB06221146FDF766FA10B1E4
:105650004FF0FF3051E700204FE70146A148007AA4
:1056600030B1012807D0022809D003280FD10AE061
:10567000FA2008800EE04FF4FA7008800AE04FF438
:105680007A70088006E04FF4FA60088002E000209B
:10569000088000BF00BF0020704701469148407A53
:1056A00030B1012807D0022808D003280CD108E027
:1056B000022008700BE00420087008E00820087041
:1056C00005E01020087002E04FF0FF30704700BF87
:1056D0008448C07C18B108784006000E087000208D
:1056E000F4E701467F48C07A082817D2DFE800F0C7
:1056F0001704070A0D101318BC20088013E062205D
:10570000088010E02A2008800DE0142008800AE0BC
:105710000A20088007E00520088004E000BF00BFE1
:105720000020088000BF00BF0020704701466D4880
:1057300090F8240010B14FF0FF3070476948C089DD
:1057400008800020F9E7014600200880401E7047CD
:1057500001464FF0FF30704701466248007A30B191
:10576000012809D002280CD0032814D10EE09FEDA7
:105770005E0A81ED000A11E09FED5C0A81ED000AEE
:105780000CE09FED5B0A81ED000A07E09FED590AEE
:1057900081ED000A02E04FF0FF30704700BF0020AB
:1057A000FBE701464F48407A30B1012808D0022873
:1057B0000AD0032810D10BE04FF4804008800EE09F
:1057C00041F69C7008800AE04FF48050088006E0A3
:1057D0004FF40060088002E04FF0FF30704700BFD8
:1057E0004048C07C10B10888401008800020F5E7D0
:1057F00001463C48007C087000207047014639484B
:10580000807A10B10120087001E0002008700020AB
:10581000704738B504463348807A10B94FF0FF30EE
:1058200038BD304A1268117C2E4A526810786B4697
:105830000222FDF7B1F810B14FF0FF30F0E79DF80C
:1058400001009DF8001040EA012000B220800020F5
:10585000E6E72DE9FE4F0746884692461D46DDF8ED
:1058600030B0002600241F4890F8240010B1601EBC
:10587000BDE8FE8F002028701A48807A10B94FF0DA
:10588000FF30F5E71748007C10B94FF0FF30EFE725
:105890001448007C00F0400008B1B01CC6B21148AA
:1058A000007C00F0200008B1B01CC6B20D48007C9E
:1058B00000F0100008B1B01CC6B20A48007C00F02D
:1058C000080008B1B01DC6B2064A1268917A054AAE
:1058D000526810786B460222FDF75EF860B14FF017
:1058E000FF30C5E74C010020000003430000834265
:1058F00033330342333383419DF801009DF8001098
:1059000040EA0129B14501DA0020B1E7FA484068D0
:105910004088B9EB600F17DDF74A1268517CF64AF0
:10592000526810786B460122FDF736F810B14FF03F
:10593000FF309DE79DF8000000F0100020B1FFF758
:105940007DF96FF0010093E75046FFF7E4FCEA4A67
:105950001268D17AE84A526810786B463246FDF7F1
:105960001BF810B14FF0FF3082E799FBF6F0401EB4
:105970008BF8000000202870B4422AD0DE48007C5A
:1059800000F0080028B3601C1DF800001DF804108A
:1059900040EA012000B2A8F80000E01C1DF8001049
:1059A000A01C1DF8000041EA002000B2A8F8020087
:1059B000601D1DF80010201D1DF8000041EA0020A8
:1059C00000B2A8F80400287840F008002870A01D54
:1059D00084B2B44213D0C848007C00F0400070B1DB
:1059E000601C1DF800001DF8041040EA012000B200
:1059F0003880287840F040002870A01C84B2B4425F
:105A000013D0BD48007C00F0200070B1601C1DF870
:105A100000001DF8041040EA012000B278802878C8
:105A200040F020002870A01C84B2B44213D0B248C9
:105A3000007C00F0100070B1601C1DF800001DF823
:105A4000041040EA012000B2B880287840F010002D
:105A50002870A01C84B200200AE7F8B504460F465F
:105A60001646A54890F8240010B94FF0FF30F8BD55
:105A7000A148807A10B94FF0FF30F8E79E4A1268CB
:105A8000917A9D4A526810786B460222FCF784FF97
:105A900010B14FF0FF30EAE79DF801009DF80010CB
:105AA00040EA0125A54203DA00203070401EDEE7FF
:105AB000914840684088B5EB600F17DD8E4A126848
:105AC000517C8D4A526810786B460122FCF764FFC6
:105AD00010B14FF0FF30CAE79DF8000000F0100051
