:020000040800F2
:10000000680B002001070008D5040008D704000889
:10001000DB040008DF040008E3040008000000001F
:10002000000000000000000000000000E7040008DD
:10003000E904000800000000EB040008ED040008DB
:100040001B0700081B0700081B0700081B07000808
:100050001B0700081B0700081B0700081B070008F8
:100060001B0700081B0700081B0700081B070008E8
:100070001B0700081B0700081B0700081B070008D8
:100080001B0700081B0700081B0700081B070008C8
:100090001B0700081B0700081B070008DF3B0008C0
:1000A0001B0700081B0700081B0700081B070008A8
:1000B0001B070008330400081B0700081B07000883
:1000C0001B0700081B0700081B0700081B07000888
:1000D0001B070008530400081B0700081B07000843
:1000E0001B0700081B0700081B0700081B07000868
:1000F0001B0700081B0700081B0700081B07000858
:100100001B0700081B0700081B0700081B07000847
:100110001B0700081B0700081B0700081B07000837
:100120001B0700081B0700081B0700081B07000827
:100130001B0700081B0700081B0700081B07000817
:100140001B0700081B0700081B0700081B07000807
:100150001B0700081B0700081B0700081B070008F7
:100160001B0700081B0700081B0700081B070008E7
:100170001B0700081B0700081B0700081B070008D7
:100180001B0700081B07000800F002F800F03CF80D
:100190000AA090E8000C82448344AAF10107DA45E2
:1001A00001D100F031F8AFF2090EBAE80F0013F0F8
:1001B000010F18BFFB1A43F001031847E057000076
:1001C00000580000103A24BF78C878C1FAD8520706
:1001D00024BF30C830C144BF04680C6070470000C1
:1001E0000023002400250026103A28BF78C1FBD840
:1001F000520728BF30C148BF0B6070471FB503F0DE
:1002000033FF1FBD10B510BD03F0FFFE1146FFF711
:10021000F5FF00F0FDF803F01DFF03B4FFF7F2FF58
:1002200003BC02F077FB000008B503F031FB9049F6
:10023000087003F0D4FB8F49087008460078022844
:1002400005D18D480088401C8B49088008E089480A
:100250000078042804D188480088401E8649088018
:100260008348007885490978884205D0804800781D
:100270008249087003F06CF87D48007810BB1023A9
:100280007FA20021084603F09BF97FA210210020E5
:1002900003F014FA10237EA21946202003F090F9EF
:1002A000102005230090744802881021322003F0AA
:1002B0003DF9102377A21946642003F081F903F079
:1002C00008F87EE06A48007801283BD1102372A22A
:1002D0000021084603F074F96BA21021002003F0FE
:1002E000EDF910236AA21946202003F069F91023C2
:1002F00068A21946642003F063F969A22021002056
:1003000003F0DCF9102362A22021084603F058F91B
:10031000102360A22021642003F052F962A2302150
:10032000002003F0CBF9102359A23021202003F044
:1003300047F910235EA23021642003F041F902F056
:10034000C8FF3EE04A48007802283AD1102359A25B
:100350000021084603F034F94BA21021002003F0DD
:10036000ADF910234AA21946202003F029F91023E1
:1003700048A21946642003F023F949A22021002055
:1003800003F09CF9102342A22021084603F018F93B
:10039000102340A22021642003F012F942A2302150
:1003A000002003F08BF9102339A23021202003F024
:1003B00007F910233EA23021642003F001F902F076
:1003C00088FF08BD10B54FF4A06000F0B9F907230D
:1003D000022208214FF4A87002F054FA4FF4E130E1
:1003E00002F0A6FAA82001F0E1FF02F027FF03F0D7
:1003F00039FA03F09BF903F053FB02F0AAFE03F075
:1004000079FB40F2473140F2E73002F0E7FA10BDE5
:10041000FFF7D8FF29A21021142003F04FF902F0B2
:1004200058FF4FF4FA6002F023F801E0FFF7FCFEFA
:10043000FCE710B50121254801F0A1FC012803D1FA
:100440000D48008802F0D1FE0121204801F0A8FCEF
:1004500010BD10B540F225511D4801F05DFF30B1CF
:100460001B4801F097FEC4B2204602F04FFC10BDBD
:1004700000000020010000200400002002000020F5
:100480006D6F646530000000CEBBD6C30000000075
:100490003A000000434D00006D6F646531000000BC
:1004A000B0EBBEB600000000D6DCC6DA00000000EB
:1004B000530000006D6F646532000000D0A1C7F2E8
:1004C000BFD8D6C6CFB5CDB30000000000040040B1
:1004D00000100140704700BFFEE700BFFEE700BF0D
:1004E000FEE700BFFEE770477047704770470000A7
:1004F0000CB50020019000907648006840F48030F0
:100500007449086000BF7348006800F40030009030
:100510000198401C0190009818B90198B0F5A04FBF
:10052000F1D16C48006800F4003010B10120009057
:1005300001E0002000900098012846D16548403035
:10054000006840F0805063494031086062480068AC
:1005500040F44040604908605E48083000685D49EA
:10056000083108600846006840F40040086008460A
:10057000006840F4A05008605848091F0860081F30
:10058000006840F08070091F086000BF5148006893
:1005900000F000700028F9D040F205705049086062
:1005A0004C480830006820F003004A4908310860D0
:1005B0000846006840F00200086000BF4548083067
:1005C000006800F00C000828F8D10CBD10B54548B3
:1005D000006840F47000434908603E48006840F0FD
:1005E00001003C49086000203A4908310860394858
:1005F00000683D490840374908603C48091D0860CB
:10060000081F006820F48020091F0860002031497D
:100610000C310860FFF76CFF4FF000603149803902
:10062000086010BD70B500200022022300240221C2
:10063000284D08352D6805F00C0020B1042806D09F
:10064000082834D107E02A4D2A4E356033E02A4D80
:10065000284E35602FE01F4D2D1D2D68C5F38054A9
:100660001C4D2D1D2D6805F03F0154B1224DB5FBE9
:10067000F1F5184E361D3668C6F3881605FB06F2EE
:1006800009E01B4DB5FBF1F5124E361D3668C6F379
:10069000881605FB06F20F4D2D1D2D68C5F301458B
:1006A0006D1C6B00B2FBF3F5124E356003E0104D8C
:1006B000104E356000BF00BF064D08352D68C5F3EC
:1006C00003150E4E705D0B4D2D68C540094E35600B
:1006D00070BD000000380240007000400854400720
:1006E000003C024088ED00E0FFFFF6FE10300024E1
:1006F0000024F4000800002000127A000C00002002
:100700000948804709480047FEE7FEE7FEE7FEE7A5
:10071000FEE7FEE7FEE7FEE7FEE7FEE704480549E1
:10072000054A064B70470000CD0500088901000806
:1007300068050020680B002068070020680700207B
:1007400032490143324A1160704770B500210023DD
:100750000F22C4781CB32E4C246804F4E064C4F562
:10076000E064C4F30721C1F10404E3B20A41447810
:100770009C40E1B28478144021430C07210E254CA3
:1007800005786155047804F01F050124AC40057814
:100790006D11AD0005F1E025C5F8004109E00478D0
:1007A00004F01F050124AC401B4D0678761145F876
:1007B000264070BD194A0A400243154B1B1F1A60A0
:1007C000704739B1124A121D12680243104B1B1DAB
:1007D0001A6006E00E4A121D126882430C4B1B1D64
:1007E0001A607047042808D14FF0E021096941F0F0
:1007F00004014FF0E022116107E04FF0E0210969A8
:1008000021F004014FF0E022116170470000FA0569
:100810000CED00E000E400E080E100E080FFFF1F5D
:10082000002041490860091D0860091D0860091D74
:1008300008603E483C4914310860704700213A493D
:100840008279002A3AD00A46126803689A430B4616
:100850001A600A1D126803689A430B1D1A60027918
:1008600011440A6803681A430A602F4A0832126862
:1008700003689A432C4B08331A601A1D12680368E8
:100880009A43294B0C331A604279102A0ED11A1F51
:10089000126803681A43244B08331A601A1D126841
:1008A00003681A43204B0C331A600DE01E4942794D
:1008B00011440A6803681A430A6005E0027911448A
:1008C0000A6803689A430A60704700210160017159
:1008D0000C21417100218171704713491031096861
:1008E0000143114A103211607047014600200E4A40
:1008F000143212680A400AB1012000E0002070475B
:10090000094914310860704701460020064A143234
:1009100012680A400AB1012000E000207047024935
:100920001431086070470000003C0140FFFF7F0069
:1009300010B504469848844208D10121084600F0C9
:1009400086FB0021012000F082FB76E09348844280
:1009500008D10121022000F07AFB0021022000F0E2
:1009600076FB6AE08E48844208D10121042000F021
:100970006EFB0021042000F06AFB5EE0894884429F
:1009800008D10121082000F062FB0021082000F0BE
:100990005EFB52E08448844208D10121102000F01F
:1009A00056FB0021102000F052FB46E07F488442B5
:1009B00008D10121202000F04AFB0021202000F076
:1009C00046FB3AE07A48844208D10121402000F0F9
:1009D0003EFB0021402000F03AFB2EE075488442A7
:1009E00008D10121802000F032FB0021802000F09E
:1009F0002EFB22E07048844208D10121801500F0CE
:100A000026FB0021A01500F022FB16E06B48844273
:100A100008D10121401500F01AFB0021601500F0FB
:100A200016FB0AE06648844207D10121001500F058
:100A30000EFB0021201500F00AFB10BDF0B50A46A0
:100A400000210023002400BF3DE0012505FA01F349
:100A5000156805EA03049C4234D105684F0003265B
:100A6000BE40B543056015794E00B5400668354374
:100A700005601579012D02D01579022D16D18568F2
:100A80004F000326BE40B543856055794E00B54002
:100A9000866835438560456801268E40B5434560CC
:100AA000456896798E40B6B235434560C5684F00BB
:100AB0000326BE40B543C560D5794E00B540C66833
:100AC0003543C560491C1029BFD3F0BD4FF6FF71F7
:100AD00001600021017141718171C171704708B5D8
:100AE0004FF480320092009A0A430092009AC26149
:100AF000C161009AC261C2690092C269009208BDD8
:100B00000246002013690B400BB1012000E00020D9
:100B100070470146086980B2704702460020536959
:100B20000B400BB1012000E00020704701464869EE
:100B300080B2704701837047418370470AB10183D7
:100B400000E0418370474161704742694A40426119
:100B50007047F0B5002300244D07ED0E02FA05F3AF
:100B6000CE1000F1200555F826504E07F70E0F263F
:100B7000BE40B543CF1000F1200646F82750CE10F6
:100B800000F1200555F8265045EA0304CE1000F187
:100B9000200545F82640F0BD000002400004024058
:100BA00000080240000C0240001002400014024005
:100BB00000180240001C02400020024000240240B5
:100BC00000280240F948006840F00100F749086039
:100BD0000020F64908310860F4480068F4490840EC
:100BE000F2490860F348091D0860F348EF49843171
:100BF0000860F0481038091D0860EC48006820F4CF
:100C00008020EA4908600020E8490C310860E74983
:100C10008C31086070470021E44A921C1170114623
:100C20000870704710B501460022002300204A11C9
:100C3000012A02D1DD4C236808E0022A03D1DB4CF3
:100C40007034236802E0D94C7434236801F01F0229
:100C5000012494401C400CB1012000E0002010BD94
:100C600038B5002000900024002500BF3120FFF798
:100C7000D9FF05460098401C00900098B0F5A04FA1
:100C800001D0002DF2D03120FFF7CCFF08B10124B4
:100C900000E00024204638BD01460020C34A106809
:100CA00020F0F80040EAC10010607047C3490860B6
:100CB00070470021BD4A703211701170012802D0B6
:100CC00004280AD104E00121B84A7032117005E00D
:100CD0000521B64A7032117000E000BF00BF7047B6
:100CE000B7490860704770B5049C41EA8215012637
:100CF000C6EB530645EA0645054345EA0465AB4E97
:100D0000361D356070BDAD4908667047820142EA04
:100D10000172A64B84331A607047A84988667047F1
:100D200010B5830143EA016343EA02739F4C8834A0
:100D3000236010BDA14908677047A049C864704787
:100D400002460020994B0833186820F0EC6042EA14
:100D500001031843954B0833186070470246002082
:100D6000924B0833186820F0784042EA0103184398
:100D70008E4B083318607047014600208B4A0832BA
:100D8000106820F00300084310607047874808305F
:100D9000006800F00C00704701460020834A0832CA
:100DA000106820F0F00008431060704701460020F2
:100DB0007E4A0832106820F4E05008431060704703
:100DC00001460020794A0832106820F4604040EA69
:100DD000C10010607047F0B50021002200240225F8
:100DE00000260223714F08373F6807F00C0121B13C
:100DF000042905D0082937D105E0724F076036E095
:100E0000714F076033E0694F3F1D3F68C7F380565D
:100E1000664F3F1D3F6807F03F036EB16A4FB7FB57
:100E2000F3F7DFF888C10CF1040CDCF800C0CCF358
:100E3000881C07FB0CF40CE0624FB7FBF3F7DFF8FC
:100E40006CC10CF1040CDCF800C0CCF3881C07FB6F
:100E50000CF4564F3F1D3F68C7F301477F1C7D00D0
:100E6000B4FBF5F7076002E0564F076000BF00BF14
:100E70004E4F08373F6807F0F0010909534F7A5C7D
:100E80000768D7404760494F08373F6807F4E0518B
:100E9000890A4E4F7A5C4768D7408760434F0837CE
:100EA0003F6807F46041490B484F7A5C4768D74078
:100EB000C760F0BD002100F44072B2F5407F0AD156
:100EC0003A4A0832116821F4F811414A02401143AC
:100ED000364A08321160354A70321268C0F30B038B
:100EE0001A43324B70331A607047354944390860F1
:100EF0007047334940390860704736490860704789
:100F000001460020294A8C32106820F01F004A1E3A
:100F10001043264A8C321060704701460020234A55
:100F20008C32106820F4F8504A1E40EA02201F4A12
:100F30008C3210607047014600201C4A8C321068C9
:100F400020F4401008431060704701460020174A03
:100F50008C32106820F4400008431060704701464E
:100F60000020124A8C32106820F440300843106090
:100F7000704719490860704739B10C4A303212681D
:100F800002430A4B30331A6006E0084A30321268D6
:100F90008243064B30331A607047F9B1034A34324A
:100FA00012680243014B34331A601CE000380240DF
:100FB000FFFFF6EA10300024003000200000474216
:100FC000800E47420024F40000127A001C0000202A
:100FD000FFFCFF0F5C014742E01147428F4A126855
:100FE00082438E4B1A60704739B18C4A121D1268C9
:100FF00002438A4B1B1D1A6006E0884A121D1268C4
:101000008243864B1B1D1A60704739B1834A0C32EC
:1010100012680243814B0C331A6006E07F4A0C329F
:10102000126882437D4B0C331A60704739B17B4A9A
:10103000103212680243794B10331A6006E0774A87
:10104000103212688243754B10331A60704739B101
:10105000724A243A12680243704B243B1A6006E03D
:101060006E4A243A126882436C4B243B1A607047E4
:1010700039B16A4A203A12680243684B203B1A6031
:1010800006E0664A203A12688243644B203B1A60AD
:10109000704739B1614A1C3A126802435F4B1C3BEE
:1010A0001A6006E05D4A1C3A126882435B4B1C3BA7
:1010B0001A60704739B1594A143A12680243574BC3
:1010C000143B1A6006E0554A143A12688243534BA7
:1010D000143B1A60704739B1504A103A1268024303
:1010E0004E4B103B1A6006E04C4A103A126882439D
:1010F0004A4B103B1A60704739B1484A1C3212689B
:101100000243464B1C331A6006E0444A1C32126804
:101110008243424B1C331A60704739B13F4A203238
:10112000126802433D4B20331A6006E03B4A2032EE
:1011300012688243394B20331A60704739B1374AFD
:10114000243212680243354B24331A6006E0334AD6
:10115000243212688243314B24331A60704739B10C
:101160002E4A2C32126802432C4B2C331A6006E0B4
:101170002A4A2C3212688243284B2C331A6070475B
:1011800039B1264A303212680243244B30331A6098
:1011900006E0224A303212688243204B30331A6014
:1011A0007047012808D11D493C31096841F0080108
:1011B0001A4A3C32116007E018493C31096821F0B5
:1011C0000801164A3C321160704739B1134A273A78
:1011D00012780243114B273B1A7006E00F4A273A58
:1011E000127882430D4B273B1A7070470B484030F2
:1011F000006840F08070094940310860704701463E
:101200000020064A283A12680A400AB1012000E08C
:101210000020704701492639087070473438024071
:1012200010B501218803FFF756FF00214FF48040DD
:10123000FFF751FF10BD1C49086070471B49086249
:10124000704730B500228B071C0F0F2303FA04F2FE
:10125000154B08338C1053F824309343124C083448
:101260008D1044F8253023468C1053F824308C0719
:10127000240F00FA04F423430B4C08348D1044F877
:10128000253030BD0949DC310860704708490860E5
:101290007047002004492031096801F4807109B1C8
:1012A000012000E000207047003801400000274284
:1012B0000004274210B50446FE48844208D10121AB
:1012C0000846FFF708FF00210120FFF704FF9DE01B
:1012D000B4F1804F08D101210846FFF7EBFE002151
:1012E0000120FFF7E7FE91E0F348844208D1012195
:1012F0000220FFF7DFFE00210220FFF7DBFE85E082
:10130000EE48844208D101210420FFF7D3FE0021DA
:101310000420FFF7CFFE79E0E948844208D101219B
:101320000820FFF7C7FE00210820FFF7C3FE6DE08D
:10133000E448844208D101211020FFF7BBFE0021C0
:101340001020FFF7B7FE61E0DF48844208D1012199
:101350002020FFF7AFFE00212020FFF7ABFE55E075
:10136000DA48844208D101210220FFF7B4FE0021AF
:101370000220FFF7B0FE49E0D548844209D101219F
:101380000804FFF7A8FE00214FF48030FFF7A3FE0A
:101390003CE0D048844209D101214804FFF79BFE7C
:1013A00000214FF40030FFF796FE2FE0CA48844238
:1013B00009D101218804FFF78EFE00214FF480201F
:1013C000FFF789FE22E0C548844208D10121402070
:1013D000FFF770FE00214020FFF76CFE16E0C048CA
:1013E000844208D101218020FFF764FE0021802083
:1013F000FFF760FE0AE0BB48844207D10121801557
:10140000FFF758FE0021A015FFF754FE10BD002283
:101410000288A84B98420ED0AC4B98420BD0B0F14A
:10142000804F08D0A44B984205D0A44B984202D0DC
:10143000A34B984204D14FF68F731A404B881A433E
:10144000A04B984207D0A04B984204D04FF6FF43E0
:101450001A400B891A4302804B68C3620B880385CC
:10146000944B984202D0994B984201D18B7A0386D3
:101470000123838270474FF0FF31416000210180DA
:1014800001814180817270470185828270470A46DE
:10149000002101884FF68F73194011430180704776
:1014A00041627047C16270470146486A7047014611
:1014B000088D704721B1028842F00202028004E0E8
:1014C00002884FF6FD731A400280704721B10288EE
:1014D00042F00402028004E002884FF6FB731A40D7
:1014E0000280704721B1028842F08002028004E04D
:1014F00002884FF67F731A400280704702884FF6C9
:10150000F7731A40028002880A43028070470288FB
:101510004FF6FF431A40028002880A430280704758
:1015200021B1028842F00102028004E002884FF6F5
:10153000FE731A400280704770B500240022002319
:10154000058C4FF6FE7635400584028C8388048B2B
:101550004FF68F752C40B51E2C400D882C43751E00
:101560002A408D892A434D882A43524DA84202D0F1
:10157000564DA84213D14FF6F7752A40CD892A431C
:101580004FF6FB752A408D882A434FF6FF652B40A6
:101590004FF6FF552B400D8A2B434D8A2B438380FA
:1015A00004838D684563028470BD70B500240022F9
:1015B0000023058C4FF6EF7635400584028C838836
:1015C000048B48F6FF752C404FF6FF452C400D88E4
:1015D0004FF6FF7606EA05252C434FF6DF752A40C5
:1015E0008D8906EA05152A434D8806EA05152A4322
:1015F000304DA84202D0354DA8421DD14FF67F751F
:101600002A40CD894FF6FF7606EA05152A434FF6A4
:10161000BF752A408D8806EA05152A434FF6FF3527
:101620002B404FF2FF752B400D8A06EA85052B43B0
:101630004D8A06EA85052B43838004838D68856384
:10164000028470BD70B5002400220023058C4FF683
:10165000FF6635400584028C8388848B4FF68F7536
:101660002C404FF6FC752C400D882C434FF6FF554F
:101670002A408D894FF6FF7606EA05252A434D88D4
:1016800006EA05252A430B4DA84202D00F4DA84279
:1016900038D14FF2FF752A40CD894FF6FF7606EA22
:1016A00005252A434FF6FF352A408D8806EA052591
:1016B0002A4319E0000001400004004000080040F7
:1016C000000C0040001000400014004000040140E5
:1016D0000040014000440140004801400018004023
:1016E000001C0040002000404EF6FF752B404DF6D8
:1016F000FF752B400D8A06EA05152B434D8A06EA35
:1017000005152B43838084838D68C563028470BD77
:1017100070B5002200230024058C4EF6FF7635407C
:101720000584038C8488828B48F6FF752A404FF627
:10173000FF452A400D884FF6FF7606EA05252A4325
:101740004DF6FF752B408D8906EA05352B434D88F4
:1017500006EA05352B43FE4DA84202D0FD4DA842B6
:1017600008D14BF6FF752C400D8A4FF6FF7606EA3E
:1017700085152C43848082838D680564038470BD45
:10178000002101804180818081608181C18101824D
:101790004182704770B50346002000241846183077
:1017A00001258D40ACB21D8CA5431D8409B10829CB
:1017B0000AD100EB610005684FF68F763540056071
:1017C0000568154305600FE00D1FC5F34E0528445D
:1017D000056848F6FF763540056005684FF6FF76E8
:1017E00006EA02263543056070BD41637047816398
:1017F0007047C1637047016470470A460021018B3E
:101800004FF68F7319401143018370470A46002138
:10181000018B48F6FF7319404FF6FF7303EA02236A
:101820001943018370470A460021818B4FF68F735D
:1018300019401143818370470A460021818B48F685
:10184000FF7319404FF6FF7303EA022319438183A4
:1018500070470A460021018B4FF6F7731940114378
:10186000018370470A460021018B4FF2FF73194034
:101870004FF6FF7303EA02231943018370470A46B8
:101880000021818B4FF6F773194011438183704714
:101890000A460021818B4FF2FF7319404FF6FF7308
:1018A00003EA02231943818370470A460021018B12
:1018B0004FF6FB7319401143018370470A4600211C
:1018C000018B4FF6FF3319404FF6FF7303EA0223F3
:1018D0001943018370470A460021818B4FF6FB7341
:1018E00019401143818370470A460021818B4FF6CE
:1018F000FF3319404FF6FF7303EA02231943818334
:1019000070470A460021018B4FF67F73194011433F
:10191000018370470A460021018BC1F30E014FF687
:10192000FF7303EA02231943018370470A4600212B
:10193000818B4FF67F7319401143818370470A46AC
:101940000021818BC1F30E014FF6FF7303EA0223DE
:101950001943818370470A460021018C4FF6FD73BD
:1019600019401143018470470A460021018C4FF64B
:10197000F77319401143018470470A460021018C16
:101980004FF6DF7319404FF6FF7303EA0213194352
:10199000018470470A460021018C4FF67F7319407D
:1019A0004FF6FF7303EA02131943018470470A4696
:1019B0000021018C4FF6FF5319404FF6FF7303EAE5
:1019C00002231943018470470A460021018C4FF21B
:1019D000FF7319404FF6FF7303EA02231943018492
:1019E00070470A460021018C4DF6FF7319404FF6EF
:1019F000FF7303EA023319430184704730B50023B3
:101A000001248C40A3B2048C9C430484048C02FA0D
:101A100001F5ADB22C43048430BD30B5002304245D
:101A20008C40A3B2048C9C430484048C02FA01F51C
:101A3000ADB22C43048430BD828B4FF2FF331A4089
:101A40008283828B4FF6FF7303EA01231A4382835A
:101A50007047F0B50C461546002100220026078C81
:101A60004EF6FF7C07EA0C070784818B028C4FF649
:101A7000FF7707EA043640F6FF4739404FF6FF7715
:101A800007EA052739434FF6FF7707EA033739435B
:101A900045F6FF773A4046F480573A438183028403
:101AA000F0BD828B4FF6F3731A408283828B0A4318
:101AB00082837047F0B50C461546002100220026AF
:101AC000078C4FF6FF6C07EA0C070784818B028CAA
:101AD0004FF6FF7707EA04264FF60C7739404FF6AA
:101AE000FF7707EA03172F4339434FF2FF573A4076
:101AF00046F480773A4381830284F0BD028B4FF233
:101B0000FF331A400283028B4FF6FF7303EA01236F
:101B10001A4302837047F0B50C4615460021002297
:101B20000026078C4FF6EF7C07EA0C070784018B31
:101B3000028C4FF6FF7707EA041640F6FF4739405C
:101B40004FF6FF7707EA033739434FF6FF7703E095
:101B5000000001400004014007EA052739434FF621
:101B60005F773A4046F010073A4301830284F0BDA4
:101B7000028B4FF6F3731A400283028B0A430283EF
:101B80007047F0B50C46154600210022068C4FF632
:101B9000FE773E400684018B028C4FF60C76314076
:101BA0007E1C06EA03162E4331434FF6F57632408B
:101BB00044F00106324301830284F0BD70B505464E
:101BC0000C46208850B92389A28861882846FFF7EF
:101BD000D8FFE1882846FFF7CBFF25E020880428BE
:101BE0000AD12389A28861882846FFF794FFE188FB
:101BF0002846FFF783FF17E0208808280AD12389A9
:101C0000A28861882846FFF755FFE1882846FFF73C
:101C100048FF09E02389A28861882846FFF719FF59
:101C2000E1882846FFF708FF70BD00210180418050
:101C3000012181800021C180018170472DE9F0419F
:101C400005460C4600260127608808B9022600E0F8
:101C50000026A088012801D1022700E00127208862
:101C6000A0B92389A28861882846FFF78AFFE18806
:101C70002846FFF77DFF23893A4631462846FFF77D
:101C80004AFFE1882846FFF739FF13E02389A2883D
:101C900061882846FFF73FFFE1882846FFF72EFFBF
:101CA00023893A4631462846FFF76BFFE1882846EC
:101CB000FFF75EFFBDE8F0810146486B70470146C3
:101CC000886B70470146C86B70470146086C7047C7
:101CD0000A884B881A438B881A43CB881A430B898E
:101CE0001A434B891A438B891A43A0F84420704742
:101CF0000021018041808180C180018141818181F9
:101D0000704731B1B0F8442042F40042A0F84420BA
:101D100005E0B0F84420C2F30E02A0F8442070475A
:101D200021B1828842F00402828004E082884FF66A
:101D3000FB731A408280704721B1828842F0010211
:101D4000828004E082884FF6FE731A4082807047DA
:101D50001AB183890B43838102E083898B4383819A
:101D600070478182704702460020138A0B400BB1F6
:101D7000012000E000207047CA430282704730B55E
:101D80000246002000230024158A05EA01039589F4
:101D900005EA010413B10CB1012000E0002030BDC0
:101DA000CA430282704741EA0203A0F848307047F4
:101DB0001AB183890B43838102E083898B4383813A
:101DC000704721B1828842F00802828004E0828854
:101DD0004FF6F7731A408280704701894FF6F87208
:101DE0001140018170470A46002101894FF68F7327
:101DF000194011430181704730B504460D4629460C
:101E00002046FFF7F0FF208940F00700208130BD19
:101E10002DE9F04104460D4616461F46602D06D1B9
:101E20003B46012231462046FFF775FE05E03B4662
:101E3000012231462046FFF7A4FE29462046FFF73F
:101E4000D2FF208940F007002081BDE8F08130B545
:101E50000C4600210189C9B24FF6FF7505EA03253A
:101E6000154325432943018130BD2DE9F041054645
:101E70000E4617469846002443463A4631462846C1
:101E8000FFF7E5FF2C894FF6F870044044F0070493
:101E90004FF68F70044044F070042C81BDE8F0814F
:101EA000F0B504460D4616461F463B4632462946C7
:101EB0002046FFF7CCFF208940F480402081F0BD10
:101EC00082884FF68F731A40828082880A4382800C
:101ED000704702894FF6F8731A40028102890A435B
:101EE0000281704702894FF67F731A40028102898E
:101EF0000A4302817047F0B50C4615461E46002184
:101F0000002200230189028B038C4FF6F8773940B9
:101F100021434FF6FC473A4040F201173A434FF64F
:101F2000DD773B404FF6FF7707EA06172F433B4329
:101F3000018102830384F0BD21B1828842F08002D6
:101F4000828004E082884FF67F731A408280704757
:101F5000A0F850107047000010B50446FA488442BB
:101F600008D101211020FFF7B6F800211020FFF75B
:101F7000B2F857E0F548844209D101214804FFF73F
:101F800099F800214FF40030FFF794F84AE0F04848
:101F9000844209D101218804FFF78CF800214FF415
:101FA0008020FFF787F83DE0EA48844209D101210B
:101FB000C804FFF77FF800214FF40020FFF77AF8FC
:101FC00030E0E548844209D101210805FFF772F8A5
:101FD00000214FF48010FFF76DF823E0DF488442C2
:101FE00008D101212020FFF776F800212020FFF7FB
:101FF00072F817E0DA48844209D101218807FFF717
:1020000059F800214FF08040FFF754F80AE0D54816
:10201000844207D101214005FFF74CF800216005FB
:10202000FFF748F810BD2DE9FF4705460E4600248E
:10203000A14600BFA046B08900B100BF2C8A24F49D
:102040004054F08804432C82AC8941F20C608443F4
:10205000B08831890843718908430443AC81AC8A54
:1020600024F44074B0890443AC826846FEF7B3FEA2
:10207000B548854202D0B948854202D1DDF80C90BE
:1020800001E0DDF80890A88900F4004040B109EBB8
:10209000C90000EB091031684900B0FBF1F707E017
:1020A00009EBC90000EB091031688900B0FBF1F7BA
:1020B0006420B7FBF0F004012009642101FB1078D3
:1020C000A88900F4004040B1322000EBC800B0FB0A
:1020D000F1F000F00700044308E0322000EB0810A4
:1020E0006421B0FBF1F000F00F0004432C81BDE847
:1020F000FF874FF41651016000218180C18001816A
:102100000C21418100218181704710B502460020D9
:10211000108A20F470600B884C8823438C882343FA
:10212000CC8823431843108210BD002101804180D8
:102130008180C180704721B1828942F4005282813E
:1021400004E082894DF6FF731A4082817047028B4A
:1021500002F47F420283028B0A430283704721B15B
:10216000828942F40042828103E08289C2F30E0236
:102170008281704721B1828A42F40062828204E047
:10218000828A4FF2FF731A4082827047C1F30802BD
:102190008280704701468888C0F308007047028A31
:1021A0004FF6F0731A400282028A0A430282704795
:1021B00021B1828942F00202828104E082894FF6D5
:1021C000FD731A408281704782894FF2FF731A4073
:1021D000828182890A4382817047028A4FF6DF73C7
:1021E0001A400282028A0A430282704721B1028A9F
:1021F00042F48042028204E0028A4BF6FF731A40E6
:1022000002827047818941F001018181704721B1CB
:10221000828A42F00802828204E0828A4FF6F773D3
:102220001A4082827047028BD2B20283028B42EA4A
:1022300001220283704721B1828A42F02002828209
:1022400004E0828A4FF6DF731A408282704721B120
:10225000828A42F01002828204E0828A4FF6EF7393
:102260001A4082827047828A4FF6FB731A4082823C
:10227000828A0A438282704721B1828A42F0020236
:10228000828204E0828A4FF6FD731A408282704790
:102290001AB1838A0B43838202E0838A8B43838251
:1022A0007047F0B50346002400260025002040F6C4
:1022B0006A17B94200D100BF1846C1F3421401F0B9
:1022C0001F06012707FA06F5012C01D10C3004E0A6
:1022D000022C01D1103000E014301AB107682F43EE
:1022E000076002E00768AF430760F0BD02460020C8
:1022F000B1F5007F00D100BF13880B400BB1012066
:1023000000E00020704701F40072B2F5007F00D1B8
:1023100000BFCA430280704770B502460024002304
:102320000025002040F66A16B14200D100BFC1F37B
:10233000421501F01F03012606FA03F3012D13D104
:102340009689334017E0000000100140004400402F
:1023500000480040004C0040005000400014014084
:1023600000780040007C0040022D02D1168A3340E4
:1023700001E0968A33400C12012606FA04F416880E
:10238000344013B10CB1012000E0002070BD10B545
:102390000022002340F66A14A14200D100BF0A12B5
:1023A00001249440A3B2DC43048010BD10B5044660
:1023B0006FF00400FEF716FAE11704EB5171C1F358
:1023C000C701394A11701046007800EB4001C1EB9B
:1023D000C0104FF6FF7101EAC0003449088010BDFB
:1023E0000146314A12784A434FF0E0235A610022F5
:1023F0009A611A46126942F001021A6100BF4FF059
:10240000E022106900F001021AB100F48032002AC3
:10241000F5D04FF0E022126922F001024FF0E023E4
:102420001A6100229A6170470146204A12884A4385
:102430004FF0E0235A6100229A611A46126942F075
:1024400001021A6100BF4FF0E022106900F00102A2
:102450001AB100F48032002AF5D04FF0E022126960
:1024600022F001024FF0E0231A6100229A617047C6
:1024700070B504464FF4077094FBF0F0C6B24FF409
:10248000077094FBF0F100FB114085B205E04FF4BA
:102490000770FFF7C9FF701EC6B2002EF7D115B145
:1024A0002846FFF7C1FF70BD2C0000202E00002041
:1024B0004A0A52020243FE4B1A6070470146072344
:1024C00023EA01021202FA4B1B1D18684FF6FF03A4
:1024D0001840F84B18431043F54B1B1D186070470C
:1024E0002DE9F0410746884614461D462846FFF769
:1024F000E5FFC5F1040007FA00F60F20284100EAC5
:102500000800064306F00F06E21704EBD2625211F0
:10251000920002F1E022D2F800212146E31704EBF9
:10252000D3635B11A4EB431C012303FA0CF31A439E
:102530002046E31704EBD3635B119B0003F1E02318
:10254000C3F80021DC48005D40EA0610DA4908556E
:10255000BDE8F081F0B503460846CD1701EB95754F
:10256000AD10A1EB8505AD062C0ED448006840F4F3
:102570008040D24D2860CD1701EB9575AE10D04D3F
:1025800055F826500F26A640B5430846CE1701EB56
:102590009676B710CA4E46F82750CD1701EB9575C1
:1025A000AE10C74D55F8265003FA04F63543CE1742
:1025B00001EB9676B710C24E46F82750C148006826
:1025C00001258D402843BF4D286002F0010040B135
:1025D000BC480C30006801258D402843B94D0C35AE
:1025E000286002F0020040B1B648083000680125BA
:1025F0008D402843B34D08352860F0BD30B5CC1070
:1026000000F1200353F824304C07E50E0F24AC40B2
:10261000A343CD1000F1200444F82530CC1000F184
:10262000200353F824304C07E40E02FA04F4234349
:10263000CD1000F1200444F8253030BD2DE9F047DD
:102640000C46DDE90867002100258C4600BF60E0EC
:102650004FF0010808FA01F504EA050CAC4557D122
:10266000D0F800804FEA410A4FF0030909FA0AF94D
:1026700028EA0908C0F80080D0F800804FEA410934
:1026800002FA09F948EA0908C0F80080012A01D0D5
:10269000022A27D1D0F808804FEA410A4FF00309F7
:1026A00009FA0AF928EA0908C0F80880D0F8088071
:1026B0004FEA410906FA09F948EA0908C0F8088012
:1026C000D0F804904FF0010808FA01F829EA080947
:1026D000C0F80490D0F8048003FA01F948EA090828
:1026E000C0F80480D0F80C804FEA410A4FF003098B
:1026F00009FA0AF928EA0908C0F80C80D0F80C8019
:102700004FEA410907FA09F948EA0908C0F80C80BC
:10271000491C10299CD3BDE8F08730BF704772B6C2
:10272000704762B6704700B561480830006840F0F5
:1027300004005F49083108606048001F006840F0ED
:1027400080505E49091F08605F48406840F480700F
:102750005D4948600846006840F00400086008468B
:10276000006840F002000860FFF7D7FF00BD514845
:10277000001D4F49091D08607047F0B504460D461D
:10278000002100204D4E443E366846F480364B4FC3
:10279000443F3E6001E04E1CB1B2484E443E3668B4
:1027A00006F400361EB941F6FF76B142F3DB41F67E
:1027B000FF76B14201D1012063E0404E361F3668FA
:1027C00046F080563D4F3F1F3E603F4E366846F410
:1027D00040463D4F3E60394E3C3E366846F4144616
:1027E000364F3C3F3E60354E443E366826F080769C
:1027F000324F443F3E6045EA84160127C7EB52073B
:1028000046EA074646EA036646F480062B4F403FF9
:102810003E603E1F366846F080763F1F3E6000BF38
:10282000264E443E366806F00076002EF8D0274E3D
:10283000366846F48076254F3E603E46366846F45C
:1028400000763E603E46366846F480663E603E4610
:10285000366846F005063E60184E3C3E366826F067
:102860000306164F3C3F3E603E46366846F0020681
:102870003E6000BF114E3C3E366806F00C06082E46
:10288000F8D1F0BDF0B504460D4616461F460B487C
:102890004438006840F001000849443908600020CD
:1028A00006493C390860054844380068084911E089
:1028B00008ED00E00000FA0500E400E044380240C2
:1028C00008380140003C014000700040003C0240DC
:1028D000FFFFF6FE08400D4908600D48091D08601D
:1028E000081F006820F48020091F086000200749A5
:1028F0000C3108603B46324629462046FFF73DFF33
:1029000000210846FFF7D4FDF0BD0000003802406A
:1029100010300024014600BF704700BF2D4A1288C6
:1029200002F04002002AF9D0C2B22A4B9A807047C6
:1029300010B588B0044601210846FEF71DFB0121B1
:102940001020FEF773FB072209212348FEF701F947
:1029500007220A212048FEF7FCF84FF4C0600690D9
:1029600002208DF81C008DF81D0000208DF81E003F
:1029700001208DF81F0006A91748FEF75FF80294A2
:102980000020ADF80C00ADF80E00ADF81000ADF869
:1029900014000C20ADF8120025208DF80400012051
:1029A0008DF805008DF806008DF8070001A8FDF7E9
:1029B000CCFE02A90748FFF736FB012240F2255161
:1029C0000448FFF76EFC01210248FFF7B4FB08B092
:1029D00010BD000000100140000002407FB5054618
:1029E0000C4601210220FEF710FB0295ADF80440D1
:1029F0000020ADF80600ADF80C0001A90D48FEF767
:102A000006FD012211460B48FFF7A2F901210948F2
:102A1000FEF786FD1D208DF8000002208DF80100D4
:102A200003208DF8020001208DF803006846FDF7B1
:102A30008CFE7FBD0004004010B5044600BF40215D
:102A4000E848FFF753FC0028F9D02146E548FFF796
:102A50009DFB10BDF0B589B006460F4615461C2DEE
:102A600001DD09B0F0BD002101AA281D1154AA20E2
:102A70008DF804008DF805008DF806608DF807507C
:102A8000002405E0395D201D01AA1154601CC4B268
:102A9000AC42F7DB00240AE001A9281D085C095DAF
:102AA0000844C1B201AA281D1154601CC4B2281DDB
:102AB0008442F1DB002405E001A9085DFFF7BCFFBB
:102AC000601CC4B2681D8442F6DB00BFC9E72DE973
:102AD000F04385B004460D4617461E46DDE90C89D5
:102AE000200A8DF80000E0B28DF80100280A8DF868
:102AF0000200E8B28DF80300380A8DF80400F8B23D
:102B00008DF80500300A8DF80600F0B28DF8070048
:102B10004FEA18208DF8080008F0FF008DF8090032
:102B20004FEA19208DF80A0009F0FF008DF80B001C
:102B300000208DF80C008DF80D008DF80E008DF83A
:102B40000F008DF810008DF8110012226946022046
:102B5000FFF780FF05B0BDE8F083FEB504460D46E3
:102B60001646002704E000200DF80700781CC7B2C5
:102B70000C2FF8DB200A8DF80000E0B28DF8010080
:102B8000280A8DF80200E8B28DF80300300A8DF8AB
:102B90000400F0B28DF8050000208DF806008DF8D5
:102BA00007008DF808008DF809008DF80A00012053
:102BB0008DF80B000C226946FFF74CFFFEBD2DE996
:102BC000FF4107460C4615461E46380A8DF80000A0
:102BD000F8B28DF80100200A8DF80200E0B28DF8FD
:102BE0000300280A8DF80400E8B28DF80500300AC9
:102BF0008DF80600F0B28DF8070000208DF808006F
:102C00008DF809008DF80A008DF80B008DF80C0086
:102C10008DF80D008DF80E008DF80F00102269461A
:102C20000620FFF717FFBDE8FF812DE9FF410546AC
:102C30000E46002700248DF800508DF8016000BF7B
:102C400005E01DF804003844C7B2601CC4B2062C6D
:102C5000F7DB8DF8027007226946EF20FFF7FAFED6
:102C6000BDE8FF812DE9F04104460D46002600270E
:102C700000BF04E0E05D3044C6B2781CC7B2681EF5
:102C8000B842F7DC601910F8010CB04201D0BDE881
:102C9000F0812078AA2802D16078AF2800D0F6E72A
:102CA000A078012806D12079012803D120790228B3
:102CB00000D100BFA078102803D1A0783146FFF7DB
:102CC000B4FFA078112803D1A0783146FFF7ADFFFB
:102CD000A078122803D1A0783146FFF7A6FFA0788C
:102CE000132803D1A0783146FFF79FFFA07814285E
:102CF00003D1A0783146FFF798FFA078152803D1BB
:102D0000A0783146FFF791FF00BFC0E710B5044639
:102D10003548007838B9AA2C05D10120324908700D
:102D2000324804705DE030480078012807D1AF2CAC
:102D300005D102202C4908702C48447051E02A48E3
:102D40000078022807D1F12C05DA03202649087003
:102D50002648847045E02448007803280CD1322CA2
:102D60000ADA0420204908702048C4702048047002
:102D700000202049087034E01B480078042819D14D
:102D80001B480078002815DD19480078401E1849B6
:102D900008701848007817490978491C154A1170BD
:102DA000001D12490C5412480078D0B905200E4974
:102DB000087016E00C48007805280FD100200A4959
:102DC00008700C480078001D08490C540948007828
:102DD000401DC1B20548FFF745FF02E0002002494F
:102DE000087010BD00100140320000209800002043
:102DF000300000203100002070B58AB0064600BFC8
:102E000042F2107006FB00F407A8FEF734FB02A89C
:102E1000FEF7B6FC01210820FEF7F7F80121022099
:102E2000FEF704F901210846FEF700F901211520FB
:102E3000FEF7A2F80C20009002208DF80400032079
:102E40008DF8050000208DF8060001208DF80700A0
:102E50006946F248FDF7F2FD02220021EF48FDF736
:102E600078FE02220121ED48FDF773FE0222114691
:102E7000EA48FDF76EFE02220321E848FDF769FEED
:102E8000E74800684008B0FBF4F0401E85B242F20B
:102E900010700890ADF81C500020ADF82400ADF87B
:102EA0001E0007A9DF48FEF7B2FA6020ADF808005F
:102EB0000020ADF814000120ADF80A0041F288307E
:102EC000049002A9D748FEF7BDFB0821D548FEF7BC
:102ED000D6FC0120ADF80A0041F28830049002A926
:102EE000D048FEF715FC0821CE48FEF7D1FC0121A1
:102EF000CC48FEF7F7FA0121CA48FEF711FB4FF460
:102F0000D440009002208DF8040003208DF80500C5
:102F100000208DF8060001208DF807006946C248A0
:102F2000FDF78CFD01220921BF48FDF712FE0122A9
:102F30000B21BD48FDF70DFE01220D21BA48FDF71A
:102F400008FE01220E21B848FDF703FEB4480068D0
:102F5000B0FBF4F0401E85B242F210700890ADF85C
:102F60001C500020ADF82400ADF81E008DF826009E
:102F700007A9AE48FEF74BFA6020ADF80800002024
:102F8000ADF80C00ADF814000820ADF816004001B3
:102F9000ADF818000020ADF81A000120ADF80A00C5
:102FA00041F28830049002A9A048FEF7C5FA082132
:102FB0009E48FEF74EFC0120ADF80A0041F2883031
:102FC000049002A99948FEF7F0FA08219748FEF705
:102FD00049FC0120ADF80A0041F28830049002A9B2
:102FE0009248FEF72FFB08219048FEF748FC01208D
:102FF000ADF80A0041F28830049002A98B48FEF730
:1030000087FB08218948FEF743FC01218748FEF72A
:1030100078FE01218548FEF765FA01218348FEF715
:103020007FFA4FF44070009002208DF804000320D6
:103030008DF8050000208DF8060001208DF80700AE
:1030400069467B48FDF7FAFC032208217848FDF722
:1030500080FD032209217648FDF77BFD704800685A
:10306000B0FBF4F0401E85B242F210700890ADF84B
:103070001C500020ADF82400ADF81E008DF826008D
:1030800007A96C48FEF7C3F96020ADF808000020DE
:10309000ADF80C00ADF814000820ADF816004001A2
:1030A000ADF818000020ADF81A000120ADF80A00B4
:1030B00041F28830049002A95E48FEF7C3FA082165
:1030C0005A48FEF7DCFB0120ADF80A0041F28830D7
:1030D000049002A95748FEF71BFB08215548FEF74C
:1030E000D7FB01215348FEF70CFE01215148FEF7A2
:1030F000F9F901214F48FEF713FA4F48844202D9EB
:1031000000200AB070BD0120FBE7F0B5DDE90675CF
:10311000089E059CDFF814C1CCF84070CCF83C60E8
:10312000CCF83850CCF83440DFF8F8C00CF1400C43
:10313000CCF80020ACF1040CCCF80000DFF8F4C0AF
:103140000CF1400CCCF80030ACF1040CCCF80010C1
:10315000F0BD00B58BB001210820FDF756FF01211D
:103160000846FDF709FF0820099002208DF8280085
:1031700003208DF8290000208DF82A0001208DF809
:103180002B0009A92548FDF759FC022203212348F9
:10319000FDF7DFFC642007905420ADF818000020F4
:1031A000ADF82000ADF81A0006A91E48FEF72FF969
:1031B0006020ADF804000020ADF810000120ADF84B
:1031C00006000020039001A91648FEF7A1FA082185
:1031D0001448FEF75DFB01211248FEF783F9012137
:1031E0001048FEF79DF90BB000BD014642F2107287
:1031F000B2FBF1F048B94FF47A720A4B2C331A60E3
:103200000022084B40331A6006E0064A2C32106058
:103210004208044B40331A6070470000000002402F
:1032200008000020000C0040001002400000014097
:10323000000802400004014000BD01051CB5012149
:103240002020FDF799FE4FF4C060009001208DF81A
:10325000040000208DF8060003208DF805000120F1
:103260008DF8070069460448FDF7E8FB4FF4C0619C
:103270000148FDF75FFC1CBD0014024010B5FE4B79
:1032800019600023FD4CC4F89432002217E000239B
:10329000F94C0C34236000F0800323B10123F64C79
:1032A000241D236003E00023F34C241D236001232D
:1032B000F14C0C3423604306180E531CDAB2082A72
:1032C000E5DB0123EC4C08342360EC4CC4F88C3271
:1032D00010BD30B500241CE004F1B001C8B20021DB
:1032E000FFF7CCFF00212020FFF7C8FF00211020AE
:1032F000FFF7C4FF002508E0E14901EBC501085DC7
:103300000121FFF7BBFF681CC5B2802DF4DB601CF8
:10331000C4B2082CE0DB30BD00B500218D20FFF7E2
:10332000ADFF00211420FFF7A9FF0021AF20FFF718
:10333000A5FF00BD00B500218D20FFF79FFF0021F4
:103340001020FFF79BFF0021AE20FFF797FF00BD85
:1033500030B500240CE0002506E00020C84901EB50
:10336000C5010855681CC5B2802DF6DB601CC4B2CF
:10337000082CF0DBFFF7ADFF30BDF0B5144600269A
:103380007F2801DC3F2900DDF0BD0B46CF1701EBA4
:103390005777FF10C7F10707FAB2CF1701EB57773E
:1033A000FF10A1EBC707FDB2C5F107070123BB4022
:1033B000DEB24CB1B24B03EBC0039B5C3343B04F66
:1033C00007EBC007BB5408E0AD4B03EBC0039B5CAD
:1033D000B343AB4F07EBC007BB5400BFD4E72DE9A5
:1033E000F04706460F4690469946DDF820A0344641
:1033F0000CE03D4606E0524629462046FFF7BDFF59
:10340000681CC5B24D45F6DD601CC4B24445F0DD14
:10341000FFF75FFFBDE8F0872DE9F84F80460F46C4
:1034200016461C46BA462046E31704EB5373DB10DE
:1034300021464FEAE47C04EB5C7C4FEAEC0CA4EB05
:10344000CC0CBCF1000F02D04FF0010C01E04FF0AA
:10345000000C6344224604EBD27C4FEA6C0C03FB65
:103460000CF303F0FF0BA6F12000C6B200254EE0DE
:103470000C2C07D106EB4600824901EB8000405D31
:10348000009013E0102C05D17F4800EB0610405D42
:1034900000900BE0182C07D106EBC6007B4901EB2E
:1034A0008000405D009001E0BDE8F88F4FF000091A
:1034B00027E0009800F0800028B1394640460A9A7B
:1034C000FFF75BFF09E00A9808B9012000E000203F
:1034D000024639464046FFF750FF00984006000E6E
:1034E0000090781CC7B2A7EB0A00A04205D157464E
:1034F00008F1010000F0FF0806E009F1010000F00A
:10350000FF09B9F1080FD4DB00BF681CC5B25D45E7
:10351000AEDB00BFC8E710B50246012000E0504313
:103520000B00A1F10104E1B2F9D110BD2DE9FF4F6B
:1035300081B0074691461E460E9D4FF0000A0024BA
:1035400039E0301B401EC1B20A20FFF7E4FFB9FB8F
:10355000F0F00A21B0FBF1F201FB1208BAF1000F02
:1035600016D1701EA04213DDB8F1000F0ED101205C
:10357000AB4605EBDB71491001FB04710090C8B24A
:103580002B4620220299FFF747FF12E04FF0010A75
:103590000120AB4605EBDB71491001FB0471009083
:1035A000C8B208F13001CAB22B460299FFF734FFC6
:1035B00000BF601CC4B2B442C3DB05B0BDE8F08FED
:1035C000F8B506460F4615461C4621E004EBD471BB
:1035D0004910C1F18001B14202DA00263819C7B2A0
:1035E000C4F14000B84204DA002006460746FFF75F
:1035F000AFFE012000902A78234639463046FFF777
:103600000BFF204604EBD07106EB6101CEB26D1CBE
:1036100028787E2802DC28782028D7DAF8BD2DE922
:10362000F84F06460C461746A2461C200090C7EBF2
:10363000C700174901EB800B00253AE01BF8058015
:103640004FF000092FE008F0800028B10122214648
:103650003046FFF792FE04E0002221463046FFF795
:103660008CFE4FEA48604FEA1068601CC4B2A4EBBD
:103670000A00102813D10DE08C02424200004242A1
:10368000CA000020DB4100084F4600083F4C0008FC
:103690008B4000080AF0FF04701CC6B206E009F176
:1036A000010000F0FF09B9F1080FCCDB00BF681C76
:1036B000C5B200988542C1DBBDE8F88F2DE9F04125
:1036C00006460F4615462CE00024792E03DD002621
:1036D00007F11000C7B2302F04DD00200646074670
:1036E000FFF736FE15E05B48005D297888420ED171
:1036F0005849601C085C6978884208D1A04604EBF0
:10370000D870C0F3470239463046FFF788FFA01C47
:10371000C4B25048005D6428E5DC06F10E00C6B274
:10372000AD1C28780028CFD1BDE8F0811CB501215F
:103730001020FDF721FC7C20009001208DF8040072
:1037400000208DF8060003208DF8050001208DF87B
:10375000070069464048FDF771F901203F490860BC
:103760003F49C1F898023D49091D08603B49091FBE
:1037700008600020091F08606420FEF779FE012020
:103780003749C1F888020021AE20FFF777FD0021FC
:10379000D520FFF773FD00215020FFF76FFD0021BA
:1037A000A820FFF76BFD00213F20FFF767FD0021F8
:1037B000D320FFF763FD00210846FFF75FFD0021DE
:1037C0004020FFF75BFD00218D20FFF757FD002112
:1037D0001420FFF753FD00212020FFF74FFD0021AB
:1037E0000220FFF74BFD0021A120FFF747FD00213C
:1037F000C020FFF743FD0021DA20FFF73FFD002145
:103800001220FFF73BFD00218120FFF737FD00214B
:10381000EF20FFF733FD0021D920FFF72FFD002116
:10382000F120FFF72BFD0021DB20FFF727FD002112
:103830003020FFF723FD0021A420FFF71FFD00210A
:10384000A620FFF71BFD0021AF20FFF717FDFFF7B4
:103850007FFD1CBD724000080010024090024242F1
:10386000000042421CB501210820FDF785FB4FF402
:103870007F40009000208DF8040003208DF80500A3
:1038800001208DF8070069468348FDF7D7F81CBD75
:1038900010B54FF480718048FDF732F968B94FF4E4
:1038A00080617D48FDF72CF938B94FF480517A4892
:1038B000FDF726F908B9002010BD4FF48071764855
:1038C000FDF71EF901280CD181027348FDF718F9A4
:1038D00038B94FF480517048FDF712F908B901204A
:1038E000EAE74FF480716C48FDF70AF968B94FF4C4
:1038F00080616948FDF704F9012806D10103664893
:10390000FDF7FEF808B90220D6E74FF4807162484F
:10391000FDF7F6F801280CD181025F48FDF7F0F8B9
:10392000012806D101035C48FDF7EAF808B9032035
:10393000C2E74FF480715848FDF7E2F870B94FF4D0
:1039400080615548FDF7DCF840B94FF4805152488A
:10395000FDF7D6F8012801D10420ADE74FF48071BE
:103960004D48FDF7CDF801280DD181024A48FDF7F9
:10397000C7F840B94FF480514748FDF7C1F8012816
:1039800001D1052098E74FF480714348FDF7B8F85E
:1039900070B94FF480614048FDF7B2F8012807D1B3
:1039A00001033D48FDF7ACF8012801D1062083E76B
:1039B0004FF480713848FDF7A3F801280DD181023A
:1039C0003548FDF79DF8012807D101033248FDF77E
:1039D00097F8012801D107206EE708206CE710B5A1
:1039E0002E48007890B34FF400612B48FDF788F81B
:1039F00088B14FF400412848FDF782F858B14FF4E0
:103A000000512548FDF77CF828B14FF40071224899
:103A1000FDF776F8D0B90020204908704FF4006116
:103A20001D48FDF76DF808B9012010BD4FF40041A5
:103A30001948FDF765F808B90220F6E74FF4005180
:103A40001548FDF75DF810B90320EEE707E04FF4E5
:103A500000711148FDF754F8E0B90420E5E74FF490
:103A600000610D48FDF74CF8012813D1C1030A4845
:103A7000FDF746F801280DD141030748FDF740F84E
:103A8000012807D141020448FDF73AF8012801D185
:103A9000024908700020C8E7000C024033000020F3
:103AA0001CB501210820FDF767FAAA20009001202B
:103AB0008DF8040000208DF8060003208DF8050025
:103AC00001208DF8070069460948FCF7B7FF02217D
:103AD0000748FDF731F81CBD10B508210448FDF773
:103AE00029F810BD10B508210148FDF725F810BDD3
:103AF000000C024000B589B001210220FDF73CFA1C
:103B000001210846FDF781FA4FF4807007900120EB
:103B10008DF8200000208DF8220003208DF8210070
:103B200001208DF8230007A96C48FCF787FF4FF4AC
:103B30000070079000208DF8200001208DF82300F0
:103B400007A96648FCF77AFF4FF480716348FCF7D9
:103B5000F3FF42F20F700290A720ADF8040000209E
:103B6000ADF80600ADF80C0001A94FF08040FDF75C
:103B70004EFC01218807FDF7D3FC01218803FDF7E6
:103B800055FA09210120FDF75CFB4FF40070049009
:103B900000208DF8140010208DF8150001208DF8FC
:103BA000160004A8FCF74AFE17208DF81800002024
:103BB0008DF8190002208DF81A0001208DF81B00E5
:103BC00006A8FCF7C2FD0120454908601420FEF755
:103BD00007FC00204349C1F8A00209B000BD1CB594
:103BE00041480078401C4049087008460078012888
:103BF00004D100204FF08041486269E04FF08040DE
:103C0000FDF752FC84B200EE104AB8EE400ADFED38
:103C1000370A20EE200A364880ED000A90ED000AAF
:103C2000DFED340AB4EEE00AF1EE10FA05DB3248BB
:103C300090ED000A2E4880ED000A2D4890ED000A14
:103C40002D4890ED001A30EE410AF0EE400A284867
:103C500090ED000A00F090F8284880ED000A10204E
:103C600005230090254890ED000ABCEEC00A10EE36
:103C7000102A20213220FFF759FC00200090034633
:103C8000024601901A4890ED000ABDEEC00A10EEFF
:103C9000100A01B2194890ED000ABDEEC00A10EEFC
:103CA000100A00B2FEF713FF114890ED000A124807
:103CB00080ED000A01200A4908601420FEF790FBFD
:103CC00000200849C1F8A002C903486206490870EB
:103CD0004FF40070FCF723FE1CBD000000040240FE
:103CE000A0824042008040423400002096430B3DB9
:103CF000400000200000B4423C00002038000020BA
:103D0000F0EE400A9FEDAA0AB0EE401AA9490A78DF
:103D10000978491CA74B1970A74901EB8201C1ED35
:103D2000000A194609780A2902D100211A461170A1
:103D300000200AE0A04901EB800191ED000A30EE7D
:103D4000010AB0EE401A411CC8B20A28F2DBF2EEBA
:103D5000041A81EE210A7047F0EE400AB0EE601AB4
:103D6000964890ED000AF6EE001A20EE210AF6EED3
:103D7000001A01EE810A7047B0EE401A904890EDAB
:103D8000000A70EEC01A8F4890ED000A9FED8E2A4F
:103D900001EE820A80ED000A8C4890ED010ADFED09
:103DA0008C1A31EEC00AD0ED021A30EE610A894851
:103DB00080ED000A854890ED030AB1EE400A85487F
:103DC00080ED010A814890ED030AB1EE400A814876
:103DD00080ED020A9FED800A80ED030A7B4890ED9A
:103DE000000A7C48D0ED001A9FED772A01EE820A86
:103DF000764880ED000A90ED010A7648D0ED011A70
:103E00009FED712A01EE820A704880ED010A90ED63
:103E1000020A7048D0ED021A9FED6B2A01EE820A69
:103E20006A4880ED020A90ED030A6A48D0ED031A51
:103E30009FED652A01EE820A644880ED030A61481D
:103E400090ED000A31EE400A644880ED000A5F48B8
:103E5000D0ED001A6248007800EE100AB8EE400A71
:103E600021EE800A5F4880ED000A5848D0ED021A22
:103E70005B48007800EE100AB8EE400A21EE800A96
:103E8000594880ED000A5648007800EE100AF8EE16
:103E9000401A544890ED002AB6EE000A01EE820A5C
:103EA000524880ED000A4F4890ED000A4F48D0ED8F
:103EB000001A80EE212A4E4880ED002A4A4890EDF3
:103EC000000A4A48D0ED001A80EE212A494880EDC8
:103ED000002A444890ED000A474880ED000A3B481C
:103EE000D0ED011A3E48007800EE100AB8EE400A04
:103EF00021EE800A414880ED000A344890ED000A26
:103F00003B48D0ED001A3C4890ED002A01EEC20A71
:103F10002E4880ED000A90ED010A3548D0ED001AD8
:103F2000364890ED002A01EEC20A284880ED010AC9
:103F300090ED020A2F48D0ED001A2F4890ED002A8C
:103F400001EEC20A214880ED020A90ED030A2948D9
:103F5000D0ED001A294890ED002A01EEC20A1B4854
:103F600080ED030A174890ED000A2148D0ED001AB1
:103F70001A4890ED002A01EE820A124880ED000AEC
:103F80000F4890ED000A1B48D0ED001A134890ED41
:103F9000002A01EE820A0A4880ED000A90ED000A2C
:103FA00030EEC00AF0EE400A064890ED000A704775
:103FB0000000000044000020CC0400204800002045
:103FC00054000020940000200AD7233D84000020E4
:103FD0006F12833AF4040020A69B443B600000204B
:103FE0004C000020680000206C00002070000020C1
:103FF00074000020780000207C0000208000002059
:1040000070477047704770477047754600F028F852
:10401000AE4605006946534620F00700854618B0B5
:1040200020B5FCF77BFBBDE820404FF000064FF0C9
:1040300000074FF000084FF0000B21F00701AC46DD
:10404000ACE8C009ACE8C009ACE8C009ACE8C009FC
:104050008D4670470446AFF300802046FCF7DDF83C
:1040600000487047040500204FF04070E1EE100A50
:104070007047D0A1C7F2BFD8D6C6CFB5CDB3CEBB9F
:10408000D6C3B0EBBEB6D6DCC6DA00000000200016
:104090004001800600000200027FFC0000020001D7
:1040A0000000C000600000000011081FE81110119E
:1040B000101818091008A27FFE4B0028E0391008DC
:1040C0000800000000084208827FFE09000C8009F9
:1040D000420A42307C28420A420DC2180400000005
:1040E0000006781A400A407FFE0A480A7C0A8000CF
:1040F000001FF000023FFE40000000000000020030
:1041000004224826F82AD03342227E2240455048D5
:104110008840CC00040000000006441AC86348042C
:10412000490842118416F85880308011FE1302119C
:104130008E00000000018006003FFE4402050204DC
:10414000C244323404047A07820A020004000000E8
:104150000200027A022BFE2AD63AD62F562AD63AE7
:10416000D62AD62BFE7C02000200000000002000B0
:104170002011200D2001207FFF0120052009203182
:104180002002200020000000000440188023FE0CC4
:1041900000008221022242247C3C4222420202018F
:1041A000040000000000043FF8200021802578254D
:1041B000483F4825F0290821027FFE00000000004A
:1041C0000000223FE40AB80AA03FF0082E10243F66
:1041D000F82240224022423FFE0000000000000082
:1041E00000000000000000000000003F4000000050
:1041F00000000000003000400030004000000009D6
:10420000000BC03D000BC03D00090018C024407FDA
:10421000E0224031800000180024C01B000D8032D5
:1042200040018003801C4027401C80074000401054
:10423000006000000000000000000000000000001E
:10424000001F80204040200000402020401F8000B0
:10425000000000090006001F80060009000000049D
:104260000004003F80040004000000001000600013
:10427000000000000000000400040004000400042A
:1042800000000000000040000000000000000000EE
:104290002001C006003800400000001F80204020A0
:1042A0004020401F800000000010403FC000400040
:1042B00000000018C0214022402440184000001097
:1042C000802040244024401B80000002000D00118B
:1042D000003FC0014000003C802440244024402393
:1042E0008000001F802440244034400380000030C0
:1042F00000200027C03800200000001B802440243C
:104300004024401B8000001C0022C0224022401F8D
:1043100080000000000000084000000000000000D5
:104320000000000460000000000000000004000A1B
:10433000001100208040400900090009000900091F
:1043400000000000004040208011000A0004001816
:1043500000200023402400180000001F8020402778
:104360004029401F400000004007C039000F0001F5
:10437000C0004020403FC0244024401B8000001F5C
:10438000802040204020403080000020403FC0205E
:104390004020401F80000020403FC024402E40307D
:1043A000C0000020403FC024402E00300000000F1D
:1043B000001080204022403380020020403FC00493
:1043C0000004003FC02040204020403FC02040204B
:1043D0004000000060202020203FC020002000205E
:1043E000403FC024400B0030C0204020403FC02050
:1043F000400040004000C03FC03C0003C03C003FC4
:10440000C0000020403FC00C4023003FC020001FE0
:10441000802040204020401F80000020403FC024DA
:10442000402400180000001F802140214020E01F90
:10443000A0000020403FC02440260019C0004018C2
:10444000C024402440224031800000300020403F02
:10445000C020403000000020003F80004000403F6E
:1044600080200020003E0001C007003800200038F6
:104470000007C03C0007C038000000204039C006DB
:104480000039C0204000002000384007C0384020DC
:10449000000000304021C02640384020C00000000D
:1044A0000000007FE0402040200000000070000C71
:1044B000000380004000000000402040207FE0001A
:1044C000000000000020004000200000000000006C
:1044D000100010001000100010001000000000403C
:1044E00000000000000000000002800540054003BD
:1044F000C0004020003FC004400440038000000092
:1045000000038004400440064000000000038004D3
:104510004024403FC00040000003800540054003A8
:10452000400000000004401FC02440244020000040
:104530000002E0055005500650042020403FC00412
:1045400040040003C000400000044027C0004000B9
:1045500000000000100010041027E0000000002000
:10456000403FC00140070004C00440204020403FBD
:10457000C000400040000007C0040007C004000362
:10458000C00000044007C00440040003C000400015
:104590000003800440044003800000041007F0047E
:1045A00050044003800000000003800440045007D2
:1045B000F00010044007C0024004000400000000A6
:1045C0000006400540054004C00000000004001F34
:1045D00080044000400000040007800040044007C1
:1045E000C000400400070004C0018006000400066B
:1045F0000001C0070001C006000000044006C00121
:104600000006C0044000000410071004E00180060A
:104610000004000000044005C00640044000000003
:1046200000000004007BE0402000000000000000CB
:1046300000FFF000000000000040207BE0040000CC
:1046400000000040008000400020002000400000EA
:10465000000000000000000000000000000000005A
:1046600000000000001FCC000C0000000000000053
:104670000008003000600008003000600000000208
:104680002003FC1E20022003FC1E2002200000004C
:10469000000E1811043FFF10840C78000000000F7A
:1046A0000010840F3800C0077818840078000000DC
:1046B000780F8410C411240E9800E40084000808C8
:1046C0000068007000000000000000000000000012
:1046D000000000000007E01818200440020000005D
:1046E0000040022004181807E0000000000000024B
:1046F00040024001800FF0018002400240000000B3
:1047000080008000800FF8008000800080000000A2
:1047100001000D000E00000000000000000000007D
:104720000000800080008000800080008000800009
:1047300000000C000C000000000000000000000061
:10474000000006001800600180060018002000002C
:104750000007F0080810041004080807F000000023
:1047600000080408041FFC0004000400000000000E
:10477000000E0C10141024104411840E0C000000C4
:10478000000C1810041104110412880C70000000B1
:104790000000E00320042408241FFC002400000083
:1047A000001F98108411041104108810700000007C
:1047B0000007F00888110411041888007000000038
:1047C000001C00100010FC13001C00100000000072
:1047D000000E3811441084108411440E380000007B
:1047E000000700088C10441044088807F0000000FF
:1047F0000000000000030C030C000000000000009B
:1048000000000000010106000000000000000000A0
:10481000000080014002200410080810040000027B
:10482000200220022002200220022002200000009C
:10483000001004080804100220014000800000005D
:10484000000E001200100C106C10800F000000030E
:10485000E00C1813E4142417C4082807D000000043
:1048600004003C03C41C40074000E4001C0004108A
:10487000041FFC1104110411040E880070000003D1
:10488000E00C1810041004100410081C1000001094
:10489000041FFC100410041004080807F0000010A6
:1048A000041FFC1104110417C410040818000010A0
:1048B000041FFC1104110017C010000800000003C1
:1048C000E00C181004100410441C78004000001084
:1048D000041FFC10840080008010841FFC10040062
:1048E00000100410041FFC1004100400000000005D
:1048F000030001100110011FFE1000100000001045
:10490000041FFC110403801464181C100400001020
:10491000041FFC1004000400040004000C0000103C
:10492000041FFC1F0000FC1F001FFC1004000010EF
:10493000041FFC0C04030000E010181FFC1000070B
:10494000F00808100410041004080807F000001014
:10495000041FFC10841080108010800F00000007DE
:10496000F0081810241024101C080A07F200001088
:10497000041FFC1104110011C011300E0C000400C2
:10498000000E1C11041084108410441C3800001800
:1049900000100010041FFC1004100018000000108C
:1049A000001FF810040004000410041FF810001089
:1049B000001E0011E0001C007013801C0010001F7E
:1049C000C0103C00E01F0000E0103C1FC0000010C1
:1049D00004180C163401C001C01634180C10041051
:1049E000001C00130400FC13041C0010000000084D
:1049F00004101C1064108413041C04101800000020
:104A000000000000007FFE40024002400200000063
:104A10000030000C0003800060001C000300000058
:104A2000004002400240027FFE0000000000000043
:104A30000000002000400040004000200000000076
:104A4000010001000100010001000100010001005E
:104A500000400040002000000000000000000000B6
:104A6000000098012401440144014400FC000410AA
:104A7000001FFC0088010401040088007000000091
:104A80000000700088010401040104008800000097
:104A900000007000880104010411081FFC000400DC
:104AA0000000F8014401440144014400C800000032
:104AB00000010401040FFC1104110411001800008E
:104AC0000000D601290129012901C90106000010B1
:104AD000041FFC008401000100010400FC0004002C
:104AE000000104190419FC00040004000000000087
:104AF00000000300010101190119FE00000000106F
:104B0000041FFC0024004001B4010C01040000005B
:104B100000100410041FFC00040004000000000149
:104B20000401FC0104010001FC0104010000FC017E
:104B30000401FC008401000100010400FC000400E9
:104B40000000F8010401040104010400F800000160
:104B50000101FF00850104010400880070000000CD
:104B6000000070008801040104010501FF0001013B
:104B700004010401FC008401040100018000000024
:104B80000000CC012401240124012401980000002C
:104B9000000100010007F801040104000000000109
:104BA0000001F8000400040004010801FC000401F5
:104BB0000001800170000C00100160018001000103
:104BC000F0010C003001C00030010C01F0010000C8
:104BD000000104018C00740170018C0104000001CB
:104BE0000101810171000E001801600180010000C7
:104BF000000184010C013401440184010C00000017
:104C00000000000000000001003EFC4002400200E5
:104C100000000000000000FFFF0000000000000096
:104C200000400240023EFC010000000000000000C5
:104C30000060008000800040004000200020000054
:104C40000000000000000000000000000000000064
:104C50000000000000000000000000000000000054
:104C60000000000000000000000000000000000044
:104C700000000F80380FFE380F8038000000000061
:104C80000000000000000000000000000001000023
:104C90000600000C00003800003100000600000C87
:104CA000000038000030000000000000000000613B
:104CB000800067F807F980006180006180006180F2
:104CC0000061800067F807F9800061800000000043
:104CD000000000000001C0E003E0F0063008041806
:104CE000081FFFFE040E080787F00381E0000000A4
:104CF00000000001F000060C00040408060C70011E
:104D0000F9C0000E00003BE000EC18070808040C96
:104D1000180003E00000000001E00007F003F818AD
:104D2000041C0804170807E1D003C0E00023B0000A
:104D30003C080020080000100000000000000100F6
:104D4000003100003200001C0000000000000000E4
:104D50000000000000000000000000000000000053
:104D60000000000000000000000000000000007FC4
:104D70000001FFC00780F00C0018100004200002A2
:104D80000000000000002000021000040C001807C2
:104D900080F001FFC0007F00000000000000000064
:104DA000000000000000000000000042000066005B
:104DB000006600003C0000180003FFC0001800005F
:104DC0003C00006600006600004200000000000891
:104DD0000000080000080000080000080001FFC0F3
:104DE000000800000800000800000800000800009B
:104DF000000000000100003100003200001C000033
:104E000000000000000000000000000000000000A2
:104E1000000000000000000800000800000800007A
:104E20000800000800000800000800000800000852
:104E30000000080000000000000000000000003832
:104E400000003800003800000000000000000000F2
:104E50000000000000000000000000000000000052
:104E60000600001C000070000180000E00003800E9
:104E700000C0000700001C0000300000000000001F
:104E80000000007F8001FFE003807006001804002E
:104E90000804000806001803807001FFE0007F800E
:104EA00000000000000000000001000801000801EF
:104EB000000803FFF807FFF80000080000080000E2
:104EC0000800000000000000000001C03802C058C7
:104ED000040098040118040218040418061C18039E
:104EE000F81801E0F800000000000000000001C018
:104EF000E003C0F0040008040808040808061808C5
:104F000003F41801E7F00001E000000000000000D9
:104F10000000000300000D0000110000610000818E
:104F20000803010807FFF80FFFF800010800010857
:104F30000000000000000000E007FCD006080806A2
:104F40001008061008061008061838060FF00607A5
:104F5000C0000000000000000000003F8001FFE0F2
:104F6000038430020818041008041008041008070D
:104F70001810030FF00007C0000000000000000040
:104F80000003C0000700000600000600F80607F84E
:104F900006180006E0000700000600000000000000
:104FA000000001E1E003F7F00634100418080418CB
:104FB00008040C08040C0806161803F3F001C1E0FD
:104FC00000000000000000F80003FC300306380475
:104FD00002080402080402080404100308F001FF98
:104FE000C0007F0000000000000000000000000082
:104FF00000000000000000703800703800703800B9
:1050000000000000000000000000000000000000A0
:105010000000000000000000000000301A00301CFA
:105020000000000000000000000000000000000080
:1050300000000000000008000014000022000041F1
:1050400000008080010040020020040010080008D9
:1050500000000000000000210000210000210000ED
:10506000210000210000210000210000210000217A
:1050700000002100000000000000000000080008FF
:105080000400100200200100400080800041000068
:10509000220000140000080000000000000003C00F
:1050A0000004C000040000080038080F3808083861
:1050B0000810000C300007E00003C00000000000F2
:1050C0000000003F8000FFE0038070020F100670B8
:1050D0008804C088048308047F8802C090030120EC
:1050E00000FE400000080000180001F8003E080122
:1050F000C20007020007E20000FE00001FC8000116
:10510000F800003800000804000807FFF807FFF85F
:105110000408080408080408080408080618080316
:10512000F41801E7F00001E0000000000000003F7B
:105130008001FFE0038070020018040008040008EA
:105140000400080400100600200780C000000004CE
:10515000000807FFF807FFF804000804000804002F
:105160000804001802001003807001FFE0007F8037
:1051700000000004000807FFF807FFF8040808040F
:105180000808040808040808043E0804000806008B
:105190001801006000000004000807FFF807FFF88E
:1051A000040808040800040800040800043E00067F
:1051B0000000060000018000000000000000003F29
:1051C0008001FFE003807006001804000804020854
:1051D0000402080203F00783F0000200000200044A
:1051E000000807FFF807FFF8040808000800000897
:1051F0000000080000080004080807FFF807FFF88F
:105200000400080000000000000400080400080476
:10521000000807FFF807FFF804000804000804006E
:105220000800000000000000000000000600000769
:1052300000000104000104000104000307FFFE0751
:10524000FFFC04000004000004000004000807FF45
:10525000F807FFF8040C08001800003E0004C7809F
:105260000503C80600F8040038040018000008040C
:10527000000807FFF807FFF8040008000008000016
:105280000800000800000800000800001800006086
:1052900000000004000807FFF807800807FC000072
:1052A0007FC00003F80007C000780007800807FFF0
:1052B000F807FFF804000804000807FFF8070008D3
:1052C00003C00000E000003800001E0000070000DE
:1052D00001C00400F007FFF8040000000000007F98
:1052E0008001FFE003807006001804000804000835
:1052F00006001803003001FFE0007F80000000047A
:10530000000807FFF807FFF8040408040400040479
:1053100000040400040400060C0003F80001F0007F
:10532000000000000000007F8001FFE003807006A5
:1053300000880400880400C806003C03003E01FF0A
:10534000E6007F8400000004000807FFF807FFF86C
:10535000040808040800040C00040F00040BC00635
:1053600010F003F03801E00800000800000001E040
:10537000F803F030063010041808041808040C086C
:10538000040C080206180207F00781E00000000183
:10539000800006000004000004000004000807FF6D
:1053A000F807FFF8040008040000040000060000ED
:1053B00001800004000007FFE007FFF00400180070
:1053C00000080000080000080000080000080400B1
:1053D0001007FFE004000004000006000007E000E2
:1053E00007FE00041FE00001F80000380001E0049F
:1053F0003E0007C00006000004000004000007E0B3
:105400000007FFC0041FF80007C007F80007FF806F
:10541000043FF80007C004F8000700000400000083
:10542000000004000806001807C07805F1C8003E17
:1054300000001F800463E80780F8060018040008D5
:1054400000000004000006000007800007E00804D8
:105450007C08001FF80007F800180804E00807009F
:1054600000060000040000000000010008060038EB
:105470000400F80403E8040F08047C0805F008079A
:10548000C0080700180400600000000000000000D1
:10549000000000000000000000003FFFFE200002AE
:1054A0002000022000022000022000020000000074
:1054B000000000000008000007000000C0000038E5
:1054C000000006000001C000003000000E000001D6
:1054D0000000000000000000002000022000022068
:1054E00000022000022000023FFFFE00000000003A
:1054F00000000000000000000000000000000000AC
:1055000008000010000030000020000030000010F3
:105510000000080000000000000000000001000082
:105520000100000100000100000100000100000175
:105530000000010000010000010000010000010066
:10554000000000000000000020000020000010000B
:10555000001000000000000000000000000000003B
:105560000000000000000000F00019F8001B180007
:105570002208002608002408002410003FF8001F1D
:10558000F800000800001800000004000007FFF801
:105590000FFFF00018180010080020080020080075
:1055A0003018001FF0000FC00000000000000007CE
:1055B000C0001FF00018300020080020080020085C
:1055C000003C08001C10000060000000000000000B
:1055D00000000007C0001FF000381800200800205D
:1055E0000800200804101007FFF80FFFF00000105B
:1055F0000000000000000000000007C0001FF000D5
:105600001230002218002208002208003208001E72
:1056100010000E2000000000000000200000200804
:1056200000200801FFF803FFF80620080420080402
:105630002008072000030000000000000000000018
:105640000E000E6E001FF30031B10020B10020B13A
:10565000003191001F13002E1E00200E00300000AC
:10566000000004000807FFF80FFFF80010080020F2
:1056700000002000002008003FF8001FF80000088C
:1056800000000000000000000000200800200800CA
:105690002008063FF8063FF8000008000008000058
:1056A00008000000000000000000000000000003EF
:1056B000000003002001002001002003063FFE0639
:1056C0003FFC00000000000000000000000004009B
:1056D0000807FFF80FFFF8000188000300002FC043
:1056E0000038F80020380020080000080000000002
:1056F000000000000004000804000804000807FF80
:10570000F80FFFF800000800000800000800000083
:10571000000000002008003FF8003FF800100800DB
:105720002000003FF8003FF8001008002000003F74
:10573000F8003FF8000008000000002008003FF8D3
:10574000003FF800100800100000200000200800B2
:105750003FF8001FF80000080000000000000007EC
:10576000C0000FF0001830003008002008002008AA
:10577000003008001830000FF00007C000000000E3
:105780000000002001003FFF003FFF00101100203B
:1057900009002008002008003038001FF0000FC06A
:1057A0000000000000000007C0001FF000381800D3
:1057B0002008002008002009001011001FFF003FF2
:1057C000FF00000100000000200800200800200861
:1057D000003FF8003FF8000808001008002008000B
:1057E0002000003000003000000000000000000039
:1057F00000000C78001E1800330800230800210860
:105800000021880021980030F0003860000000007E
:10581000000000200000200000200000FFF003FF37
:10582000F8002008002008002008000030000000D8
:10583000000000000000002000003FF0007FF800A2
:105840000018000008000008002010003FF8007F4A
:10585000F0000010000000000000002000003000F8
:10586000003C00003F800023F00000780000700042
:105870002380003C00003000002000002000003C9D
:1058800000003FE00023F80000E0002700003E0099
:10589000003FE00021F80001E0003E000020000091
:1058A0000000002008002008003838003E6800276B
:1058B000800003C8002CF8003838002018002008A9
:1058C000000000000000002000003003003C010048
:1058D0003F830023EC000070002380003C00002088
:1058E0000000200000000000000000000000380858
:1058F0000020380020F80023E8002F88003E080030
:1059000038080020180000700000000000000000AF
:10591000000000000000000000000008000014006B
:105920001FF7FC300006200002000000000000000D
:105930000000000000000000000000000000000067
:1059400000FFFFFF0000000000000000000000005A
:105950000000000000000000002000023000061FD0
:10596000F7FC001400000800000000000000000028
:1059700000000000000000000000180000600000AF
:10598000400000400000200000100000080000045B
:1059900000000400000C000010000000BC590008CA
:1059A0000000002098000000C4010008545A0008BC
:1059B00098000020D00A0000E00100080000640008
:1059C00001000000007A030A00000000000000004F
:1059D0000102030406070809000000000102030495
:1059E000010203040607080900000000000000018E
:1059F00000000000000000000000000000000000A7
:105A00000000000000000000010000000000000095
:105A10000000000000000000000000000000000086
:105A20000000000000000000000000000000000076
:105A30000000000000000000000000000000000066
:105A40000000803F00000000000000000000803FD8
:045A50000000000052
:040000050800018965
:00000001FF
