:020000040800F2
:10000000700C0020E10C0008B50A0008B70A0008CF
:10001000BB0A0008BF0A0008C30A0008000000006D
:10002000000000000000000000000000C70A0008F7
:10003000C90A000800000000CB0A0008CD0A000829
:10004000FB0C0008FB0C0008FB0C0008FB0C000874
:10005000FB0C0008FB0C0008FB0C0008FB0C000864
:10006000FB0C0008FB0C0008FB0C0008FB0C000854
:10007000FB0C0008FB0C0008FB0C0008FB0C000844
:10008000FB0C0008FB0C0008FB0C0008FB0C000834
:10009000FB0C0008FB0C0008FB0C0008FB0C000824
:1000A000FB0C0008FB0C0008FB0C0008FB0C000814
:1000B000FB0C00084B090008FB0C0008FB0C0008B7
:1000C000FB0C0008FB0C0008FB0C0008FB0C0008F4
:1000D000FB0C0008BF090008DD090008F909000849
:1000E000FB0C0008FB0C0008FB0C0008FB0C0008D4
:1000F000FB0C0008FB0C0008FB0C0008FB0C0008C4
:10010000FB0C0008FB0C0008FB0C0008FB0C0008B3
:10011000FB0C0008FB0C0008FB0C0008FB0C0008A3
:10012000FB0C0008FB0C0008FB0C0008FB0C000893
:10013000FB0C0008FB0C0008FB0C0008FB0C000883
:10014000FB0C0008FB0C0008FB0C0008FB0C000873
:10015000FB0C0008FB0C0008FB0C0008FB0C000863
:10016000FB0C0008FB0C0008FB0C0008FB0C000853
:10017000FB0C0008FB0C0008FB0C0008FB0C000843
:10018000FB0C0008FB0C000800F002F800F05CF823
:100190000AA090E8000C82448344AAF10107DA45E2
:1001A00001D100F051F8AFF2090EBAE80F0013F0D8
:1001B000010F18BFFB1A43F001031847CC7C000065
:1001C000EC7C00000A444FF0000C10F8013B13F0E7
:1001D000070408BF10F8014B1D1108BF10F8015BA0
:1001E000641E05D010F8016B641E01F8016BF9D193
:1001F00013F0080F1EBF10F8014BAD1C0C1B09D1EA
:100200006D1E58BF01F801CBFAD505E014F8016B5B
:1002100001F8016B6D1EF9D59142D6D370470000ED
:100220000023002400250026103A28BF78C1FBD8FF
:10023000520728BF30C148BF0B6070471FB506F09A
:1002400029F91FBD10B510BD05F0AFFF1146FFF72E
:10025000F5FF00F069FB05F0CDFF03B4FFF7F2FFF7
:1002600003BC03F06FF8000008B504F029FDF7485F
:10027000008850B9F648008838B9F6A2142108461B
:1002800004F0D4FE04F0DDFC26E0F6A20A211420DE
:1002900004F0CCFE1023F7A21B21142004F048FE2A
:1002A0001023F6A22C21142004F042FE1020032378
:1002B0000090E648B0F900201B21322004F0EEFD4A
:1002C000102003230090E248B0F900202C213220B6
:1002D00004F0E4FD04F0B5FC4FF47A7002F0E0FDA8
:1002E00008BD08B51023E7A20021084604F020FE4F
:1002F000102002230090E648027800214C2004F0F0
:10030000CDFD1023E3A21946002004F011FE1020B9
:1003100002230090E04802781021084604F0BEFD58
:100320001023DEA22021002004F002FE1020022370
:100330000090DB4802782021102004F0AFFD10234C
:10034000D8A219463C2004F0F3FD102002230090AF
:10035000D548027810214C2004F0A0FD1023D3A230
:1003600020213C2004F0E4FD102002230090D0481E
:10037000027820214C2004F091FD04F062FCCD486D
:10038000007802280BD1C2480078401CC049087090
:1003900008460078092801DB0920087010E2C548EA
:1003A000007804280BD1BA480078401EB84908707C
:1003B000084600780028F1D10120087000E2BD480D
:1003C0000078032834D1BC48007848B9B048007898
:1003D000B1490870B8480078401CB7490870EFE18F
:1003E000B5480078012809D1A9480078AC490870BF
:1003F000B1480078401CB0490870E1E1AE4800788F
:10040000022809D1A2480078A7490870AA480078B4
:10041000401CA9490870D3E1A74800780328BDD142
:100420009B480078A24908700020A3490870C7E1E2
:10043000A04800780128B1D197480078012805D15B
:100440004B209E4908709E49087054E092480078FD
:10045000022806D14B20994908702E20984908702F
:1004600049E08D480078032806D14B209349087055
:100470001320934908703EE087480078042806D18D
:100480002F208E4908704B208D49087033E0824838
:100490000078052805D12F20884908708849087000
:1004A00029E07D480078062806D12F20834908706E
:1004B0001320834908701EE077480078072806D18A
:1004C00013207E4908704B207D49087013E0724864
:1004D0000078082806D11320784908702F20784921
:1004E000087008E06C480078092804D1132073498B
:1004F0000870734908706A480078012805D14B20BC
:10050000704908707049087054E065480078022806
:1005100006D14B206B4908702E206B49087049E0CA
:100520005F480078032806D14B20664908701320E5
:10053000654908703EE05A480078042806D12F200B
:10054000604908704B206049087033E054480078D7
:10055000052805D12F205B4908705B49087029E008
:100560004F480078062806D12F20564908701320DE
:10057000554908701EE04A480078072806D1132024
:10058000504908704B205049087013E044480078E7
:10059000082806D113204B4908702F204A490870BB
:1005A00008E03F480078092804D113204549087025
:1005B000454908703C480078012805D14B20434943
:1005C00008704349087099E037480078022806D13E
:1005D0004B203E4908702E203D4908708EE032487D
:1005E0000078032806D14B20384908701320384979
:1005F000087083E02C480078042806D12F20334966
:1006000008704B203249087078E0274800780528A8
:1006100005D12F202D4908702D4908706EE0224821
:100620000078062806D12F20284908701320284971
:10063000087063E01C48007807284BD11320234939
:1006400008704B202249087058E000000400002088
:1006500006000020D3B2BCFED7D4BCECB3C9B9A607
:1006600000000000D3B2BCFED7D4BCECCAA7B0DCFB
:1006700000000000786E6F773A000000796E6F77A7
:100680003A00000053455454494E473A00000000D8
:1006900015000020413A000010000020423A0000FE
:1006A00011000020433A000012000020443A0000EC
:1006B000130000200100002014000020160000207C
:1006C0001700002018000020190000201A00002048
:1006D0001B000020CF480078082806D11320CE49FF
:1006E00008702F20CD49087008E0CA480078092812
:1006F00004D11320C8490870C8490870C848007858
:10070000012805D14B20C7490870C749087054E03B
:10071000C3480078022806D14B20C24908702E2019
:10072000C149087049E0BE480078032806D14B2033
:10073000BC4908701320BC4908703EE0B8480078F6
:10074000042806D12F20B74908704B20B6490870FD
:1007500033E0B3480078052805D12F20B14908704F
:10076000B149087029E0AE480078062806D12F204C
:10077000AC4908701320AC4908701EE0A848007806
:10078000072806D11320A74908704B20A6490870F6
:1007900013E0A3480078082806D11320A149087067
:1007A0002F20A149087008E09D480078092804D14D
:1007B00013209C4908709C49087001209B490870CF
:1007C00008BD10B504F01CFD9949087004F0BFFD88
:1007D00098490870964800789749097888420AD065
:1007E000934800789449087004F06AFA002093490D
:1007F0000880934908808E48007860B9FFF734FD7F
:100800009048038890480288904801889048008862
:1008100002F0ACFA53E086480078012808D1102392
:100820008CA20021084604F083FB04F00AFA46E09B
:100830007F480078022808D1102388A200210846AA
:1008400004F076FB04F0FDF939E0794800780328DC
:1008500008D1102383A20021084604F069FB04F0AC
:10086000F0F92CE072480078042808D110237FA208
:100870000021084604F05CFB04F0E3F91FE06C483B
:100880000078052808D110237AA20021084604F038
:100890004FFB04F0D6F912E065480078062802D133
:1008A000FFF71FFD0BE062480078072807D11023EF
:1008B00073A20021084604F03BFB04F0C2F910BD0E
:1008C00010B54FF4A06000F02BFA07230222082194
:1008D0004FF4A87002F0EEFC4FF4E13002F040FD5E
:1008E0004FF4E13004F0C0FE4FF4E13004F090FD2D
:1008F000A82002F073FA03F031F804F06BFC04F066
:10090000CDFB02F082F94F4803884F4802884F48D8
:1009100001884F48008802F029FA40F2473140F23E
:10092000E73002F073FD10BDFFF7CAFF57A2142194
:10093000084604F07BFB04F084F94FF47A7002F06F
:10094000AFFA01E0FFF73DFFFCE710B50121534886
:1009500001F033FC01282DD135480078012801D160
:1009600003F0A7FC32480078022801D103F0B9FC5B
:100970002F480078032801D103F0CBFC2C480078E5
:10098000042801D103F025FD29480078052801D16C
:1009900003F051FD26480078062805D12348007849
:1009A000012801D103F0D6FD21480078072801D1A4
:1009B00003F02EFE0121394801F010FC10BD10B5E6
:1009C00040F22551364801F0C5FE30B1344801F0FF
:1009D000FFFDC4B2204602F04DFF10BD10B540F23D
:1009E0002551304801F0B6FE28B12E4801F0F0FD47
:1009F00000B22D49088010BD10B540F225512B489A
:100A000001F0A8FE28B1294801F0E2FD00B2284912
:100A1000088010BD120000201A0000201B000020DA
:100A2000130000201C0000201D0000201E000020DC
:100A30000000002001000020020000207C000020B7
:100A4000880000200E0000200C0000200A0000207A
:100A50000800002042415345313A000042415345CD
:100A6000323A000042415345333A00004241534577
:100A7000343A0000444556454C4F50313A0000008E
:100A8000444556454C4F50333A000000B9F6C7F282
:100A9000BFD8D6C6CFB5CDB30000000000040040DB
:100AA00000100140004400400400002000480040C5
:100AB00006000020704700BFFEE700BFFEE700BF52
:100AC000FEE700BFFEE770477047704770470000C1
:100AD0000CB50020019000907648006840F480300A
:100AE0007449086000BF7348006800F4003000904B
:100AF0000198401C0190009818B90198B0F5A04FDA
:100B0000F1D16C48006800F4003010B10120009071
:100B100001E0002000900098012846D1654840304F
:100B2000006840F0805063494031086062480068C6
:100B300040F44040604908605E48083000685D4904
:100B4000083108600846006840F400400860084624
:100B5000006840F4A05008605848091F0860081F4A
:100B6000006840F08070091F086000BF51480068AD
:100B700000F000700028F9D040F20570504908607C
:100B80004C480830006820F003004A4908310860EA
:100B90000846006840F00200086000BF4548083081
:100BA000006800F00C000828F8D10CBD10B54548CD
:100BB000006840F47000434908603E48006840F017
:100BC00001003C49086000203A4908310860394872
:100BD00000683D490840374908603C48091D0860E5
:100BE000081F006820F48020091F08600020314998
:100BF0000C310860FFF76CFF4FF00060314980391D
:100C0000086010BD70B500200022022300240221DC
:100C1000284D08352D6805F00C0020B1042806D0B9
:100C2000082834D107E02A4D2A4E356033E02A4D9A
:100C3000284E35602FE01F4D2D1D2D68C5F38054C3
:100C40001C4D2D1D2D6805F03F0154B1224DB5FB03
:100C5000F1F5184E361D3668C6F3881605FB06F208
:100C600009E01B4DB5FBF1F5124E361D3668C6F393
:100C7000881605FB06F20F4D2D1D2D68C5F30145A5
:100C80006D1C6B00B2FBF3F5124E356003E0104DA6
:100C9000104E356000BF00BF064D08352D68C5F306
:100CA00003150E4E705D0B4D2D68C540094E356025
:100CB00070BD00000038024000700040085440073A
:100CC000003C024088ED00E0FFFFF6FE10300024FB
:100CD0000024F4002000002000127A0024000020EC
:100CE0000948804709480047FEE7FEE7FEE7FEE7C0
:100CF000FEE7FEE7FEE7FEE7FEE7FEE704480549FC
:100D0000054A064B70470000AD0B0008890100083A
:100D100070060020700C0020700800207008002071
:100D200032490143324A1160704770B500210023F7
:100D30000F22C4781CB32E4C246804F4E064C4F57C
:100D4000E064C4F30721C1F10404E3B20A4144782A
:100D50009C40E1B28478144021430C07210E254CBD
:100D600005786155047804F01F050124AC4005782E
:100D70006D11AD0005F1E025C5F8004109E00478EA
:100D800004F01F050124AC401B4D0678761145F890
:100D9000264070BD194A0A400243154B1B1F1A60BA
:100DA000704739B1124A121D12680243104B1B1DC5
:100DB0001A6006E00E4A121D126882430C4B1B1D7E
:100DC0001A607047042808D14FF0E021096941F00A
:100DD00004014FF0E022116107E04FF0E0210969C2
:100DE00021F004014FF0E022116170470000FA0584
:100DF0000CED00E000E400E080E100E080FFFF1F78
:100E000010B504469848844208D10121084600F0F4
:100E100086FB0021012000F082FB76E093488442AB
:100E200008D10121022000F07AFB0021022000F00D
:100E300076FB6AE08E48844208D10121042000F04C
:100E40006EFB0021042000F06AFB5EE089488442CA
:100E500008D10121082000F062FB0021082000F0E9
:100E60005EFB52E08448844208D10121102000F04A
:100E700056FB0021102000F052FB46E07F488442E0
:100E800008D10121202000F04AFB0021202000F0A1
:100E900046FB3AE07A48844208D10121402000F024
:100EA0003EFB0021402000F03AFB2EE075488442D2
:100EB00008D10121802000F032FB0021802000F0C9
:100EC0002EFB22E07048844208D10121801500F0F9
:100ED00026FB0021A01500F022FB16E06B4884429F
:100EE00008D10121401500F01AFB0021601500F027
:100EF00016FB0AE06648844207D10121001500F084
:100F00000EFB0021201500F00AFB10BDF0B50A46CB
:100F100000210023002400BF3DE0012505FA01F374
:100F2000156805EA03049C4234D105684F00032686
:100F3000BE40B543056015794E00B540066835439F
:100F400005601579012D02D01579022D16D185681D
:100F50004F000326BE40B543856055794E00B5402D
:100F6000866835438560456801268E40B5434560F7
:100F7000456896798E40B6B235434560C5684F00E6
:100F80000326BE40B543C560D5794E00B540C6685E
:100F90003543C560491C1029BFD3F0BD4FF6FF7122
:100FA00001600021017141718171C171704708B503
:100FB0004FF480320092009A0A430092009AC26174
:100FC000C161009AC261C2690092C269009208BD03
:100FD0000246002013690B400BB1012000E0002005
:100FE00070470146086980B2704702460020536985
:100FF0000B400BB1012000E000207047014648691A
:1010000080B2704701837047418370470AB1018302
:1010100000E0418370474161704742694A40426144
:101020007047F0B5002300244D07ED0E02FA05F3DA
:10103000CE1000F1200555F826504E07F70E0F266A
:10104000BE40B543CF1000F1200646F82750CE1021
:1010500000F1200555F8265045EA0304CE1000F1B2
:10106000200545F82640F0BD000002400004024083
:1010700000080240000C0240001002400014024030
:1010800000180240001C02400020024000240240E0
:1010900000280240F948006840F00100F749086064
:1010A0000020F64908310860F4480068F449084017
:1010B000F2490860F348091D0860F348EF4984319C
:1010C0000860F0481038091D0860EC48006820F4FA
:1010D0008020EA4908600020E8490C310860E749AF
:1010E0008C31086070470021E44A921C117011464F
:1010F0000870704710B501460022002300204A11F5
:10110000012A02D1DD4C236808E0022A03D1DB4C1E
:101110007034236802E0D94C7434236801F01F0254
:10112000012494401C400CB1012000E0002010BDBF
:1011300038B5002000900024002500BF3120FFF7C3
:10114000D9FF05460098401C00900098B0F5A04FCC
:1011500001D0002DF2D03120FFF7CCFF08B10124DF
:1011600000E00024204638BD01460020C34A106834
:1011700020F0F80040EAC10010607047C3490860E1
:1011800070470021BD4A703211701170012802D0E1
:1011900004280AD104E00121B84A7032117005E038
:1011A0000521B64A7032117000E000BF00BF7047E1
:1011B000B7490860704770B5049C41EA8215012662
:1011C000C6EB530645EA0645054345EA0465AB4EC2
:1011D000361D356070BDAD4908667047820142EA30
:1011E0000172A64B84331A607047A849886670471D
:1011F00010B5830143EA016343EA02739F4C8834CC
:10120000236010BDA14908677047A049C8647047B2
:1012100002460020994B0833186820F0EC6042EA3F
:1012200001031843954B08331860704702460020AD
:10123000924B0833186820F0784042EA01031843C3
:101240008E4B083318607047014600208B4A0832E5
:10125000106820F00300084310607047874808308A
:10126000006800F00C00704701460020834A0832F5
:10127000106820F0F000084310607047014600201D
:101280007E4A0832106820F4E0500843106070472E
:1012900001460020794A0832106820F4604040EA94
:1012A000C10010607047F0B5002100220024022523
:1012B00000260223714F08373F6807F00C0121B167
:1012C000042905D0082937D105E0724F076036E0C0
:1012D000714F076033E0694F3F1D3F68C7F3805689
:1012E000664F3F1D3F6807F03F036EB16A4FB7FB83
:1012F000F3F7DFF888C10CF1040CDCF800C0CCF384
:10130000881C07FB0CF40CE0624FB7FBF3F7DFF827
:101310006CC10CF1040CDCF800C0CCF3881C07FB9A
:101320000CF4564F3F1D3F68C7F301477F1C7D00FB
:10133000B4FBF5F7076002E0564F076000BF00BF3F
:101340004E4F08373F6807F0F0010909534F7A5CA8
:101350000768D7404760494F08373F6807F4E051B6
:10136000890A4E4F7A5C4768D7408760434F0837F9
:101370003F6807F46041490B484F7A5C4768D740A3
:10138000C760F0BD002100F44072B2F5407F0AD181
:101390003A4A0832116821F4F811414A02401143D7
:1013A000364A08321160354A70321268C0F30B03B6
:1013B0001A43324B70331A6070473549443908601C
:1013C00070473349403908607047364908607047B4
:1013D00001460020294A8C32106820F01F004A1E66
:1013E0001043264A8C321060704701460020234A81
:1013F0008C32106820F4F8504A1E40EA02201F4A3E
:101400008C3210607047014600201C4A8C321068F4
:1014100020F4401008431060704701460020174A2E
:101420008C32106820F44000084310607047014679
:101430000020124A8C32106820F4403008431060BB
:10144000704719490860704739B10C4A3032126848
:1014500002430A4B30331A6006E0084A3032126801
:101460008243064B30331A607047F9B1034A343275
:1014700012680243014B34331A601CE0003802400A
:10148000FFFFF6EA10300024003000200000474241
:10149000800E47420024F40000127A00340000203D
:1014A000FFFCFF0F5C014742E01147428F4A126880
:1014B00082438E4B1A60704739B18C4A121D1268F4
:1014C00002438A4B1B1D1A6006E0884A121D1268EF
:1014D0008243864B1B1D1A60704739B1834A0C3218
:1014E00012680243814B0C331A6006E07F4A0C32CB
:1014F000126882437D4B0C331A60704739B17B4AC6
:10150000103212680243794B10331A6006E0774AB2
:10151000103212688243754B10331A60704739B12C
:10152000724A243A12680243704B243B1A6006E068
:101530006E4A243A126882436C4B243B1A6070470F
:1015400039B16A4A203A12680243684B203B1A605C
:1015500006E0664A203A12688243644B203B1A60D8
:10156000704739B1614A1C3A126802435F4B1C3B19
:101570001A6006E05D4A1C3A126882435B4B1C3BD2
:101580001A60704739B1594A143A12680243574BEE
:10159000143B1A6006E0554A143A12688243534BD2
:1015A000143B1A60704739B1504A103A126802432E
:1015B0004E4B103B1A6006E04C4A103A12688243C8
:1015C0004A4B103B1A60704739B1484A1C321268C6
:1015D0000243464B1C331A6006E0444A1C32126830
:1015E0008243424B1C331A60704739B13F4A203264
:1015F000126802433D4B20331A6006E03B4A20321A
:1016000012688243394B20331A60704739B1374A28
:10161000243212680243354B24331A6006E0334A01
:10162000243212688243314B24331A60704739B137
:101630002E4A2C32126802432C4B2C331A6006E0DF
:101640002A4A2C3212688243284B2C331A60704786
:1016500039B1264A303212680243244B30331A60C3
:1016600006E0224A303212688243204B30331A603F
:101670007047012808D11D493C31096841F0080133
:101680001A4A3C32116007E018493C31096821F0E0
:101690000801164A3C321160704739B1134A273AA3
:1016A00012780243114B273B1A7006E00F4A273A83
:1016B000127882430D4B273B1A7070470B4840301D
:1016C000006840F080700949403108607047014669
:1016D0000020064A283A12680A400AB1012000E0B8
:1016E000002070470149263908707047343802409D
:1016F00010B50446FE48844208D101210846FFF790
:1017000052FF00210120FFF74EFF9DE0B4F1804F12
:1017100008D101210846FFF735FF00210120FFF71E
:1017200031FF91E0F348844208D101210220FFF704
:1017300029FF00210220FFF725FF85E0EE488442C3
:1017400008D101210420FFF71DFF00210420FFF72D
:1017500019FF79E0E948844208D101210820FFF708
:1017600011FF00210820FFF70DFF6DE0E4488442DF
:1017700008D101211020FFF705FF00211020FFF7FD
:1017800001FF61E0DF48844208D101212020FFF7FA
:10179000F9FE00212020FFF7F5FE55E0DA488442EB
:1017A00008D101210220FFF7FEFE00210220FFF7F1
:1017B000FAFE49E0D548844209D101210804FFF727
:1017C000F2FE00214FF48030FFF7EDFE3CE0D04800
:1017D000844209D101214804FFF7E5FE00214FF4BE
:1017E0000030FFF7E0FE2FE0CA48844209D1012112
:1017F0008804FFF7D8FE00214FF48020FFF7D3FEC6
:1018000022E0C548844208D101214020FFF7BAFEFA
:1018100000214020FFF7B6FE16E0C048844208D100
:1018200001218020FFF7AEFE00218020FFF7AAFEF5
:101830000AE0BB48844207D101218015FFF7A2FED0
:101840000021A015FFF79EFE10BD00220288A84BC4
:1018500098420ED0AC4B98420BD0B0F1804F08D0DC
:10186000A44B984205D0A44B984202D0A34B984277
:1018700004D14FF68F731A404B881A43A04B9842FD
:1018800007D0A04B984204D04FF6FF431A400B8973
:101890001A4302804B68C3620B880385944B9842BD
:1018A00002D0994B984201D18B7A0386012383821F
:1018B00070474FF0FF31416000210180018141807C
:1018C000817270470185828270470A460021018833
:1018D0004FF68F7319401143018070474162704782
:1018E000C16270470146486A70470146088D7047DB
:1018F00021B1028842F00202028004E002884FF621
:10190000FD731A400280704721B1028842F0040240
:10191000028004E002884FF6FB731A400280704791
:1019200021B1028842F08002028004E002884FF672
:101930007F731A400280704702884FF6F7731A408F
:10194000028002880A430280704702884FF6FF43F4
:101950001A40028002880A430280704721B102883F
:1019600042F00102028004E002884FF6FE731A4042
:101970000280704770B5002400220023058C4FF6CA
:10198000FE7635400584028C8388048B4FF68F7574
:101990002C40B51E2C400D882C43751E2A408D8985
:1019A0002A434D882A43524DA84202D0564DA842A0
:1019B00013D14FF6F7752A40CD892A434FF6FB75B0
:1019C0002A408D882A434FF6FF652B404FF6FF557E
:1019D0002B400D8A2B434D8A2B43838004838D68D3
:1019E0004563028470BD70B5002400220023058C7D
:1019F0004FF6EF7635400584028C8388048B48F6D9
:101A0000FF752C404FF6FF452C400D884FF6FF76B2
:101A100006EA05252C434FF6DF752A408D8906EA34
:101A200005152A434D8806EA05152A43304DA8427C
:101A300002D0354DA8421DD14FF67F752A40CD8981
:101A40004FF6FF7606EA05152A434FF6BF752A4082
:101A50008D8806EA05152A434FF6FF352B404FF2D5
:101A6000FF752B400D8A06EA85052B434D8A06EA51
:101A700085052B43838004838D688563028470BD54
:101A800070B5002400220023058C4FF6FF66354018
:101A90000584028C8388848B4FF68F752C404FF61B
:101AA000FC752C400D882C434FF6FF552A408D893C
:101AB0004FF6FF7606EA05252A434D8806EA0525F6
:101AC0002A430B4DA84202D00F4DA84238D14FF205
:101AD000FF752A40CD894FF6FF7606EA05252A4391
:101AE0004FF6FF352A408D8806EA05252A4319E07E
:101AF000000001400004004000080040000C0040CD
:101B0000001000400014004000040140004001406B
:101B1000004401400048014000180040001C004003
:101B2000002000404EF6FF752B404DF6FF752B4010
:101B30000D8A06EA05152B434D8A06EA05152B4347
:101B4000838084838D68C563028470BD70B5002274
:101B500000230024058C4EF6FF7635400584038C67
:101B60008488828B48F6FF752A404FF6FF452A404D
:101B70000D884FF6FF7606EA05252A434DF6FF75D8
:101B80002B408D8906EA05352B434D8806EA05353D
:101B90002B43FE4DA84202D0FD4DA84208D14BF682
:101BA000FF752C400D8A4FF6FF7606EA85152C430B
:101BB000848082838D680564038470BD0021018068
:101BC0004180818081608181C18101824182704731
:101BD00070B50346002000241846183001258D40BA
:101BE000ACB21D8CA5431D8409B108290AD100EBB4
:101BF000610005684FF68F7635400560056815432E
:101C000005600FE00D1FC5F34E052844056848F632
:101C1000FF763540056005684FF6FF7606EA022636
:101C20003543056070BD4163704781637047C16390
:101C30007047016470470A460021018B4FF68F738D
:101C400019401143018370470A460021018B48F671
:101C5000FF7319404FF6FF7303EA02231943018310
:101C600070470A460021818B4FF68F73194011434C
:101C7000818370470A460021818B48F6FF73194023
:101C80004FF6FF7303EA02231943818370470A4624
:101C90000021018B4FF6F773194011430183704700
:101CA0000A460021018B4FF2FF7319404FF6FF7374
:101CB00003EA02231943018370470A460021818BFE
:101CC0004FF6F77319401143818370470A4600218C
:101CD000818B4FF2FF7319404FF6FF7303EA022323
:101CE0001943818370470A460021018B4FF6FB732D
:101CF00019401143018370470A460021018B4FF6BA
:101D0000FF3319404FF6FF7303EA0223194301839F
:101D100070470A460021818B4FF6FB73194011432F
:101D2000818370470A460021818B4FF6FF331940AB
:101D30004FF6FF7303EA02231943818370470A4673
:101D40000021018B4FF67F731940114301837047C7
:101D50000A460021018BC1F30E014FF6FF7303EA1F
:101D600002231943018370470A460021818B4FF6F5
:101D70007F7319401143818370470A460021818B8C
:101D8000C1F30E014FF6FF7303EA02231943818367
:101D900070470A460021018C4FF6FD73194011432C
:101DA000018470470A460021018C4FF6F7731940F1
:101DB0001143018470470A460021018C4FF6DF73FE
:101DC00019404FF6FF7303EA021319430184704769
:101DD0000A460021018C4FF67F7319404FF6FF73BE
:101DE00003EA02131943018470470A460021018C5B
:101DF0004FF6FF5319404FF6FF7303EA02231943CE
:101E0000018470470A460021018C4FF2FF7319408C
:101E10004FF6FF7303EA02231943018470470A4611
:101E20000021018C4DF6FF7319404FF6FF7303EA52
:101E3000023319430184704730B5002301248C40DC
:101E4000A3B2048C9C430484048C02FA01F5ADB265
:101E50002C43048430BD30B5002304248C40A3B24D
:101E6000048C9C430484048C02FA01F5ADB22C432B
:101E7000048430BD828B4FF2FF331A408283828B01
:101E80004FF6FF7303EA01231A4382837047F0B5CC
:101E90000C461546002100220026078C4EF6FF7CDA
:101EA00007EA0C070784818B028C4FF6FF7707EA5D
:101EB000043640F6FF4739404FF6FF7707EA05271B
:101EC00039434FF6FF7707EA0337394345F6FF7783
:101ED0003A4046F480573A4381830284F0BD828BB6
:101EE0004FF6F3731A408283828B0A4382837047D2
:101EF000F0B50C461546002100220026078C4FF64F
:101F0000FF6C07EA0C070784818B028C4FF6FF7782
:101F100007EA04264FF60C7739404FF6FF7707EAB9
:101F200003172F4339434FF2FF573A4046F4807767
:101F30003A4381830284F0BD028B4FF2FF331A4093
:101F40000283028B4FF6FF7303EA01231A430283D5
:101F50007047F0B50C461546002100220026078C7C
:101F60004FF6EF7C07EA0C070784018B028C4FF6D3
:101F7000FF7707EA041640F6FF4739404FF6FF7730
:101F800007EA033739434FF6FF7703E000000140CB
:101F90000004014007EA052739434FF65F773A40CE
:101FA00046F010073A4301830284F0BD028B4FF6DE
:101FB000F3731A400283028B0A4302837047F0B521
:101FC0000C46154600210022068C4FF6FE773E4057
:101FD0000684018B028C4FF60C7631407E1C06EA9B
:101FE00003162E4331434FF6F576324044F0010696
:101FF000324301830284F0BD70B505460C4620884B
:1020000050B92389A28861882846FFF7D8FFE18864
:102010002846FFF7CBFF25E0208804280AD1238932
:10202000A28861882846FFF794FFE1882846FFF7D9
:1020300083FF17E0208808280AD12389A2886188B5
:102040002846FFF755FFE1882846FFF748FF09E0DB
:102050002389A28861882846FFF719FFE18828466E
:10206000FFF708FF70BD00210180418001218180C0
:102070000021C180018170472DE9F04105460C46E1
:1020800000260127608808B9022600E00026A08803
:10209000012801D1022700E001272088A0B9238967
:1020A000A28861882846FFF78AFFE1882846FFF763
:1020B0007DFF23893A4631462846FFF74AFFE188EB
:1020C0002846FFF739FF13E02389A2886188284654
:1020D000FFF73FFFE1882846FFF72EFF23893A46A6
:1020E00031462846FFF76BFFE1882846FFF75EFF81
:1020F000BDE8F0810146486B70470146886B704728
:102100000146C86B70470146086C70470A884B88C7
:102110001A438B881A43CB881A430B891A434B897D
:102120001A438B891A43A0F844207047002101808C
:1021300041808180C180018141818181704731B1BD
:10214000B0F8442042F40042A0F8442005E0B0F882
:102150004420C2F30E02A0F84420704721B18288C7
:1021600042F00402828004E082884FF6FB731A403A
:102170008280704721B1828842F00102828004E0AF
:1021800082884FF6FE731A40828070471AB18389A5
:102190000B43838102E083898B4383817047818273
:1021A000704702460020138A0B400BB1012000E06B
:1021B00000207047CA430282704730B502460020B3
:1021C00000230024158A05EA0103958905EA010424
:1021D00013B10CB1012000E0002030BDCA430282DF
:1021E000704741EA0203A0F8483070471AB183896A
:1021F0000B43838102E083898B438381704721B144
:10220000828842F00802828004E082884FF6F773E9
:102210001A408280704701894FF6F872114001819F
:1022200070470A46002101894FF68F731940114308
:102230000181704730B504460D4629462046FFF718
:10224000F0FF208940F00700208130BD2DE9F041EA
:1022500004460D4616461F46602D06D13B46012218
:1022600031462046FFF775FE05E03B460122314628
:102270002046FFF7A4FE29462046FFF7D2FF20891B
:1022800040F007002081BDE8F08130B50C46002108
:102290000189C9B24FF6FF7505EA032515432543A9
:1022A0002943018130BD2DE9F04105460E46174610
:1022B0009846002443463A4631462846FFF7E5FF54
:1022C0002C894FF6F870044044F007044FF68F70E5
:1022D000044044F070042C81BDE8F081F0B5044660
:1022E0000D4616461F463B46324629462046FFF716
:1022F000CCFF208940F480402081F0BD82884FF6D9
:102300008F731A40828082880A43828070470289D4
:102310004FF6F8731A40028102890A43028170471E
:1023200002894FF67F731A40028102890A430281B3
:102330007047F0B50C4615461E46002100220023CA
:102340000189028B038C4FF6F877394021434FF611
:10235000FC473A4040F201173A434FF6DD773B40E5
:102360004FF6FF7707EA06172F433B4301810283AD
:102370000384F0BD21B1828842F08002828004E0B3
:1023800082884FF67F731A4082807047A0F8501001
:102390007047000010B50446FA48844208D1012174
:1023A0001020FFF700F900211020FFF7FCF857E09C
:1023B000F548844209D101214804FFF7E3F80021E0
:1023C0004FF40030FFF7DEF84AE0F048844209D1CC
:1023D00001218804FFF7D6F800214FF48020FFF791
:1023E000D1F83DE0EA48844209D10121C804FFF751
:1023F000C9F800214FF40020FFF7C4F830E0E548A9
:10240000844209D101210805FFF7BCF800214FF4EF
:102410008010FFF7B7F823E0DF48844208D101219C
:102420002020FFF7C0F800212020FFF7BCF817E0BC
:10243000DA48844209D101218807FFF7A3F8002177
:102440004FF08040FFF79EF80AE0D548844207D15C
:1024500001214005FFF796F800216005FFF792F88B
:1024600010BD2DE9FF4705460E460024A14600BFDA
:10247000A046B08900B100BF2C8A24F44054F088F3
:1024800004432C82AC8941F20C608443B0883189CA
:102490000843718908430443AC81AC8A24F4407436
:1024A000B0890443AC826846FEF7FDFEB54885421C
:1024B00002D0B948854202D1DDF80C9001E0DDF888
:1024C0000890A88900F4004040B109EBC90000EB76
:1024D000091031684900B0FBF1F707E009EBC900CA
:1024E00000EB091031688900B0FBF1F76420B7FBFD
:1024F000F0F004012009642101FB1078A88900F4A0
:10250000004040B1322000EBC800B0FBF1F000F019
:102510000700044308E0322000EB08106421B0FB00
:10252000F1F000F00F0004432C81BDE8FF874FF469
:102530001651016000218180C18001810C214181FF
:1025400000218181704710B502460020108A20F4D6
:1025500070600B884C8823438C882343CC882343AA
:102560001843108210BD0021018041808180C1800C
:10257000704721B1828942F40052828104E082894D
:102580004DF6FF731A4082817047028B02F47F423E
:102590000283028B0A430283704721B1828942F48D
:1025A0000042828103E08289C2F30E028281704779
:1025B00021B1828A42F40062828204E0828A4FF270
:1025C000FF731A4082827047C1F30802828070470D
:1025D00001468888C0F308007047028A4FF6F073FE
:1025E0001A400282028A0A430282704721B182891C
:1025F00042F00202828104E082894FF6FD731A40A4
:102600008281704782894FF2FF731A4082818289EA
:102610000A4382817047028A4FF6DF731A400282B2
:10262000028A0A430282704721B1028A42F4804240
:10263000028204E0028A4BF6FF731A40028270475E
:10264000818941F001018181704721B1828A42F084
:102650000802828204E0828A4FF6F7731A4082826F
:102660007047028BD2B20283028B42EA01220283BC
:10267000704721B1828A42F02002828204E0828A7D
:102680004FF6DF731A408282704721B1828A42F08E
:102690001002828204E0828A4FF6EF731A4082822F
:1026A0007047828A4FF6FB731A408282828A0A43FD
:1026B0008282704721B1828A42F00202828204E063
:1026C000828A4FF6FD731A40828270471AB1838A5C
:1026D0000B43838202E0838A8B4383827047F0B589
:1026E0000346002400260025002040F66A17B94260
:1026F00000D100BF1846C1F3421401F01F060127A4
:1027000007FA06F5012C01D10C3004E0022C01D1AE
:10271000103000E014301AB107682F43076002E060
:102720000768AF430760F0BD02460020B1F5007FA7
:1027300000D100BF13880B400BB1012000E0002046
:10274000704701F40072B2F5007F00D100BFCA43A8
:102750000280704770B50246002400230025002047
:1027600040F66A16B14200D100BFC1F3421501F034
:102770001F03012606FA03F3012D13D19689334076
:1027800017E00000001001400044004000480040F5
:10279000004C004000500040001401400078004010
:1027A000007C0040022D02D1168A334001E0968A57
:1027B00033400C12012606FA04F41688344013B193
:1027C0000CB1012000E0002070BD10B500220023F4
:1027D00040F66A14A14200D100BF0A1201249440BD
:1027E000A3B2DC43048010BD70B58AB0064600BFBA
:1027F00042F2107006FB00F407A8FFF75AF802A88F
:10280000FFF7DCF901210820FEF767FE0121022015
:10281000FEF774FE01210846FEF770FE0121152027
:10282000FEF712FE0C20009002208DF80400032019
:102830008DF8050000208DF8060001208DF80700B6
:102840006946FE48FEF762FB02220021FB48FEF7C4
:10285000E8FB02220121F948FEF7E3FB02221146C0
:10286000F648FEF7DEFB02220321F448FEF7D9FB0F
:10287000F34800684008B0FBF4F0401E85B242F215
:1028800010700890ADF81C500020ADF82400ADF891
:102890001E0007A9EB48FEF7D8FF6020ADF808003E
:1028A0000020ADF814000120ADF80A0041F2883094
:1028B000049002A9E348FFF7E3F80821E148FFF795
:1028C000FCF90120ADF80A0041F28830049002A919
:1028D000DC48FFF73BF90821DA48FFF7F7F9012157
:1028E000D848FFF71DF80121D648FFF737F84FF415
:1028F000D440009002208DF8040003208DF80500DC
:1029000000208DF8060001208DF807006946CE48AA
:10291000FEF7FCFA01220921CB48FEF782FB0122D7
:102920000B21C948FEF77DFB01220D21C648FEF7A9
:1029300078FB01220E21C448FEF773FBC0480068F3
:10294000B0FBF4F0401E85B242F210700890ADF872
:102950001C500020ADF82400ADF81E008DF82600B4
:1029600007A9BA48FEF771FF6020ADF80800002003
:10297000ADF80C00ADF814000820ADF816004001C9
:10298000ADF818000020ADF81A000120ADF80A00DB
:1029900041F28830049002A9AC48FEF7EBFF082111
:1029A000AA48FFF774F90120ADF80A0041F2883017
:1029B000049002A9A548FFF716F80821A348FFF7DD
:1029C0006FF90120ADF80A0041F28830049002A9A5
:1029D0009E48FFF755F808219C48FFF76EF9012043
:1029E000ADF80A0041F28830049002A99748FFF739
:1029F000ADF808219548FFF769F901219348FFF7E1
:102A00009EFB01219148FEF78BFF01218F48FEF7C5
:102A1000A5FF4FF44070009002208DF804000320C1
:102A20008DF8050000208DF8060001208DF80700C4
:102A300069468748FEF76AFA032208218448FEF7B0
:102A4000F0FA032209218248FEF7EBFA7C4800687D
:102A5000B0FBF4F0401E85B242F210700890ADF861
:102A60001C500020ADF82400ADF81E008DF82600A3
:102A700007A97848FEF7E9FE6020ADF808000020BD
:102A8000ADF80C00ADF814000820ADF816004001B8
:102A9000ADF818000020ADF81A000120ADF80A00CA
:102AA00041F28830049002A96A48FEF7E9FF082144
:102AB0006648FFF702F90120ADF80A0041F28830BC
:102AC000049002A96348FFF741F808216148FFF725
:102AD000FDF801215F48FFF732FB01215D48FEF759
:102AE0001FFF01215B48FEF739FF5B48844202D992
:102AF00000200AB070BD0120FBE7F0B5DDE90675E6
:102B0000089E059CDFF844C1CCF84070CCF83C60CE
:102B1000CCF83850CCF83440DFF828C10CF1400C28
:102B2000CCF80020ACF1040CCCF80000DFF824C194
:102B30000CF1400CCCF80030ACF1040CCCF80010D7
:102B4000F0BD00B58BB001210820FEF7C6FC0121C5
:102B50000846FEF779FC0820099002208DF828002D
:102B600003208DF8290000208DF82A0001208DF81F
:102B70002B0009A93148FEF7C9F9022203212F4889
:102B8000FEF74FFA642007905420ADF8180000209B
:102B9000ADF82000ADF81A0006A92A48FEF755FE48
:102BA0006020ADF804000020ADF810000120ADF861
:102BB00006000020039001A92248FEF7C7FF082164
:102BC0002048FFF783F801211E48FEF7A9FE0121E6
:102BD0001C48FEF7C3FE0BB000BD014642F2107266
:102BE000B2FBF1F048B94FF47A72164B2C331A60ED
:102BF0000022144B40331A6006E0124A2C32106057
:102C00004208104B40331A60704700B58BB008A8DB
:102C1000FEF74FFE03A8FEF7D1FF01210846FEF79D
:102C20006DFC01211020FEF70FFC4FF4D440019001
:102C300002208DF80800032010E000000000024090
:102C400020000020000C0040001002400000014065
:102C5000000802400004014000BD01058DF8090094
:102C600000208DF80A0001208DF80B0001A95948B9
:102C7000FEF74CF9012209215648FEF7D2F901224C
:102C80000B215448FEF7CDF901220D215148FEF7E2
:102C9000C8F901220E214F48FEF7C3F944F620601F
:102CA0000990A820ADF820000020ADF82800ADF86C
:102CB00022008DF82A0008A94748FEF7C6FD6020CB
:102CC000ADF80C000020ADF81000ADF81800082099
:102CD000ADF81A004001ADF81C000020ADF81E0050
:102CE0000120ADF80E0041F28830059003A93A4862
:102CF000FEF740FE08213848FEF7C9FF0120ADF875
:102D00000E0041F28830059003A93348FEF76BFEB0
:102D100008213148FEF7C4FF0120ADF80E0041F252
:102D20008830059003A92C48FEF7AAFE08212A48FE
:102D3000FEF7C3FF0120ADF80E0041F28830059088
:102D400003A92548FEF702FF08212348FEF7BEFF2E
:102D500001212148FFF7F3F901211F48FEF7E0FDAB
:102D600001211D48FEF7FAFD0BB000BD10B5B0F50E
:102D7000167F02DC4FF4167004E0B0F5166F01DB2D
:102D80004FF41660B1F5167F02DC4FF4167104E0C3
:102D9000B1F5166F01DB4FF41661B2F5167F02DC58
:102DA0004FF4167204E0B2F5166F01DB4FF41662B1
:102DB000B3F5167F02DC4FF4167304E0B3F5166F1B
:102DC00001DB4FF41663044C2164E363A263606388
:102DD00010BD0000001002400000014010B5044684
:102DE0006FF00400FDF7EEFFE11704EB5171C1F342
:102DF000C701394A11701046007800EB4001C1EB61
:102E0000C0104FF6FF7101EAC0003449088010BDC0
:102E10000146314A12784A434FF0E0235A610022BA
:102E20009A611A46126942F001021A6100BF4FF01E
:102E3000E022106900F001021AB100F48032002A89
:102E4000F5D04FF0E022126922F001024FF0E023AA
:102E50001A6100229A6170470146204A12884A434B
:102E60004FF0E0235A6100229A611A46126942F03B
:102E700001021A6100BF4FF0E022106900F0010268
:102E80001AB100F48032002AF5D04FF0E022126926
:102E900022F001024FF0E0231A6100229A6170478C
:102EA00070B504464FF4077094FBF0F0C6B24FF4CF
:102EB000077094FBF0F100FB114085B205E04FF480
:102EC0000770FFF7C9FF701EC6B2002EF7D115B10B
:102ED0002846FFF7C1FF70BD4400002046000020D7
:102EE0004A0A52020243FE4B1A607047014607230A
:102EF00023EA01021202FA4B1B1D18684FF6FF036A
:102F00001840F84B18431043F54B1B1D18607047D1
:102F10002DE9F0410746884614461D462846FFF72E
:102F2000E5FFC5F1040007FA00F60F20284100EA8A
:102F30000800064306F00F06E21704EBD2625211B6
:102F4000920002F1E022D2F800212146E31704EBBF
:102F5000D3635B11A4EB431C012303FA0CF31A4364
:102F60002046E31704EBD3635B119B0003F1E023DE
:102F7000C3F80021DC48005D40EA0610DA49085534
:102F8000BDE8F081F0B503460846CD1701EB957515
:102F9000AD10A1EB8505AD062C0ED448006840F4B9
:102FA0008040D24D2860CD1701EB9575AE10D04D05
:102FB00055F826500F26A640B5430846CE1701EB1C
:102FC0009676B710CA4E46F82750CD1701EB957587
:102FD000AE10C74D55F8265003FA04F63543CE1708
:102FE00001EB9676B710C24E46F82750C1480068EC
:102FF00001258D402843BF4D286002F0010040B1FB
:10300000BC480C30006801258D402843B94D0C3573
:10301000286002F0020040B1B6480830006801257F
:103020008D402843B34D08352860F0BD30B5CC1035
:1030300000F1200353F824304C07E50E0F24AC4078
:10304000A343CD1000F1200444F82530CC1000F14A
:10305000200353F824304C07E40E02FA04F423430F
:10306000CD1000F1200444F8253030BD2DE9F047A3
:103070000C46DDE90867002100258C4600BF60E0B2
:103080004FF0010808FA01F504EA050CAC4557D1E8
:10309000D0F800804FEA410A4FF0030909FA0AF913
:1030A00028EA0908C0F80080D0F800804FEA4109FA
:1030B00002FA09F948EA0908C0F80080012A01D09B
:1030C000022A27D1D0F808804FEA410A4FF00309BD
:1030D00009FA0AF928EA0908C0F80880D0F8088037
:1030E0004FEA410906FA09F948EA0908C0F80880D8
:1030F000D0F804904FF0010808FA01F829EA08090D
:10310000C0F80490D0F8048003FA01F948EA0908ED
:10311000C0F80480D0F80C804FEA410A4FF0030950
:1031200009FA0AF928EA0908C0F80C80D0F80C80DE
:103130004FEA410907FA09F948EA0908C0F80C8082
:10314000491C10299CD3BDE8F08730BF704772B688
:10315000704762B6704700B561480830006840F0BB
:1031600004005F49083108606048001F006840F0B3
:1031700080505E49091F08605F48406840F48070D5
:103180005D4948600846006840F004000860084651
:10319000006840F002000860FFF7D7FF00BD51480B
:1031A000001D4F49091D08607047F0B504460D46E3
:1031B000002100204D4E443E366846F480364B4F89
:1031C000443F3E6001E04E1CB1B2484E443E36687A
:1031D00006F400361EB941F6FF76B142F3DB41F644
:1031E000FF76B14201D1012063E0404E361F3668C0
:1031F00046F080563D4F3F1F3E603F4E366846F4D6
:1032000040463D4F3E60394E3C3E366846F41446DB
:10321000364F3C3F3E60354E443E366826F0807661
:10322000324F443F3E6045EA84160127C7EB520700
:1032300046EA074646EA036646F480062B4F403FBF
:103240003E603E1F366846F080763F1F3E6000BFFE
:10325000264E443E366806F00076002EF8D0274E03
:10326000366846F48076254F3E603E46366846F422
:1032700000763E603E46366846F480663E603E46D6
:10328000366846F005063E60184E3C3E366826F02D
:103290000306164F3C3F3E603E46366846F0020647
:1032A0003E6000BF114E3C3E366806F00C06082E0C
:1032B000F8D1F0BDF0B504460D4616461F460B4842
:1032C0004438006840F00100084944390860002093
:1032D00006493C390860054844380068084911E04F
:1032E00008ED00E00000FA0500E400E04438024088
:1032F00008380140003C014000700040003C0240A2
:10330000FFFFF6FE08400D4908600D48091D0860E2
:10331000081F006820F48020091F0860002007496A
:103320000C3108603B46324629462046FFF73DFFF8
:1033300000210846FFF7D4FDF0BD00000038024030
:1033400010300024014600BF704700BF2D4A12888C
:1033500002F04002002AF9D0C2B22A4B9A8070478C
:1033600010B588B0044601210846FEF76DF801212A
:103370001020FEF7C3F8072209212348FDF751FE6C
:1033800007220A212048FDF74CFE4FF4C06006904A
:1033900002208DF81C008DF81D0000208DF81E0005
:1033A00001208DF81F0006A91748FDF7AFFD029414
:1033B0000020ADF80C00ADF80E00ADF81000ADF82F
:1033C00014000C20ADF8120025208DF80400012017
:1033D0008DF805008DF806008DF8070001A8FDF7AF
:1033E000A4FC02A90748FFF73CF8012240F225514E
:1033F0000448FFF774F901210248FFF7BAF808B052
:1034000010BD000000100140000002407FB50546DD
:103410000C4601210220FEF760F80295ADF8044049
:103420000020ADF80600ADF80C0001A90D48FEF72C
:103430000CFA012211460B48FEF7A8FE01210948AB
:10344000FEF78CFA1D208DF8000003208DF8010096
:103450008DF8020001208DF803006846FDF765FC39
:103460007FBD00000004004010B5044600BF4021AD
:10347000F748FFF759F90028F9D02146F448FFF73B
:10348000A3F810BDF0B589B006460F4615461C2DB1
:1034900001DD09B0F0BD002101AA281D1154AA20A8
:1034A0008DF804008DF805008DF806608DF8075042
:1034B000002405E0395D201D01AA1154601CC4B22E
:1034C000AC42F7DB00240AE001A9281D085C095D75
:1034D0000844C1B201AA281D1154601CC4B2281DA1
:1034E0008442F1DB002405E001A9085DFFF7BCFF81
:1034F000601CC4B2681D8442F6DB00BFC9E72DE939
:10350000F04385B004460D4617461E46DDE90C899A
:10351000200A8DF80000E0B28DF80100280A8DF82D
:103520000200E8B28DF80300380A8DF80400F8B202
:103530008DF80500300A8DF80600F0B28DF807000E
:103540004FEA18208DF8080008F0FF008DF80900F8
:103550004FEA19208DF80A0009F0FF008DF80B00E2
:1035600000208DF80C008DF80D008DF80E008DF800
:103570000F008DF810008DF811001222694602200C
:10358000FFF780FF05B0BDE8F083FEB504460D46A9
:103590001646002704E000200DF80700781CC7B28B
:1035A0000C2FF8DB200A8DF80000E0B28DF8010046
:1035B000280A8DF80200E8B28DF80300300A8DF871
:1035C0000400F0B28DF8050000208DF806008DF89B
:1035D00007008DF808008DF809008DF80A00012019
:1035E0008DF80B000C226946FFF74CFFFEBD2DE95C
:1035F000FF4107460C4615461E46380A8DF8000066
:10360000F8B28DF80100200A8DF80200E0B28DF8C2
:103610000300280A8DF80400E8B28DF80500300A8E
:103620008DF80600F0B28DF8070000208DF8080034
:103630008DF809008DF80A008DF80B008DF80C004C
:103640008DF80D008DF80E008DF80F0010226946E0
:103650000620FFF717FFBDE8FF812DE9FF41054672
:103660000E46002700248DF800508DF8016000BF41
:1036700005E01DF804003844C7B2601CC4B2062C33
:10368000F7DB8DF8027007226946EF20FFF7FAFE9C
:10369000BDE8FF812DE9F0412DED048B04460D4678
:1036A0000026002700BF04E0E05D3044C6B2781C6D
:1036B000C7B2681EB842F7DC601910F8010CB042BE
:1036C00003D0BDEC048BBDE8F0812078AA2802D19C
:1036D0006078AF2800D0F4E7A078012806D12079DF
:1036E000012803D12079022800D100BFA07810283A
:1036F00003D1A0783146FFF7B0FFA078112803D19D
:10370000A0783146FFF7A9FFA078122803D1A0784E
:103710003146FFF7A2FFA078132803D1A0783146E5
:10372000FFF79BFFA078142803D1A0783146FFF75C
:1037300094FFA07815287CD1A17A090209B2E27A17
:1037400041EA020002F091FD41EC190B9FED410BA3
:1037500053EC102B02F0A0FD41EC180B02F054FDCD
:103760003E490860217B090209B2627B41EA0200FE
:1037700002F07BFD41EC190B9FED360B53EC102B47
:1037800002F08AFD41EC180B02F03EFD344908605E
:10379000A17B090209B2E27B41EA020002F065FD69
:1037A00041EC190B9FED2B0B53EC102B02F074FD29
:1037B00041EC180B02F028FD2A490860217C09021F
:1037C00009B2627C41EA020002F04FFD41EC190BA4
:1037D0009FED200B53EC102B02F05EFD41EC180B1B
:1037E00002F012FD20490860A17C090209B2E27CC6
:1037F00041EA020002F039FD41EC190B9FED150B77
:1038000053EC102B02F048FD41EC180B02F0FCFCCD
:1038100016490860217D090209B2627D41EA020071
:1038200002F023FD41EC190B9FED0A0B53EC102B1A
:1038300000E00BE002F030FD41EC180B02F0E4FC7C
:103840000B490860A0783146FFF707FF00BF38E753
:10385000001001409A9999999999B93F98000020D0
:103860009C000020A0000020A4000020A800002050
:10387000AC00002010B504463448007838B9AA2CB2
:1038800005D1012031490870314804705DE02F48AE
:103890000078012807D1AF2C05D102202B490870F0
:1038A0002B48447051E029480078022807D1F12CB8
:1038B00005DA0320254908702548847045E023482F
:1038C000007803280CD1322C0ADA04201F49087032
:1038D0001F48C4701F48047000201F49087034E05E
:1038E0001A480078042819D11A480078002815DDF4
:1038F00018480078401E1749087017480078164984
:103900000978491C144A1170001D11490C541148C2
:103910000078D0B905200D49087016E00B480078F2
:1039200005280FD10020094908700B480078001DB8
:1039300007490C5408480078401DC1B20448FFF7FD
:10394000A9FE02E000200149087010BD4A000020D5
:103950004C01002048000020490000201CB5012136
:103960002020FDF771FD4FF4C060009001208DF81C
:10397000040000208DF8060003208DF805000120CA
:103980008DF8070069460448FDF7C0FA4FF4C0619E
:103990000148FDF737FB1CBD001402401CB5F74879
:1039A000008850B1F548B0F9000000EE100AB8EEFA
:1039B000C00AF34880ED000A05E0F24890ED000AE5
:1039C000EF4880ED000AF048008850B1EE48B0F9A9
:1039D000000000EE100AB8EEC00AEC4880ED000AC4
:1039E00005E0EB4890ED000AE84880ED000AE44865
:1039F00090ED000AE348D0ED000A30EE600AE54899
:103A000080ED000AE14890ED000AE148D0ED000A9F
:103A100030EE600AE04880ED000ADE48D0ED000A92
:103A2000D74890ED000A01F0DDFEDC4880ED000A89
:103A3000D948D0ED000AD54890ED000A01F0EEFF1C
:103A4000D74880ED000ACE4890ED000ACD4880EDC1
:103A5000000ACE4890ED000ACD4880ED000A002013
:103A600000900190CE4890ED000ABDEEC00A10EE25
:103A7000100A03B2C94890ED000ABDEEC00A10EE6C
:103A8000100A02B2C14890ED000ABDEEC00A10EE65
:103A9000100A01B2BA4890ED000ABDEEC00A10EE5D
:103AA000100A00B2FFF72BFD1CBD10B5BD48006821
:103AB000401CBC490860FFF771FFBA4800686428E1
:103AC00040D3DFEDB90AB54890ED000A00F0DCFF05
:103AD000BDEEC00AB54880ED000ADFEDB30AB0487C
:103AE00090ED000A01F017F8BDEEC00AB04880ED75
:103AF000000AB0480088AD490988401AAE490880DC
:103B0000AE480088A94909880844AD490880AD48F5
:103B10000088A7490988401AAB490880AB4800884B
:103B2000A34909880844AA49088008460388A4488C
:103B30000288A5480188A0480088FFF717F963208C
:103B40009849086010BD10B596480068401C95491A
:103B50000860FFF723FF93480068642840D3DFED37
:103B6000920A8E4890ED000A00F08EFFBDEEC00A6A
:103B70008E4880ED000ADFED970A894890ED000A33
:103B800000F0C9FFBDEEC00A894880ED000A8948EF
:103B9000008886490988401A874908808748008834
:103BA00082490988084486490880864800888049F7
:103BB0000988401A84490880844800887C4909881B
:103BC000084483490880084603887D4802887E4867
:103BD000018879480088FFF7C9F8632071490860B7
:103BE00010BD10B56F480068401C6E490860FFF7B3
:103BF000D5FE6C480068642844D3774800780028D4
:103C000040D1DFED760A654890ED000A00F03CFFF8
:103C1000BDEEC00A654880ED000ADFED710A60481C
:103C200090ED000A00F077FFBDEEC00A604880ED1D
:103C3000000A604800885D490988401A5E4908808A
:103C40005E4800885949098808445D4908805D48F4
:103C5000008857490988401A5B4908805B480088FA
:103C60005349098808445A4908800846038854483B
:103C700002885548018850480088FFF777F863208C
:103C800048490860454890ED000ADFED560AB4EE59
:103C9000E00AF1EE10FA21D890ED000ADFED520AA9
:103CA000B4EEE00AF1EE10FA18DB3D4890ED000AA0
:103CB000DFED4E0AB4EEE00AF1EE10FA0EDB90ED05
:103CC000000ADFED4B0AB4EEE00AF1EE10FA05D877
:103CD00048480078401C4749087002E000204549E8
:103CE000087044480078C82805DB01203A4908706C
:103CF000C820404908703848007801283DD1DFEDE0
:103D00002A0A264890ED000A00F0BEFEBDEEC00A69
:103D1000264880ED000ADFED2F0A214890ED000AC9
:103D200000F0F9FEBDEEC00A214880ED000A2148EE
:103D300000881E490988401A1F4908801F480088CA
:103D40001A49098808441E4908801E4800881849F5
:103D50000988401A1C4908801C48008814490988B1
:103D600008441B49088008460388154802881648FD
:103D7000018811480088FEF7F9FF10BD04000020FB
:103D80005C0000206400002006000020600000208D
:103D9000680000206C0000207000002074000020EB
:103DA000780000207C000020000038424C000020F9
:103DB0005000002008000020540000200C000020CB
:103DC000560000200A000020580000200E000020AD
:103DD0005A000020000034428000002000003C42D5
:103DE0000000944200005C42000020420000884233
:103DF0000000A0428100002010B5FE480068401C71
:103E0000FC490860FFF7CAFDFA480068642840D3FF
:103E1000F3EE030AF84890ED000A00F035FEBDEE1F
:103E2000C00AF64880ED000AF3EE030AF44890ED6C
:103E3000000A00F070FEBDEEC00AF24880ED000AF4
:103E4000F1480088ED490988401AF0490880F04897
:103E50000088EA4909880844EE490880EE4800884D
:103E6000E8490988401AED490880ED480088E5498D
:103E700009880844EB49088008460388E548028819
:103E8000E6480188E1480088FEF770FF6320D949C1
:103E9000086010BD10B5D7480068401CD5490860BF
:103EA000FFF77CFDD3480068642844D3DE480078DF
:103EB000002840D15FED370ACF4890ED000A00F0AE
:103EC000E3FDBDEEC00ACD4880ED000A5FED3C0A7F
:103ED000CB4890ED000A00F01EFEBDEEC00AC948B6
:103EE00080ED000AC8480088C4490988401AC749BB
:103EF0000880C7480088C14909880844C549088026
:103F0000C5480088BF490988401AC4490880C44888
:103F10000088BC4909880844C249088008460388CB
:103F2000BC480288BD480188B8480088FEF71EFFDB
:103F30006320B0490860B04890ED000ADFEDBB0A8D
:103F4000B4EEE00AF1EE10FA21D890ED000ADFEDB0
:103F5000B80AB4EEE00AF1EE10FA18DBA84890EDCA
:103F6000000ADFEDB40AB4EEE00AF1EE10FA0EDB5F
:103F700090ED000ADFEDB00AB4EEE00AF1EE10FABF
:103F800005D8AE480078401CAC49087002E000201B
:103F9000AA490870A9480078C82805DB0120A24971
:103FA0000870C820A5490870934890ED000ADFED1D
:103FB0009F0AB4EEE00AF1EE10FA21D890ED000A63
:103FC000DFED9B0AB4EEE00AF1EE10FA18DB8C4844
:103FD00090ED000AF3EE000AB4EEE00AF1EE10FAFA
:103FE0000EDB90ED000AF3EE060AB4EEE00AF1EE05
:103FF00010FA05D892480078401C9149087002E0F8
:1040000000208F4908708E480078C82805DB012001
:104010008C490870C8208A490870834800780128B4
:1040200042D188480078E0BB5FED940A724890ED79
:10403000000A00F029FDBDEEC00A704880ED000ABC
:10404000F3EE030A6E4890ED000A00F064FDBDEE49
:10405000C00A6C4880ED000A6B48008867490988EF
:10406000401A6A4908806A480088644909880844F7
:10407000684908806848008862490988401A674989
:104080000880674800885F490988084465490880B6
:10409000084603885F480288604801885B480088BA
:1040A00000E001E0FEF762FE5F480078012841D1A0
:1040B0006448007801283DD1F3EE030A4E4890EDA4
:1040C000000A00F0E1FCBDEEC00A4C4880ED000A99
:1040D000F3EE030A4A4890ED000A00F01CFDBDEE25
:1040E000C00A484880ED000A4748008843490988CB
:1040F000401A4649088046480088404909880844D3
:1041000044490880444800883E490988401A434988
:104110000880434800883B49098808444149088091
:10412000084603883B4802883C4801883748008895
:10413000FEF71CFE10BD2DE9F0412DED028B04466B
:104140000E4615461F46B0EE408A3F4890ED000AE5
:10415000F7EE000A30EE200A80ED000A301B00EE78
:10416000100AB8EEC00AC0EE080A374890ED001AEF
:1041700000EE104AB8EE400A00EE810A334880EDA6
:10418000000A781B00EE100AB8EEC00AC0EE080A5A
:104190002D4890ED001A00EE105AB8EE400A00EEDD
:1041A000810A2B4880ED000A2848D0ED000A124809
:1041B00090ED000A00F068FCBDEEC00A0F4880EDEB
:1041C000000A2348D0ED000A0D4890ED000A00F0E7
:1041D000A2FCBDEEC00A0B4880ED000A0A48008828
:1041E00006490988401A0949088009480088034996
:1041F00009882FE07C000020740000204C00002083
:10420000780000205000002008000020540000200A
:104210000C000020560000200A000020580000205A
:104220000E0000205A0000208200002000005042B2
:104230000000304200008E4200009E4284000020B8
:104240008500002083000020880000208C000020D2
:10425000900000200844FE490880FE480088FE497E
:104260000988401AFD490880FD480088FA490988F4
:104270000844FC49088008460388F5480288F74846
:104280000188F9480088FEF771FDF84890ED000AB2
:10429000B4EEC80AF1EE10FA07DB90ED000AF7EE73
:1042A000000A30EE600A80ED000ABDEC028BBDE82A
:1042B000F08110B5EE480068401CED490860FFF73A
:1042C0006DFBEB480068C8280AD39FEDEA0A2E234D
:1042D0001A464B210846FFF72EFFC720E449086025
:1042E00010BD10B5E2480068401CE1490860FFF7C6
:1042F00055FBDF48006864280AD39FEDDE0A2F23B0
:104300004B2219461046FFF716FF6320D849086074
:1043100010BD10B5D6480068401CD5490860FFF7AD
:104320003DFBD3480068642852D3D348007898BB3B
:104330009FEDD00A4B231A462F211846FFF7FBFEAC
:10434000CE4890ED000A5FED470AB4EEE00AF1EEC8
:1043500010FA22D890ED000ADFEDC90AB4EEE00AA7
:10436000F1EE10FA19DBC74890ED000ADFEDC60A3E
:10437000B4EEE00AF1EE10FA0FDB90ED000ADFED8B
:10438000C30AB4EEE00AF1EE10FA06D8C04800788D
:10439000401CBF49087003E012E00020BC490870CF
:1043A000BB480078FA2813DB0120B3490870C82005
:1043B000B74908709FEDB70AAC4880ED000A07E0E6
:1043C0009FEDAC0A2F234B2219461846FFF7B3FE88
:1043D00010BD10B5A6480068401CA5490860FFF74D
:1043E000DDFAA3480068642817D3A1480068B0F537
:1043F000967F12D89FED9F0A27234B223521104626
:10440000FFF799FE9A480068B0F5967F12D19FEDAC
:10441000A10A964880ED000A0CE095480068B0F5C6
:10442000967F07D99FED9C0A132327221946352032
:10443000FFF781FE10BD10B58D480068401C8C4907
:104440000860FFF7ABFA8A480068642817D38848E9
:104450000068B0F5967F12D89FED860A2E234B2276
:1044600049211046FFF767FE81480068B0F5967F46
:104470006FD19FED880A7D4880ED000A69E07C4895
:104480000068B0F5967F17D979480068B0F5C87F05
:1044900012D89FED820A2E231A4649210846FFF7BB
:1044A0004AFE73480068B0F5C87F52D19FED790A83
:1044B0006E4880ED000A4CE06D480068B0F5C87F9A
:1044C00019D96B48006840F22621884213D89FED25
:1044D000740A13232E222F214920FFF72CFE644853
:1044E000006840F22621884233D19FED6A0A5F4876
:1044F00080ED000A2DE05E48006840F226218842E7
:1045000019D95B48006840F28A21884213D89FED90
:10451000630A13231A462F210846FFF70CFE54485E
:10452000006840F28A21884213D19FED5A0A4F4811
:1045300080ED000A0DE04E48006840F28A21884272
:1045400007D99FED4C0A13231A4619462F20FFF76F
:10455000F2FD10BD10B546480068401C4449086093
:10456000FFF71CFA4248006864281BD340480068E3
:10457000B0F5167F16D89FED4B0A4B4803784B4891
:1045800002784B4801784B480078FFF7D4FD384853
:104590000068B0F5167F3AD19FED3E0A334880EDB2
:1045A000000A34E032480068B0F5167F1DD9304863
:1045B000006840F24C41884217D89FED3A0A3E48C5
:1045C0000378394802783D48017839480078FFF788
:1045D000B2FD2748006840F24C41884217D19FED58
:1045E0002D0A224880ED000A11E02148006840F2BF
:1045F0004C4188420BD99FED2B0A314803782E4855
:104600000278304801782D480078FFF794FD10BDFE
:1046100010B517480068401C15490860FFF7BEF93F
:1046200013480068642855D311480068B0F5967F98
:1046300050D89FED100A3C234B2219461046FFF735
:104640007AFD0B480068B0F5967F42D13CE000004F
:10465000560000200A0000205000002058000020D2
:104660000E0000205A000020540000208800002086
:104670007C000020000048439400002074000020CB
:10468000000028427800002000008C420000A04278
:104690009500002000000000000096430000C84282
:1046A000000016430000FA43190000201700002004
:1046B00018000020160000201B0000201A00002017
:1046C0001D0000201C0000201FED0E0AEC4880EDAC
:1046D000000AD4E1EB480068B0F5967F17D9E948A5
:1046E0000068B0F5FA7F12D81FED1E0A3C231A4667
:1046F0001E211846FFF71FFDE2480068B0F5FA7F5B
:10470000E7D11FED1C0ADE4880ED000AB7E1DD4865
:104710000068B0F5FA7F17D9DA480068B0F52F7F46
:1047200012D81FED2C0A1E233C2219461846FFF70B
:1047300002FDD4480068B0F52F7FCAD11FED2B0AC7
:10474000CF4880ED000A9AE1CE480068B0F52F7F8F
:1047500017D9CC480068B0F5617F12D81FED3B0A2D
:104760001E231A463C211846FFF7E5FCC5480068A1
:10477000B0F5617FADD11FED390AC14880ED000A67
:104780007DE1C0480068B0F5617F19D9BD48006877
:1047900040F24C41884213D81FED4A0A3C231E22A6
:1047A00019461846FFF7C7FCB648006840F24C416E
:1047B00088428ED11FED490AB14880ED000A5EE1C2
:1047C000B048006840F24C41884219D9AD480068B1
:1047D00040F21451884213D81FED5A0A3C231A465E
:1047E0001E211846FFF7A7FCA648006840F21451A6
:1047F00088428BD11FED590AA14880ED000A3EE1A5
:10480000A048006840F21451884219D99D480068B8
:1048100040F2DC51884213D81FED6A0A1E233C2265
:1048200019461846FFF787FC9648006840F2DC51AD
:10483000884288D11FED690A914880ED000A1EE187
:104840009048006840F2DC51884219D98D480068D0
:1048500040F2A461884213D81FED7A0A1E231A463B
:104860003C211846FFF767FC8648006840F2A461C7
:10487000884285D11FED790A814880ED000AFEE06B
:104880008048006840F2A461884219D97D480068D8
:1048900040F26C71884213D81FED8A0A3C231E2215
:1048A00019461846FFF747FC7648006840F26C71DD
:1048B000884284D11FED890A714880ED000ADEE04C
:1048C0007048006840F26C71884219D96D480068E0
:1048D00040F63401884213D81FED9A0A3C231A4649
:1048E0001E211846FFF727FC6648006840F6340191
:1048F000884284D11FED990A614880ED000ABEE02C
:104900006048006840F63401884219D95D48006863
:1049100040F6FC01884213D81FEDAA0A1E233C2250
:1049200019461846FFF707FC5648006840F6FC0198
:10493000884204D11FEDA90A514880ED000A9EE08B
:104940005048006840F6FC01884219D94D4800687B
:1049500040F6C411884213D81FEDBA0A1E231A4626
:104960003C211846FFF7E7FB4648006840F6C411B3
:10497000884204D11FEDB90A414880ED000A7EE06B
:104980004048006840F6C411884219D93D48006883
:1049900040F68C21884213D81FEDCA0A3C231E2200
:1049A00019461846FFF7C7FB3648006840F68C21C9
:1049B000884264D11FEDC90A314880ED000A5EE0EB
:1049C0003048006840F68C21884219D92D4800688B
:1049D00040F65431884213D81FEDDA0A3C231A46B8
:1049E0001E211846FFF7A7FB2648006840F6543101
:1049F000884244D11FEDD90A214880ED000A3EE0EB
:104A00002048006840F65431884219D91D48006892
:104A100040F61C41884213D81FEDEA0A1E233C22AF
:104A200019461846FFF787FB1648006840F61C41F8
:104A3000884224D11FEDE90A114880ED000A1EE0EA
:104A40001048006840F61C41884218D90D4800689B
:104A500040F6E441884212D81FEDFA0A13231E22C1
:104A600019461046FFF767FB0648006840F6E44128
:104A7000884204D11FEDF90A014880ED000A10BDFB
:104A8000880000207C000020B0EE401A30EEC10A01
:104A9000444880ED000A90ED000A434880ED000A8A
:104AA000424890ED000A3F48D0ED001A30EE210A4E
:104AB0003E4880ED000A3B4890ED000A3C48D0EDAE
:104AC000001A30EE610A3B4880ED000A3A4890ED4A
:104AD000000A3548D0ED001A20EE210A3748D0ED03
:104AE000001A324890ED002A01EE820A3448D0EDD7
:104AF000001A304890ED002A01EE820A314880ED1C
:104B0000000A284890ED000A294880ED000A2D4847
:104B100090ED000A7047B0EE401A30EEC10A2A4804
:104B200080ED000A90ED000A284880ED000A284830
:104B300090ED000A2448D0ED001A30EE210A2448F6
:104B400080ED000A204890ED000A2248D0ED001ABE
:104B500030EE610A204880ED000A204890ED000AFE
:104B60001A48D0ED001A20EE210A1D48D0ED001A97
:104B7000174890ED002A01EE820A1A48D0ED001A7B
:104B8000154890ED002A01EE820A174880ED000AD0
:104B90000D4890ED000A0F4880ED000A124890ED94
:104BA000000A7047B0000020C8000020CC000020A0
:104BB000B4000020D0000020980000209C000020BD
:104BC000A0000020E0000020BC000020D400002055
:104BD000D8000020C0000020DC000020A40000203D
:104BE000A8000020AC000020E400002010B5FE4B1F
:104BF00019600023FD4CC4F89432002217E0002312
:104C0000F94C0C34236000F0800323B10123F64CEF
:104C1000241D236003E00023F34C241D23600123A3
:104C2000F14C0C3423604306180E531CDAB2082AE8
:104C3000E5DB0123EC4C08342360EC4CC4F88C32E7
:104C400010BD30B500241CE004F1B001C8B2002151
:104C5000FFF7CCFF00212020FFF7C8FF0021102024
:104C6000FFF7C4FF002508E0E14901EBC501085D3D
:104C70000121FFF7BBFF681CC5B2802DF4DB601C6F
:104C8000C4B2082CE0DB30BD00B500218D20FFF759
:104C9000ADFF00211420FFF7A9FF0021AF20FFF78F
:104CA000A5FF00BD00B500218D20FFF79FFF00216B
:104CB0001020FFF79BFF0021AE20FFF797FF00BDFC
:104CC00030B500240CE0002506E00020C84901EBC7
:104CD000C5010855681CC5B2802DF6DB601CC4B246
:104CE000082CF0DBFFF7ADFF30BDF0B51446002611
:104CF0007F2801DC3F2900DDF0BD0B46CF1701EB1B
:104D00005777FF10C7F10707FAB2CF1701EB5777B4
:104D1000FF10A1EBC707FDB2C5F107070123BB4098
:104D2000DEB24CB1B24B03EBC0039B5C3343B04FDC
:104D300007EBC007BB5408E0AD4B03EBC0039B5C23
:104D4000B343AB4F07EBC007BB5400BFD4E72DE91B
:104D5000F04706460F4690469946DDF820A03446B7
:104D60000CE03D4606E0524629462046FFF7BDFFCF
:104D7000681CC5B24D45F6DD601CC4B24445F0DD8B
:104D8000FFF75FFFBDE8F0872DE9F84F80460F463B
:104D900016461C46BA462046E31704EB5373DB1055
:104DA00021464FEAE47C04EB5C7C4FEAEC0CA4EB7C
:104DB000CC0CBCF1000F02D04FF0010C01E04FF021
:104DC000000C6344224604EBD27C4FEA6C0C03FBDC
:104DD0000CF303F0FF0BA6F12000C6B200254EE055
:104DE0000C2C07D106EB4600824901EB8000405DA8
:104DF000009013E0102C05D17F4800EB0610405DB9
:104E000000900BE0182C07D106EBC6007B4901EBA4
:104E10008000405D009001E0BDE8F88F4FF0000990
:104E200027E0009800F0800028B1394640460A9AF1
:104E3000FFF75BFF09E00A9808B9012000E00020B5
:104E4000024639464046FFF750FF00984006000EE4
:104E50000090781CC7B2A7EB0A00A04205D15746C4
:104E600008F1010000F0FF0806E009F1010000F080
:104E7000FF09B9F1080FD4DB00BF681CC5B25D455E
:104E8000AEDB00BFC8E710B50246012000E050438A
:104E90000B00A1F10104E1B2F9D110BD2DE9FF4FE2
:104EA00081B0074691461E460E9D4FF0000A002431
:104EB00039E0301B401EC1B20A20FFF7E4FFB9FB06
:104EC000F0F00A21B0FBF1F201FB1208BAF1000F79
:104ED00016D1701EA04213DDB8F1000F0ED10120D3
:104EE000AB4605EBDB71491001FB04710090C8B2C1
:104EF0002B4620220299FFF747FF12E04FF0010AEC
:104F00000120AB4605EBDB71491001FB04710090F9
:104F1000C8B208F13001CAB22B460299FFF734FF3C
:104F200000BF601CC4B2B442C3DB05B0BDE8F08F63
:104F3000F8B506460F4615461C4621E004EBD47131
:104F40004910C1F18001B14202DA00263819C7B216
:104F5000C4F14000B84204DA002006460746FFF7D5
:104F6000AFFE012000902A78234639463046FFF7ED
:104F70000BFF204604EBD07106EB6101CEB26D1C35
:104F800028787E2802DC28782028D7DAF8BD2DE999
:104F9000F84F06460C461746A2461C200090C7EB69
:104FA000C700174901EB800B00253AE01BF805808C
:104FB0004FF000092FE008F0800028B101222146BF
:104FC0003046FFF792FE04E0002221463046FFF70C
:104FD0008CFE4FEA48604FEA1068601CC4B2A4EB34
:104FE0000A00102813D10DE08C0242420000424218
:104FF0007E010020C5660008396B00082971000891
:10500000CD6400080AF0FF04701CC6B206E009F186
:10501000010000F0FF09B9F1080FCCDB00BF681CEC
:10502000C5B200988542C1DBBDE8F88F2DE9F0419B
:1050300006460F4615462CE00024792E03DD002697
:1050400007F11000C7B2302F04DD002006460746E6
:10505000FFF736FE15E05B48005D297888420ED1E7
:105060005849601C085C6978884208D1A04604EB66
:10507000D870C0F3470239463046FFF788FFA01CBE
:10508000C4B25048005D6428E5DC06F10E00C6B2EB
:10509000AD1C28780028CFD1BDE8F0811CB50121D6
:1050A0001020FCF7D1F97C20009001208DF804003D
:1050B00000208DF8060003208DF8050001208DF8F2
:1050C000070069464048FBF721FF01203F4908607F
:1050D0003F49C1F898023D49091D08603B49091F35
:1050E00008600020091F08606420FDF7D9FE012038
:1050F0003749C1F888020021AE20FFF777FD002173
:10510000D520FFF773FD00215020FFF76FFD002130
:10511000A820FFF76BFD00213F20FFF767FD00216E
:10512000D320FFF763FD00210846FFF75FFD002154
:105130004020FFF75BFD00218D20FFF757FD002188
:105140001420FFF753FD00212020FFF74FFD002121
:105150000220FFF74BFD0021A120FFF747FD0021B2
:10516000C020FFF743FD0021DA20FFF73FFD0021BB
:105170001220FFF73BFD00218120FFF737FD0021C2
:10518000EF20FFF733FD0021D920FFF72FFD00218D
:10519000F120FFF72BFD0021DB20FFF727FD002189
:1051A0003020FFF723FD0021A420FFF71FFD002181
:1051B000A620FFF71BFD0021AF20FFF717FDFFF72B
:1051C0007FFD1CBDA864000800100240900242420E
:1051D000000042421CB501210820FCF735F94FF4CC
:1051E0007F40009000208DF8040003208DF805001A
:1051F00001208DF8070069468348FBF787FE1CBD38
:1052000010B54FF480718048FBF7E2FE68B94FF4A7
:1052100080617D48FBF7DCFE38B94FF480517A4855
:10522000FBF7D6FE08B9002010BD4FF48071764818
:10523000FBF7CEFE01280CD181027348FBF7C8FEB4
:1052400038B94FF480517048FBF7C2FE08B901200D
:10525000EAE74FF480716C48FBF7BAFE68B94FF487
:1052600080616948FBF7B4FE012806D10103664856
:10527000FBF7AEFE08B90220D6E74FF48071624812
:10528000FBF7A6FE01280CD181025F48FBF7A0FEC8
:10529000012806D101035C48FBF79AFE08B90320F8
:1052A000C2E74FF480715848FBF792FE70B94FF493
:1052B00080615548FBF78CFE40B94FF4805152484D
:1052C000FBF786FE012801D10420ADE74FF4807181
:1052D0004D48FBF77DFE01280DD181024A48FBF7BE
:1052E00077FE40B94FF480514748FBF771FE012823
:1052F00001D1052098E74FF480714348FBF768FE21
:1053000070B94FF480614048FBF762FE012807D175
:1053100001033D48FBF75CFE012801D1062083E72D
:105320004FF480713848FBF753FE01280DD18102FC
:105330003548FBF74DFE012807D101033248FBF742
:1053400047FE012801D107206EE708206CE710B561
:105350002E48007890B34FF400612B48FBF738FEDD
:1053600088B14FF400412848FBF732FE58B14FF4A2
:1053700000512548FBF72CFE28B14FF4007122485C
:10538000FBF726FED0B90020204908704FF40061D9
:105390001D48FBF71DFE08B9012010BD4FF4004168
:1053A0001948FBF715FE08B90220F6E74FF4005143
:1053B0001548FBF70DFE10B90320EEE707E04FF4A8
:1053C00000711148FBF704FEE0B90420E5E74FF453
:1053D00000610D48FBF7FCFD012813D1C1030A4809
:1053E000FBF7F6FD01280DD141030748FBF7F0FD5F
:1053F000012807D141020448FBF7EAFD012801D149
:10540000024908700020C8E7000C0240E8000020B4
:1054100010B588B0044601218804FCF75EF801212C
:105420000220FCF711F807220B218948FBF7F9FD50
:1054300007220A218648FBF7F4FD4FF440600690EE
:1054400000208DF81E0001208DF81F0002208DF82D
:105450001C008DF81D0006A97D48FBF757FD02943E
:105460000020ADF80C00ADF80E00ADF81000ADF85E
:1054700014000C20ADF8120027208DF80400012044
:105480008DF8050003208DF8060001208DF8070037
:1054900001A8FBF74AFC02A96E48FCF7E2FF0122D3
:1054A00040F225516B48FDF71AF901216948FDF7D3
:1054B00060F808B010BD10B5044600BF4021654833
:1054C000FDF732F90028F9D021466248FDF77CF853
:1054D00010BD7FB506460D460021A81C0DF8001032
:1054E000AA208DF800008DF80150002405E0315D00
:1054F000A01C0DF80010601CC4B2AC42F7DB002405
:105500000BE0A81C1DF800001DF804100844C1B2EF
:10551000A81C0DF80010601CC4B2A81C8442F0DB6B
:10552000002405E01DF80400FFF7C5FF601CC4B2AD
:10553000E81C8442F6DB7FBDFEB506460C461546E8
:10554000300A8DF80000F0B28DF80100200A8DF8C5
:105550000200E0B28DF80300280A8DF80400E8B2DA
:105560008DF8050000208DF806008DF807008DF8F5
:1055700008008DF809000A216846FFF7AAFFFEBD62
:1055800010B50023002200BF04E0845C1C44E3B299
:10559000541CE2B24C1E9442F7DC441814F8014C3F
:1055A0009C4200D010BD0478AA2C00D0FAE700BFBE
:1055B000F8E710B504462848007838B9AA2C05D178
:1055C0000120254908702548047040E022480078F1
:1055D000012807D102202049087020484470204843
:1055E000047034E01C480078022819D11C48007867
:1055F000002815DD1A480078401E1949087019481E
:10560000007818490978491C164A1170801C134902
:105610000C5413480078D0B903200F49087016E0E5
:105620000D48007803280FD100200B4908700D4861
:105630000078801C09490C540A480078C01CC1B28B
:105640000648FFF79DFF02E000200349087010BDE7
:105650000004024000480040EB0000207E050020CE
:10566000E9000020EA00002010B588B004460121BE
:105670004804FBF732FF01210846FBF7E5FE07224D
:1056800003212248FBF7CDFC072202211F48FBF72C
:10569000C8FC0C20069000208DF81E0001208DF81B
:1056A0001F0002208DF81C008DF81D0006A9174868
:1056B000FBF72CFC02940020ADF80C00ADF80E00B6
:1056C000ADF81000ADF814000C20ADF81200262043
:1056D0008DF8040001208DF8050002208DF80600E9
:1056E00001208DF8070001A8FBF71FFB02A908485D
:1056F000FCF7B7FE012240F225510548FCF7EFFF09
:1057000001210348FCF735FF08B010BD000002403E
:1057100000440040F0EE400A9FEDFE0AB0EE401A51
:10572000FD490A780978491CFB4B1970FB4901EBCC
:105730008201C1ED000A194609780A2902D1002127
:105740001A46117000200AE0F44901EB800191ED46
:10575000000A30EE010AB0EE401A411CC8B20A2815
:10576000F2DBF2EE041A81EE210A7047F0EE400AF5
:105770009FEDE80AB0EE401AE9490A780978491C19
:10578000E74B1970E74901EB8201C1ED000A1946A8
:1057900009780A2902D100211A46117000200AE076
:1057A000E04901EB800191ED000A30EE010AB0EE14
:1057B000401A411CC8B20A28F2DBF2EE041A81EE4C
:1057C000210A7047F0EE400AB0EE601AD64890ED1C
:1057D000000AF6EE001A20EE210AF6EE001A01EE9B
:1057E000810A7047B0EE401AD04890ED000A70EE82
:1057F000C01ACF4890ED000A9FEDCE2A01EE820A32
:1058000080ED000ACC4890ED010ADFEDCC1A31EEB4
:10581000C00AD0ED021A30EE610AC94880ED000AD4
:10582000C54890ED030AB1EE400AC54880ED010A73
:10583000C14890ED030AB1EE400AC14880ED020A6A
:105840009FEDC00A80ED030ABB4890ED000ABC48FA
:10585000D0ED001A9FEDB72A01EE820AB64880ED1E
:10586000000A90ED010AB648D0ED011A9FEDB12A69
:1058700001EE820AB04880ED010A90ED020AB048BC
:10588000D0ED021A9FEDAB2A01EE820AAA4880ED04
:10589000020A90ED030AAA48D0ED031A9FEDA52A4B
:1058A00001EE820AA44880ED030AA14890ED000AA7
:1058B00031EE400AA44880ED000A9F48D0ED001A5E
:1058C000A248007800EE100AB8EE400A21EE800AE5
:1058D0009F4880ED000A9848D0ED021A9B48007856
:1058E00000EE100AB8EE400A21EE800A994880EDD9
:1058F000000A9648007800EE100AF8EE401A944824
:1059000090ED002AB6EE000A01EE820A924880ED80
:10591000000A8F4890ED000A8F48D0ED001A80EE03
:10592000212A8E4880ED002A8A4890ED000A8A4894
:10593000D0ED001A80EE212A894880ED002A8448A3
:1059400090ED000A874880ED000A7B48D0ED011AEF
:105950007E48007800EE100AB8EE400A21EE800A78
:10596000814880ED000A744890ED000A7B48D0ED34
:10597000001A7C4890ED002A01EEC20A6E4880EDC4
:10598000000A90ED010A7548D0ED001A764890EDB6
:10599000002A01EEC20A684880ED010A90ED020A71
:1059A0006F48D0ED001A6F4890ED002A01EEC20A50
:1059B000614880ED020A90ED030A6948D0ED001AB3
:1059C000694890ED002A01EEC20A5B4880ED030AA7
:1059D000574890ED000A6148D0ED001A5A4890ED02
:1059E000002A01EE820A524880ED000A4F4890EDED
:1059F000000A5B48D0ED001A534890ED002A01EEF2
:105A0000820A4A4880ED000A90ED000A30EEC00A92
:105A1000F0EE400A464890ED000A7047B0EE401A9A
:105A2000424890ED000A70EEC01A504890ED000A0E
:105A30009FED402A01EE820A80ED000A3E4890ED7B
:105A4000010ADFED3E1A31EEC00AD0ED021A30EE47
:105A5000610A3B4880ED000A374890ED030AB1EE39
:105A6000400A374880ED010A334890ED030AB1EE51
:105A7000400A334880ED020A9FED320A80ED030AA6
:105A80002D4890ED000A2E48D0ED001A9FED292AEE
:105A900001EE820A284880ED000A90ED010A2848AC
:105AA000D0ED011A9FED232A01EE820A224880EDF3
:105AB000010A90ED020A2248D0ED021A9FED1D2A3C
:105AC00001EE820A1C4880ED020A90ED030A1C4890
:105AD000D0ED031A9FED172A01EE820A164880EDD9
